:020000040800F2
:1000000060EE002039020008112C0008132C0008B3
:10001000172C00081B2C00081F2C000800000000F3
:10002000000000000000000000000000232C000879
:10003000252C000800000000272C0008292C0008AF
:10004000530200085302000853020008530200083C
:10005000530200085302000853020008530200082C
:10006000530200085302000853020008530200081C
:10007000530200085302000853020008530200080C
:1000800053020008530200085302000853020008FC
:1000900053020008530200085302000853020008EC
:1000A00053020008530200085302000853020008DC
:1000B00053020008530200085302000853020008CC
:1000C00053020008530200085302000853020008BC
:1000D000530200085302000853020008652F00086D
:1000E000530200085302000853020008530200089C
:1000F000530200085302000853020008530200088C
:10010000530200085302000853020008530200087B
:10011000530200085302000853020008530200086B
:10012000530200085302000853020008530200085B
:10013000530200085302000853020008530200084B
:10014000530200085302000853020008530200083B
:10015000530200085302000853020008530200082B
:10016000530200085302000853020008530200081B
:10017000530200085302000853020008530200080B
:10018000530200085302000800F002F800F044F89F
:100190000AA090E8000C82448344AAF10107DA45E2
:1001A00001D100F039F8AFF2090EBAE80F0013F0F0
:1001B000010F18BFFB1A43F001031847D0380000A5
:1001C000F0380000103A24BF78C878C1FAD8520736
:1001D00024BF30C830C144BF04680C6070470000C1
:1001E0000023002400250026103A28BF78C1FBD840
:1001F000520728BF30C148BF0B607047642903F025
:100200008581782903F0E581002070471FB503F050
:1002100080FB1FBD10B510BD03F044FB1146FFF776
:10022000F5FF02F0A9FB03F062FB03B4FFF7F2FF56
:1002300003BC02F005FE000009488047094800475A
:10024000FEE7FEE7FEE7FEE7FEE7FEE7FEE7FEE786
:10025000FEE7FEE704480549054A064B70470000E3
:100260000D2D00088901000860E8002060EE0020E4
:1002700060EA002060EA002032490143324A1160FE
:10028000704770B5002100230F22C4781CB32E4C98
:10029000246804F4E064C4F5E064C4F30721C1F108
:1002A0000404E3B20A4144789C40E1B284781440EB
:1002B00021430C07210E254C05786155047804F084
:1002C0001F050124AC4005786D11AD0005F1E02556
:1002D000C5F8004109E0047804F01F050124AC4092
:1002E0001B4D0678761145F8264070BD194A0A4024
:1002F0000243154B1B1F1A60704739B1124A121D79
:1003000012680243104B1B1D1A6006E00E4A121DB4
:10031000126882430C4B1B1D1A607047042808D1D9
:100320004FF0E021096941F004014FF0E022116132
:1003300007E04FF0E021096921F004014FF0E022CD
:10034000116170470000FA050CED00E000E400E0E8
:1003500080E100E080FFFF1F10B50446984884420A
:1003600008D10121084600F086FB0021012000F0A1
:1003700082FB76E09348844208D10121022000F0FC
:100380007AFB0021022000F076FB6AE08E4884426E
:1003900008D10121042000F06EFB0021042000F0B0
:1003A0006AFB5EE08948844208D10121082000F000
:1003B00062FB0021082000F05EFB52E0844884428A
:1003C00008D10121102000F056FB0021102000F080
:1003D00052FB46E07F48844208D10121202000F0F2
:1003E0004AFB0021202000F046FB3AE07A48844294
:1003F00008D10121402000F03EFB0021402000F008
:100400003AFB2EE07548844208D10121802000F09B
:1004100032FB0021802000F02EFB22E07048844255
:1004200008D10121801500F026FB0021A01500F065
:1004300022FB16E06B48844208D10121401500F0F0
:100440001AFB0021601500F016FB0AE066488442A2
:1004500007D10121001500F00EFB0021201500F04E
:100460000AFB10BDF0B50A4600210023002400BF9E
:100470003DE0012505FA01F3156805EA03049C42F5
:1004800034D105684F000326BE40B5430560157999
:100490004E00B5400668354305601579012D02D040
:1004A0001579022D16D185684F000326BE40B5434D
:1004B000856055794E00B54086683543856045684E
:1004C00001268E40B5434560456896798E40B6B2A8
:1004D00035434560C5684F000326BE40B543C5603F
:1004E000D5794E00B540C6683543C560491C102912
:1004F000BFD3F0BD4FF6FF71016000210171417162
:100500008171C171704708B54FF480320092009A32
:100510000A430092009AC261C161009AC261C26935
:100520000092C269009208BD0246002013690B4088
:100530000BB1012000E0002070470146086980B23D
:1005400070470246002053690B400BB1012000E0C8
:10055000002070470146486980B2704701837047A8
:10056000418370470AB1018300E0418370474161D4
:10057000704742694A4042617047F0B50023002449
:100580004D07ED0E02FA05F3CE1000F1200555F8E7
:1005900026504E07F70E0F26BE40B543CF1000F190
:1005A000200646F82750CE1000F1200555F82650B9
:1005B00045EA0304CE1000F1200545F82640F0BDC1
:1005C000000002400004024000080240000C02400B
:1005D000001002400014024000180240001C0240BB
:1005E000002002400024024000280240F948006830
:1005F00040F00100F74908600020F6490831086022
:10060000F4480068F4490840F2490860F348091DBD
:100610000860F348EF4984310860F0481038091D3C
:100620000860EC48006820F48020EA490860002057
:10063000E8490C310860E7498C31086070470021B7
:10064000E44A921C117011460870704710B50146BB
:100650000022002300204A11012A02D1DD4C236828
:1006600008E0022A03D1DB4C7034236802E0D94C45
:100670007434236801F01F02012494401C400CB123
:10068000012000E0002010BD38B5002000900024BB
:10069000002500BF3120FFF7D9FF05460098401C18
:1006A00000900098B0F5A04F01D0002DF2D031207D
:1006B000FFF7CCFF08B1012400E00024204638BD3C
:1006C00001460020C34A106820F0F80040EAC1004B
:1006D00010607047C349086070470021BD4A7032FE
:1006E00011701170012802D004280AD104E0012100
:1006F000B84A7032117005E00521B64A70321170A7
:1007000000E000BF00BF7047B7490860704770B590
:10071000049C41EA82150126C6EB530645EA0645CC
:10072000054345EA0465AB4E361D356070BDAD49E5
:1007300008667047820142EA0172A64B84331A6050
:100740007047A8498866704710B5830143EA016382
:1007500043EA02739F4C8834236010BDA1490867A7
:100760007047A049C864704702460020994B08337F
:10077000186820F0EC6042EA01031843954B0833F7
:100780001860704702460020924B0833186820F02A
:10079000784042EA010318438E4B083318607047D3
:1007A000014600208B4A0832106820F003000843FD
:1007B0001060704787480830006800F00C007047F0
:1007C00001460020834A0832106820F0F0000843F8
:1007D00010607047014600207E4A0832106820F4FD
:1007E000E05008431060704701460020794A083203
:1007F000106820F4604040EAC10010607047F0B516
:10080000002100220024022500260223714F083710
:100810003F6807F00C0121B1042905D0082937D120
:1008200005E0724F076036E0714F076033E0694FB3
:100830003F1D3F68C7F38056664F3F1D3F6807F076
:100840003F036EB16A4FB7FBF3F7DFF888C10CF1D5
:10085000040CDCF800C0CCF3881C07FB0CF40CE0A3
:10086000624FB7FBF3F7DFF86CC10CF1040CDCF856
:1008700000C0CCF3881C07FB0CF4564F3F1D3F68AB
:10088000C7F301477F1C7D00B4FBF5F7076002E06A
:10089000564F076000BF00BF4E4F08373F6807F054
:1008A000F0010909534F7A5C0768D7404760494F08
:1008B00008373F6807F4E051890A4E4F7A5C476871
:1008C000D7408760434F08373F6807F46041490BC2
:1008D000484F7A5C4768D740C760F0BD002100F4FC
:1008E0004072B2F5407F0AD13A4A0832116821F4C9
:1008F000F811414A02401143364A08321160354A24
:1009000070321268C0F30B031A43324B70331A6013
:1009100070473549443908607047334940390860A9
:10092000704736490860704701460020294A8C32DA
:10093000106820F01F004A1E1043264A8C321060B7
:10094000704701460020234A8C32106820F4F8508A
:100950004A1E40EA02201F4A8C321060704701464E
:1009600000201C4A8C32106820F4401008431060AC
:10097000704701460020174A8C32106820F440006E
:1009800008431060704701460020124A8C321068FC
:1009900020F44030084310607047194908607047E0
:1009A00039B10C4A3032126802430A4B30331A60B4
:1009B00006E0084A303212688243064B30331A6030
:1009C0007047F9B1034A343212680243014B3433A1
:1009D0001A601CE000380240FFFFF6EA10300024E5
:1009E0000030002000004742800E47420024F400FF
:1009F00040787D0100000020FFFCFF0F5C014742B2
:100A0000E01147428F4A126882438E4B1A6070474A
:100A100039B18C4A121D126802438A4B1B1D1A60A1
:100A200006E0884A121D12688243864B1B1D1A601D
:100A3000704739B1834A0C3212680243814B0C3340
:100A40001A6006E07F4A0C32126882437D4B0C33F9
:100A50001A60704739B17B4A103212680243794BF1
:100A600010331A6006E0774A103212688243754BE1
:100A700010331A60704739B1724A243A126802433F
:100A8000704B243B1A6006E06E4A243A1268824397
:100A90006C4B243B1A60704739B16A4A203A12689D
:100AA0000243684B203B1A6006E0664A203A12680F
:100AB0008243644B203B1A60704739B1614A1C3A4B
:100AC000126802435F4B1C3B1A6006E05D4A1C3A09
:100AD000126882435B4B1C3B1A60704739B1594A1C
:100AE000143A12680243574B143B1A6006E0554A09
:100AF000143A12688243534B143B1A60704739B161
:100B0000504A103A126802434E4B103B1A6006E0FE
:100B10004C4A103A126882434A4B103B1A607047A5
:100B200039B1484A1C3212680243464B1C331A60E2
:100B300006E0444A1C3212688243424B1C331A605E
:100B4000704739B13F4A2032126802433D4B20338F
:100B50001A6006E03B4A203212688243394B203348
:100B60001A60704739B1374A243212680243354B54
:100B700024331A6006E0334A243212688243314B30
:100B800024331A60704739B12E4A2C32126802435E
:100B90002C4B2C331A6006E02A4A2C32126882430E
:100BA000284B2C331A60704739B1264A303212680C
:100BB0000243244B30331A6006E0224A3032126876
:100BC0008243204B30331A607047012808D11D49F9
:100BD0003C31096841F008011A4A3C32116007E0D3
:100BE00018493C31096821F00801164A3C3211606D
:100BF000704739B1134A273A12780243114B273B09
:100C00001A7006E00F4A273A127882430D4B273BB1
:100C10001A7070470B484030006840F080700949F6
:100C200040310860704701460020064A283A1268A1
:100C30000A400AB1012000E000207047014926392E
:100C4000087070473438024010B501218803FFF75F
:100C500056FF00214FF48040FFF751FF10BD1C49A3
:100C6000086070471B490862704730B500228B0747
:100C70001C0F0F2303FA04F2154B08338C1053F8A2
:100C800024309343124C08348D1044F82530234609
:100C90008C1053F824308C07240F00FA04F42343FB
:100CA0000B4C08348D1044F8253030BD0949DC3137
:100CB00008607047084908607047002004492031E7
:100CC000096801F4807109B1012000E0002070473B
:100CD00000380140000027420004274210B50446B6
:100CE000FA48844208D101211020FFF708FF0021B3
:100CF0001020FFF704FF57E0F548844209D1012195
:100D00004804FFF7EBFE00214FF40030FFF7E6FE4A
:100D10004AE0F048844209D101218804FFF7DEFE51
:100D200000214FF48020FFF7D9FE3DE0EA488442DD
:100D300009D10121C804FFF7D1FE00214FF40020A2
:100D4000FFF7CCFE30E0E548844209D101210805D7
:100D5000FFF7C4FE00214FF48010FFF7BFFE23E031
:100D6000DF48844208D101212020FFF7C8FE00217E
:100D70002020FFF7C4FE17E0DA48844209D10121A0
:100D80008807FFF7ABFE00214FF08040FFF7A6FE7B
:100D90000AE0D548844207D101214005FFF79EFEB5
:100DA00000216005FFF79AFE10BD2DE9FF470546BB
:100DB0000E460024A14600BFA046B08900B100BF86
:100DC0002C8A24F44054F08804432C82AC8941F2EC
:100DD0000C608443B0883189084371890843044317
:100DE000AC81AC8A24F44074B0890443AC82684678
:100DF000FFF705FDB548854202D0B948854202D1CA
:100E0000DDF80C9001E0DDF80890A88900F40040BE
:100E100040B109EBC90000EB091031684900B0FB93
:100E2000F1F707E009EBC90000EB09103168890010
:100E3000B0FBF1F76420B7FBF0F004012009642156
:100E400001FB1078A88900F4004040B1322000EB8B
:100E5000C800B0FBF1F000F00700044308E03220C6
:100E600000EB08106421B0FBF1F000F00F00044328
:100E70002C81BDE8FF874FF416510160002181806D
:100E8000C18001810C21418100218181704710B511
:100E900002460020108A20F470600B884C8823439F
:100EA0008C882343CC8823431843108210BD002133
:100EB000018041808180C180704721B1828942F4E4
:100EC0000052828104E082894DF6FF731A408281CC
:100ED0007047028B02F47F420283028B0A43028333
:100EE000704721B1828942F40042828103E0828905
:100EF000C2F30E028281704721B1828A42F40062FD
:100F0000828204E0828A4FF2FF731A408282704725
:100F1000C1F308028280704701468888C0F3080048
:100F20007047028A4FF6F0731A400282028A0A431F
:100F30000282704721B1828942F00202828104E07C
:100F400082894FF6FD731A408281704782894FF281
:100F5000FF731A40828182890A4382817047028A24
:100F60004FF6DF731A400282028A0A4302827047F8
:100F700021B1028A42F48042028204E0028A4BF6E6
:100F8000FF731A4002827047818941F0010181811B
:100F9000704721B1828A42F00802828204E0828A8C
:100FA0004FF6F7731A4082827047028BD2B20283E7
:100FB000028B42EA01220283704721B1828A42F009
:100FC0002002828204E0828A4FF6DF731A40828216
:100FD000704721B1828A42F01002828204E0828A44
:100FE0004FF6EF731A4082827047828A4FF6FB7386
:100FF0001A408282828A0A438282704721B1828AA1
:1010000042F00202828204E0828A4FF6FD731A40A7
:10101000828270471AB1838A0B43838202E0838AFB
:101020008B4383827047F0B50346002400260025D9
:10103000002040F66A17B94200D100BF1846C1F33C
:10104000421401F01F06012707FA06F5012C01D111
:101050000C3004E0022C01D1103000E014301AB141
:1010600007682F43076002E00768AF430760F0BDE1
:1010700002460020B1F5007F00D100BF13880B406D
:101080000BB1012000E00020704701F40072B2F5BE
:10109000007F00D100BFCA430280704770B502468E
:1010A000002400230025002040F66A16B14200D13A
:1010B00000BFC1F3421501F01F03012606FA03F336
:1010C000012D13D19689334017E000000010014034
:1010D0000044004000480040004C004000500040E8
:1010E0000014014000780040007C0040022D02D135
:1010F000168A334001E0968A33400C12012606FA24
:1011000004F41688344013B10CB1012000E0002033
:1011100070BD10B50022002340F66A14A14200D130
:1011200000BF0A1201249440A3B2DC43048010BD26
:1011300001B581B0002000900198009002E0009875
:10114000401E009000980028F9D10CBD10B5012177
:101150004806FFF790FC00214FF00070FFF78BFC72
:1011600010BD01210160002141608160C160016109
:101170004FF48041416100218161C1614FF4006100
:101180000162002141628162C16201634163816346
:10119000C163402101642021416400218164C16454
:1011A000016541658165C165016680214166002157
:1011B0008166C166016741678167C1674FF08061E1
:1011C000C0F880104910C0F884100021C0F88810C1
:1011D0004FF40011C0F88C100021C0F89010C0F836
:1011E0009410C0F89810C0F89C10C0F8A0104FF0F0
:1011F0000071C0F8A4104912C0F8A8108901C0F805
:10120000AC104912C0F8B0100021C0F8B410C0F8FA
:10121000B8107047F8B505460E4617460024002062
:101220000090FE48046904F01C044FF4784000EA82
:10123000C52004434FF4F86000EA8610044344F0EC
:10124000020444F00104F5484761046100BF0098BE
:10125000401C0090F148046904F0010018B1F04905
:1012600000988842F3D3EE490098884204D1EDA05B
:1012700002F018F90020F8BDF5A002F013F90120E2
:10128000F9E7F8B505460E46002400200090E34833
:10129000046904F01C044FF4784000EAC5200443BC
:1012A0004FF4F86000EA8610044324F0020444F08E
:1012B0000104DA48046100BF0098401C0090D74840
:1012C000046904F0010018B1D54900988842F3D3AD
:1012D000D3490098884205D1E9A0009902F0E2F8CC
:1012E0000020F8BDCD48406980B2FAE72DE9F0430F
:1012F00087B004460F464FF00008002500200690F6
:10130000EB4E019001200090C448056925F01C05B2
:1013100002A8FFF774FA039EE648864205D3E64822
:10132000864202D245F008051AE0E348864205D31A
:10133000DF48864202D245F00C0511E0DC488642C7
:1013400003D3DE48864200D20AE0DC48864205D359
:10135000DB48864202D245F0040501E045F0100565
:10136000AE4805614FF4004200213846FFF752FFB6
:1013700028B900200090D3A002F094F8ABE0DE483A
:10138000FFF7D6FE206800287BD000213846FFF703
:1013900078FF81464A460021D8A002F083F8102148
:1013A0003846FFF76EFF81464A461021D3A002F06F
:1013B00079F800BF0198401C019001213846FFF7E1
:1013C00060FF00F0040018B9954901988842F1D3F4
:1013D00001213846FFF755FF81464A460121C7A043
:1013E00002F060F88E490198884208D1CB4802F09B
:1013F00059F8CB4802F056F8002000906BE000202E
:1014000001904FF4805200213846FFF703FF20B9C6
:10141000C44802F047F80020009000BF0198401C2B
:10142000019001213846FFF72CFF00F0200018B989
:101430007B4901988842F1D301213846FFF721FF0B
:1014400081464A460121ADA002F02CF8744901986A
:10145000884205D1B44802F025F8002000903AE017
:101460000020019010213846FFF70BFF804608F05E
:10147000040038B14FF400602062ACA002F012F812
:1014800005E014E000202062B2A002F00BF808F0A2
:10149000020028B100206061B8A002F003F819E052
:1014A0004FF480406061BEA001F0FCFF12E0206AB2
:1014B000C0F3CF006169C1F34F0140EA010200218E
:1014C0003846FFF7A7FE08B9002000906FF07F4074
:1014D000FFF72EFE00BF009820B94FF40060206295
:1014E000C00060614D480568B6480540D4E9010177
:1014F0000843E16808432169084361690843A16919
:101500000843E1690843216A0843616A0843A16A04
:101510000843E16A0843216B0843616B08430543B4
:101520003E48056005684FF6FF70FFF701FE3B4837
:101530000560D4E90E010843216C0843616C08433F
:10154000A16C0843E16C0843216D0843616D0843B9
:1015500032494860084645684FF6FF70FFF7E8FDDE
:101560002E4845602D49A06D8860E06DC860084632
:1015700085694FF641700540B4F86010606E40EA2E
:101580000140A16E0843E16E0843216F0843616F7B
:10159000084305432148856185694FF6FF70FFF7D1
:1015A000C7FD1E488561D4E91E0108431B49C86177
:1015B0000846C5694FF6FF70FFF7BAFD1748C561C9
:1015C0008148856981480540D4E920010843D4F861
:1015D00088100843D4F88C100843D4F890100843BE
:1015E000D4F894100843D4F898100843D4F89C1009
:1015F0000843D4F8A0100843054373488561856902
:101600004FF6FF70FFF794FD6F488561D4E929011B
:101610000843D4F8AC100843DAE000000080024030
:10162000FFFF04000D0A3D3D3D3D3D204554485F10
:101630005772697465504859526567697374657269
:10164000204554485F4552524F523D3D3D0D0A00E2
:101650000D0A3D3D3D3D3D204554485F577269743C
:1016600065504859526567697374657220455448DE
:101670005F535543434553533D3D3D0D0A00000024
:101680000D0A204554485F4552524F522045544858
:101690005F52656164504859526567697374657239
:1016A0002074696D656F75743D2025780D0A000002
:1016B00000879303002D3101C00E160200E1F505ED
:1016C00080D1F0080A0D203D3D3D3D3D3D3D3D3D75
:1016D0003D3D3D2050757420746865205048592068
:1016E000696E207265736574206D6F646520455264
:1016F000524F520D0A000000FFFF0F000A0D455423
:10170000485F5265616450485952656769737465F2
:10171000722025643A30782558000000483A0008C5
:1017200070390008FC390008B83900080A0D204556
:1017300054485F4D6F646520202020204554485F49
:101740004D6F64655F46756C6C4475706C65782090
:101750000A0D20000A0D204554485F4D6F64652036
:10176000202020204554485F4D6F64655F48616CC0
:10177000664475706C6578200A0D20000A0D2045BE
:1017800054485F53706565642020202020455448EC
:101790005F53706565645F31304D200A0D20000095
:1017A0000A0D204554485F53706565642020202051
:1017B000204554485F53706565645F3130304D207B
:1017C0000A0D20000F8120FF00900240233FDEF829
:1017D000D4F8B0100843D4F8B41040EA8100D4F82B
:1017E000B810084340F40000F8490860084605684E
:1017F0004FF6FF70FFF79CFCF4480560006840F06E
:101800008000F2490860084605684FF6FF70FFF750
:101810008FFCEE4805600098012806D1ECA001F08D
:1018200041FE012007B0BDE8F083F2A001F03AFECE
:101830000020F7E730B1E549896941F00201E34A48
:10184000916105E0E149896921F00201DF4A916176
:10185000704730B1DD49896941F40051DB4A91613B
:1018600005E0DA49896921F40051D84A916170474D
:1018700008B500200090D548806940F48010D34915
:1018800088610846806900904FF6FF70FFF750FCB2
:10189000CE490098886108BD38B504460020009004
:1018A00034B1DC48006840F00400DA49086005E023
:1018B000D848006820F00400D6490860D548006880
:1018C00000904FF6FF70FFF733FCD2490098086094
:1018D00038BD38B504460020009034B1CD480068CA
:1018E00040F00800CB49086005E0CA48006820F0D5
:1018F0000800C8490860C748006800904FF6FF70AC
:10190000FFF716FCC3490098086038BD10B50120E8
:10191000FFF7DFFF0120FFF7BFFFFFF7A9FF01205F
:10192000FFF797FF0120FFF785FF10BD10B50020DE
:10193000FFF78FFF0020FFF77DFF0020FFF7ACFFD0
:10194000FFF796FF0020FFF7C4FF10BD0020B1494C
:10195000896901F0010109B1012000E00020704710
:1019600008B500200090AB48806940F00100A9490B
:1019700088610846806900904FF6FF70FFF7D8FB3A
:10198000A4490098886108BD38B50446002000903D
:1019900034B1A048806940F001009E49886105E0AB
:1019A0009C48806920F001009A49886199488069C3
:1019B00000904FF6FF70FFF7BBFB964900988861D7
:1019C00038BD01460020934A926B0A400AB10120BB
:1019D00000E000207047014600208E4A926B0A40CA
:1019E0000AB1012000E00020704729B1894AD26B7A
:1019F0008243884BDA6304E0864AD26B0243854B0C
:101A0000DA63704710B50B794C7943EA0422814BB5
:101A100003441A64CB781B068C7843EA04434C7861
:101A200043EA04230C7843EA04027A4B03445A64E1
:101A300010BD0246774B1344186C030A4B710871B2
:101A4000744B1344586C030ECB70030C8B70030A59
:101A50004B700870704738B504460D460020009062
:101A600045B16C482044006C40F000406949214475
:101A7000086407E067482044006C20F00040654996
:101A80002144086463482044006C00904FF6FF70C6
:101A9000FFF74EFB5F4921440098086438BD38B514
:101AA00004460D4600200090082D08D059482044D7
:101AB000006C40F0804057492144086407E05548D5
:101AC0002044006C20F08040524921440864514871
:101AD0002044006C00904FF6FF70FFF729FB4D4942
:101AE00021440098086438BD38B504460D460020EE
:101AF000009048482044006C20F07C504549214427
:101B0000086444482044006C00904FF6FF70FFF7D3
:101B10000FFB40492144009808643E482044006C73
:101B200028433C49214408643A482044006C009012
:101B30004FF6FF70FFF7FCFA36492144009808641D
:101B400038BD1EB500210022009201920292324A55
:101B500012681268C2F30D42111F00912F4A1268D9
:101B6000126802922D4A12681268926801922A4AFB
:101B70001268D268284B1A609DE81C0080E81C009F
:101B80001EBD0FB5002101910291039100919BE0D0
:101B90000099491C009120490968096801F4007105
:101BA000F1B31D490968096801F48071C1BB1A4984
:101BB00009681A4A126811600121184A1268916076
:101BC00015490968C968144A11607DE00090024017
:101BD0003D3D3D3D3D3D4554485F496E6974202083
:101BE0004554485F53554343455353203D3D0D0AEB
:101BF000000000003D3D3D3D3D3D4554485F496E80
:101C0000697420204554485F4552524F52203D3D53
:101C10000D0A00000080024014000020180000207F
:101C2000FFE7F7490968096801F4807191B9F4493F
:101C30000968096801F4007161B9F24909688968A5
:101C4000491CF04A12689160ED490968C968EC4A7C
:101C5000116039E0EA490968EA4A12685160E949C5
:101C600009688968491CE74A12689160E549096872
:101C70008968012904D1E2490968E24A12681160C1
:101C8000DF4909680968C1F30D41091F0191DD4968
:101C900009688968012905D9DA49096809688968E4
:101CA000029103E0D649096889680291D54909681B
:101CB00009680391D2490968C968D14A116001A92C
:101CC0000EC980E80E000FBDCD490968096801F012
:101CD000004119B900990529FFF45AAF01A90EC9AD
:101CE00080E80E0000BFEEE770B502460023002535
:101CF0000024C5480068006800F0004008B10020DA
:101D000070BDC148016840F2F450824208DD92FB88
:101D1000F0F392FBF0F600FB162010B15B1C00E024
:101D20000123012B0CD1086840F040500860C2F339
:101D30000C004860086840F000400860C96826E070
:101D4000002422E0086820F0405008601CB90868B0
:101D500040F08050086040F2F4504860581EA042A5
:101D60000DD1086840F000500860581EC0EBC0104C
:101D700000EB4000A2EB8005C5F30C00486008684A
:101D800040F000400860C968641C9C42DAD39E4859
:101D900001609E48406900F0040020B104209B4E81
:101DA0007061002070600120AAE770B50C461346F0
:101DB0000021934D286000BF18E000EB41124FF066
:101DC0000045156044F2F4555560C1EBC11505EBB3
:101DD000450504EB850595605D1E8D4204D900EB39
:101DE00041152035D56000E0D060491C9942E4D30C
:101DF000864DE860864D834E356070BD8048006832
:101E0000006800F00040E8B97D480068006800F410
:101E10008070B8B17B4800688068401C79490968C7
:101E20008860784800688068012804D17448006898
:101E30007449096808607248006872490968486016
:101E4000012070476E480068006800F00040F0B95B
:101E50006B480068006800F40070C0B16848006812
:101E6000006800F4807090B96548006865490968A9
:101E700008600020634909684860012061490968D9
:101E800088605F480068C0685D4908601DE05C4884
:101E90000068006800F00040B8B959480068006860
:101EA00000F4007088B956480068006800F480703B
:101EB00058B9544800688068401C524909688860D5
:101EC0004F480068C0684E4908600020B9E730B547
:101ED0000C46134600214C4D286000BF15E000EB76
:101EE00041124FF480151560C1EBC11505EB450596
:101EF00004EB850595605D1E8D4204D900EB41150C
:101F00002035D56000E0D060491C9942E7D33F4DB1
:101F1000286130BD0246002013680B400BB1012040
:101F200000E00020704701460868C0F3C300704716
:101F3000016841F000410160704721B1026842F040
:101F40008042026003E0026822F080420260704733
:101F500002680A430260704702680A4302607047E1
:101F600021B1026822F00062026003E0026842F0E0
:101F700000620260704721B1026842F48012026080
:101F800003E0026822F480120260704721B1026807
:101F900022F08062026003E0026842F08062026028
:101FA000704710B541EA024443682343436010BDC3
:101FB0000246002013680B400BB1012000E0002016
:101FC00070470246002013690B400BB1012000E06E
:101FD00000207047016841F00041016070470146F0
:101FE0000868C0F30D40704721B1426822F00042FA
:101FF000426003E0426842F00042426070470000E5
:102000001400002018000020100000200090024062
:102010002C3D0020024619B15068C0F30C407047B7
:102020009088C0F30C00FAE700B502460023106860
:1020300000F0004058B9106800F4004038B910684A
:1020400000F4807018B11046FFF7C9FF0346184628
:1020500000BD38B504460020009034B1F84800684F
:1020600040F08000F649086005E0F548006820F07F
:102070008000F3490860F248006800904FF6FF7056
:10208000FFF756F8EE490098086038BDEC48006844
:1020900040F00100EA490860704710B50024E848A4
:1020A000006800F0010008B1012400E0002421468E
:1020B000E4A001F0F7F9204610BD01460020E04AF7
:1020C00052690A400AB1012000E000207047DC4953
:1020D0004861704729B1DA4AD2690243D84BDA61C4
:1020E00004E0D74AD2698243D54BDA617047014692
:1020F0000020D34A52690A400AB1012000E00020C2
:102100007047CF4948617047CD48406900F00100F1
:102110007047CB48406900F0400070470020C84934
:10212000896901F4801109B1012000E000207047A5
:1021300001460020C24A126A0A400AB1012000E0AA
:1021400000207047BE48006AC0F34A407047BC4850
:10215000006A80B27047BA48806C7047B848C06C5B
:102160007047B748006D7047B548406D7047002014
:10217000B349486070470020B14988607047B04952
:102180004862704770B506460D460024002130466F
:10219000FFF777F8044615B144F4804402E04BF6AB
:1021A000FF700440224600213046FFF733F808B1A3
:1021B000012070BD0020FCE708B500200090AB486E
:1021C000C06A40F00040A949C8620846C06A009051
:1021D0004FF6FF70FEF7ACFFA4490098C86208BD37
:1021E00038B5054600200090002400BF0EE055F8E9
:1021F00024009E4988620846806A00904FF6FF706E
:10220000FEF796FF994900988862641C082CEED36B
:1022100038BD38B504460020009034B19348C06AF8
:1022200040F400709149C86205E09048C06A20F40B
:1022300000708E49C8628D48C06A00904FF6FF70EA
:10224000FEF776FF89490098C86238BD0146002034
:10225000864AD26A0A400AB1012000E00020704795
:1022600038B504460020009034B18048C06A40F080
:1022700004007E49C86205E07C48C06A20F0040082
:102280007A49C8627948C06A00904FF6FF70FEF73D
:102290004FFF76490098C86238BD38B50446002023
:1022A000009034B17148C06A40F002006F49C862C2
:1022B00005E06E48C06A20F002006C49C8626B48B5
:1022C000C06A00904FF6FF70FEF732FF6749009832
:1022D000C86238BD38B504460020009034B1634868
:1022E000C06A40F001006149C86205E05F48C06A09
:1022F00020F001005D49C8625C48C06A00904FF65A
:10230000FF70FEF715FF59490098C86238BD58485C
:10231000006840F030005549C1F80001704754484A
:10232000006820F020005149C1F800010846D0F8AB
:10233000000140F01000C1F80001704738B14C496D
:10234000096841F00801494AC2F8001106E048490D
:10235000096821F00801454AC2F80011704738B1F8
:102360004349096841F00401404AC2F8001106E0FF
:102370003F49096821F004013C4AC2F80011704746
:1023800038B13B49096821F00201384AC2F800110E
:1023900006E03749096841F00201344AC2F80011E9
:1023A00070473348006840F001003049C1F800012F
:1023B000704700F0805292B120F0805039B12C4A21
:1023C0000C3212688243294BC3F80C2117E0284ACB
:1023D0000C3212680243254BC3F80C210FE039B1CF
:1023E000234A103212688243204BC3F8102106E0C2
:1023F0001F4A1032126802431C4BC3F81021704769
:102400000146002001F080526AB1194A121D12687B
:102410000A4032B1164A0C3212680A400AB9012049
:1024200029E0002027E0124A083212680A4032B13F
:102430000F4A0C3212680A400AB901201BE019E069
:10244000009002403D3D3D204554485F4765745330
:102450006F667477617265526573657453746174E5
:102460007573203A2025640D0A00000000800240A8
:10247000008102400020704701460148085870471B
:10248000008002400A460021DBE0D30B002B75D010
:10249000102971D2DFE801F0080F161D242B323904
:1024A00040464C52585E646A038823F4004303F5A7
:1024B0000043038060E0038823F4804303F58043F6
:1024C000038059E0038823F4005303F5005303808D
:1024D00052E0038823F4805303F5805303804BE0DC
:1024E000038823F4006303F50063038044E003885A
:1024F00023F4806303F5806303803DE0038823F4C5
:10250000007303F50073038036E0038823F48073BF
:1025100003F5807303802FE0038823F0800380336A
:10252000038029E0038823F040034033038023E045
:10253000038823F02003203303801DE0038823F069
:1025400010031033038017E0038823F008030833D7
:10255000038011E0038823F004031B1D03800BE0BC
:10256000038823F002039B1C038005E0038823F00B
:1025700001035B1C038000BF5DE0FFE7102959D217
:10258000DFE801F0080D12171C21262B30353A3FE9
:1025900044494E53038823F4004303804AE00388F0
:1025A00023F48043038045E0038823F40053038031
:1025B00040E0038823F4805303803BE0038823F446
:1025C0000063038036E0038823F48063038031E0F6
:1025D000038823F4007303802CE0038823F48073C2
:1025E000038027E0038823F08003038022E0038830
:1025F00023F0400303801DE0038823F020030380C1
:1026000018E0038823F01003038013E0038823F00D
:10261000080303800EE0038823F00403038009E02D
:10262000038823F00203038004E0038823F00103FE
:10263000038000BF00BF4FF6FF7303EA42024B1C4A
:10264000D9B21029FFF621AF7047F0B51C4600261D
:1026500000250123C1F11007974202DAC1F11007EA
:10266000FAB20E46002E0CDD05E0EF18BDB24FF6B3
:10267000FF7707EA43033700A6F1010C0CF0FF06D1
:10268000F3D1D0F814C04FF6FF7797408F402F4317
:102690000CEA070CC0F814C0476904FA01FC47EAC9
:1026A0000C074761F0BD10B56FF00400FDF736FE72
:1026B0001520394908700846007800EB4001C1EB4D
:1026C000C0104FF6FF7101EAC0003449088010BD08
:1026D0000146314A12784A434FF0E0235A61002202
:1026E0009A611A46126942F001021A6100BF4FF066
:1026F000E022106900F001021AB100F48032002AD1
:10270000F5D04FF0E022126922F001024FF0E023F1
:102710001A6100229A6170470146204A12884A4392
:102720004FF0E0235A6100229A611A46126942F082
:1027300001021A6100BF4FF0E022106900F00102AF
:102740001AB100F48032002AF5D04FF0E02212696D
:1027500022F001024FF0E0231A6100229A617047D3
:1027600070B504464FF4077094FBF0F0C6B24FF416
:10277000077094FBF0F100FB114085B205E04FF4C7
:102780000770FFF7C9FF701EC6B2002EF7D115B152
:102790002846FFF7C1FF70BD200000202200002066
:1027A0008E4800680A308D490860704770B505464C
:1027B00000211020FEF765FD04462346002210216B
:1027C00087A000F06FFE00211120FEF75AFD04469D
:1027D00023460022112182A000F064FE204670BD35
:1027E00070B504460D4629462046FEF74AFD0646CA
:1027F00033462A46214684A000F054FE304670BD80
:102800002DE9F04104460D46164689A000F04AFE27
:10281000324629462046FEF7FDFC87B23846BDE821
:10282000F08170B504460D4689A000F03BFE2946B4
:102830002046FEF726FD064633462A4621468EA050
:1028400000F030FE304670BD2DE9F04104460D46E3
:10285000164693A000F026FE324629462046FFF792
:10286000CFFF074633462A46214697A000F01AFEBE
:102870003846BDE8F0812DE9F04704460D460027B3
:102880004FF4184040EA4410284386B2314697A0DE
:1028900000F008FE324618211C20FFF7B1FF8146E8
:1028A00007E008F101001FFA80F841469BA000F004
:1028B000F9FD18211C20FEF7E4FC00F4004000287C
:1028C000EFD119211C20FEF7DCFC07463B461922FC
:1028D0001C2199A000F0E6FD3846BDE8F0872DE9FF
:1028E000F04104460E4615464FF4004040EA4410BD
:1028F00040F48060304380B240F48057394696A05F
:1029000000F0D0FD3A4618212046FFF779FF00F08D
:10291000FF08B8F1000F06D02A4619212046FFF71C
:102920006FFF00F0FF082B461922214696A000F009
:10293000B9FD2846BDE8F08110B500240020FFF75E
:1029400035FF1120FFF732FF00F4405018B197A077
:1029500000F0A8FD02E09AA000F0A4FD1120FFF70E
:1029600025FF00F4204018B19BA000F09BFD02E081
:10297000A0A000F097FD10BD00BF4FF4A060FDF7D0
:102980007BFCFFF790FE4FF4E13000F07CFA002072
:1029900000F047FB012000F044FB00F02CFD00217B
:1029A0001020FFF71DFF00211120FFF719FF002164
:1029B0001220FFF715FF00211320FFF711FF002160
:1029C0001420FFF70DFF00211520FFF709FF00215C
:1029D0001620FFF705FF00BFFEE7000024000020DF
:1029E0000A0D4554485F5265616450485952656705
:1029F000697374657228253032782C253032782935
:102A00003A307825580000000A0D4554485F526559
:102A1000616450485952656769737465722825303E
:102A200032782C25303278293A307825580A00003F
:102A30000A0D3D3D3D3D3D3D3D57726974655F4525
:102A400054485F5048593D3D3D3D3D3D3D0A0000E5
:102A50000D0A404040404040404040526561645F44
:102A6000474C4F42414C5F5245472063616C6C6557
:102A700064210D0A000000000A0D31312052656109
:102A8000645F474C4F42414C5F52454728253032E6
:102A9000782C25303278293A30782558000000000B
:102AA0000D0A4040404040404040405772697465C4
:102AB0005F474C4F42414C5F5245472063616C6C0D
:102AC0006564210D0A0000000A57726974655F474A
:102AD0004C4F42414C5F52454728253032782C25D7
:102AE000303278293A307825580000000D0A20400D
:102AF0004040404040404040526561645F5048590A
:102B00005F534D492063616C6C65642120736D696E
:102B10005265673D2025780D0A0000000D0A203D12
:102B20003D3D3D20627573792074696D65203A20C2
:102B30002564200D0A0000000A0D20526561645FC3
:102B40005048595F534D4928253032782C25303272
:102B500078293A30782558000D0A204040404040FE
:102B60004040404057726974655F5048595F534D0B
:102B7000492063616C6C65642120736D69526567DF
:102B80003D25780D0A0000000A0D20577269746512
:102B90005F5048595F534D4928253032782C2530F5
:102BA0003278293A30782558000000000A0D3D3D62
:102BB0003E4554485F53706565645F31304D210078
:102BC0000A0D3D3D3E4554485F53706565645F3175
:102BD00030304D21000000000A0D3D3D3E45544877
:102BE0005F4D6F64655F46756C6C4475706C65789D
:102BF000210000000A0D3D3D3E4554485F4D6F6485
:102C0000655F48616C664475706C657821000000F2
:102C1000704700BFFEE700BFFEE700BFFEE700BF52
:102C2000FEE770477047704710B5FFF7B9FD10BD5C
:102C30000CB50020019000907648006840F4803088
:102C40007449086000BF7348006800F400300090C9
:102C50000198401C0190009818B90198B0F5A04F58
:102C6000F1D16C48006800F4003010B101200090F0
:102C700001E0002000900098012846D165484030CE
:102C8000006840F080506349403108606248006845
:102C900040F44040604908605E48083000685D4983
:102CA000083108600846006840F4004008600846A3
:102CB000006840F4A05008605848091F0860081FC9
:102CC000006840F08070091F086000BF514800682C
:102CD00000F000700028F9D040F2057050490860FB
:102CE0004C480830006820F003004A490831086069
:102CF0000846006840F00200086000BF4548083000
:102D0000006800F00C000828F8D10CBD10B545484B
:102D1000006840F47000434908603E48006840F095
:102D200001003C49086000203A49083108603948F0
:102D300000683D490840374908603C48091D086063
:102D4000081F006820F48020091F08600020314916
:102D50000C310860FFF76CFF4FF00060314980399B
:102D6000086010BD70B5002000220223002402215B
:102D7000284D08352D6805F00C0020B1042806D038
:102D8000082834D107E02A4D2A4E356033E02A4D19
:102D9000284E35602FE01F4D2D1D2D68C5F3805442
:102DA0001C4D2D1D2D6805F03F0154B1224DB5FB82
:102DB000F1F5184E361D3668C6F3881605FB06F287
:102DC00009E01B4DB5FBF1F5124E361D3668C6F312
:102DD000881605FB06F20F4D2D1D2D68C5F3014524
:102DE0006D1C6B00B2FBF3F5124E356003E0104D25
:102DF000104E356000BF00BF064D08352D68C5F385
:102E000003150E4E705D0B4D2D68C540094E3560A3
:102E100070BD0000003802400070004019544007A7
:102E2000003C024088ED00E0FFFFF6FE1030002479
:102E30000024F4002800002040787D012C000020B0
:102E4000014600BF704700BF654A128802F0400289
:102E5000002AF9D0C2B2624B1B1D1A80704770B5B0
:102E60000546002400BF20215D48FEF701F9002837
:102E7000F9D05B48001D0088C4B25A49204600F0D2
:102E800083FC204670BD10B588B0044601210420A3
:102E9000FDF786FD01218804FDF7CBFD07220A21FD
:102EA0005148FDF76AFB07220B214F48FDF765FBF0
:102EB0004FF44060069002208DF81C0003208DF82E
:102EC0001D0000208DF81E0001208DF81F0006A9AE
:102ED0004548FDF7C7FA02940020ADF80C00ADF8A4
:102EE0000E00ADF81000ADF814000C20ADF8120083
:102EF00002A93B48FDF759FF01213948FDF7DDFFE5
:102F000040213748FEF7C1F8012240F225513448EC
:102F1000FEF789F827208DF8040003208DF80500BE
:102F20008DF8060001208DF8070001A8FDF7A9F92A
:102F300008B010BD00BF2A49098801F040010029EE
:102F4000F9D02749091D0880704710B503460C4683
:102F5000002200BF985CFFF7EDFF501C82B2A24236
:102F6000F8DB10BD10B540F225511D48FEF796F86C
:102F700010B31B48FDF7D0FFC4B21C48008800F412
:102F80000040C8B91948008800F4804060B10A2C9C
:102F900003D000201549088020E01448008840F440
:102FA00000401249088019E00D2C06D10F48008816
:102FB00040F480400D49088010E00C480088C0F3C0
:102FC0000D000B490C5409480088401C0749088033
:102FD00008460088C72801DD0020088010BD0000D9
:102FE000004800403C00002000080240440000204F
:102FF000383D002070B503460C4603E014F8015B31
:1030000003F8015B1500A2F10102F7D170BD30B5E4
:10301000034601E003F8011B1400A2F10102F9D1FB
:1030200030BD10B504467C4951F824104A007B4954
:1030300051F824000021FFF7EAFF794951F82420D4
:103040007649083951F824000021FFF7E0FF0121FB
:1030500072480830015510BD10B50146002300220A
:1030600007E06E4850F8210030F8120000B15B1CF8
:10307000521C694850F821009042F2D8642058430D
:10308000654C54F82140B0FBF4F0C0B210BD2DE9FE
:10309000F04704460F460025A94660480830005D09
:1030A00020B95E4810380168204688471FB94FF0A4
:1030B000FF30BDE8F0875B4850F82400B7FBF0F024
:1030C00086B2584850F82400B7FBF0F100FB1170AD
:1030D00008B1701C86B2504850F82400451E22E00A
:1030E0004E4850F8240030F8150020B909F10100CD
:1030F0001FFA80F901E04FF00009B14512D14FF0FD
:10310000000808E0454850F8240005EB080120F8C5
:10311000116008F10108B045F4D3424850F824008A
:103120006843C6E76D1E002DDADA4FF0FF30C0E7C6
:103130002DE9F04104460E4638480830005D38B9A4
:10314000364810380168204688470120BDE8F081E4
:10315000334850F82400B04217D9324850F82400C0
:10316000B6FBF0F12D4850F8240030F8112000256E
:1031700007E00023294850F824004F1920F81730A1
:103180006D1C9542F5DB0020E0E70220DEE770B51C
:1031900005460C4604B970BD2048083850F8250093
:1031A000261A31462846FFF7C3FF00BFF3E770B584
:1031B00004460E4631462046FFF769FF0546681C67
:1031C00008B9002070BD1548083850F8240028447C
:1031D000F8E72DE9F04104460F46164631462046F1
:1031E000FFF755FF0546681C10B90020BDE8F081C7
:1031F0000A49083951F82410481932463946FFF770
:10320000F9FE39462046FFF7C2FF0448083850F857
:1032100024002844EAE700001C3900085800002078
:103220002C3900082439000810B5002807DA0A07ED
:10323000140E854A00F00F031B1FD45403E00A0745
:10324000130E824A135410BD00B5AFB001214FF0E8
:103250006060FDF7A5FBFDF779FFFEF717FF00BFE4
:10326000FEF71BFF0128FBD06846FDF77AFF01201F
:10327000009080030590C0100890002007904FF444
:1032800000700A9000200B900E90119013901490F3
:10329000159020904FF00070219000112390002095
:1032A0002590269004202890C005299040122A904D
:1032B00080012B9040122C9040002E9000216846F7
:1032C000FEF714F818B162A000F0ECF802E067A075
:1032D00000F0E8F801216D48FEF7FCFE2FB000BDBC
:1032E00008B54FF44070FCF7C7FF3D208DF8000093
:1032F00000208DF801008DF8020001208DF80300F8
:103300006846FCF7BEFF08BD1CB501211720FDF77C
:1033100047FB01218803FDF79DFB0020FDF7C6FC5C
:1033200003208DF8050002208DF8040000208DF8A0
:1033300006008DF807008620009069465448FDF786
:1033400091F80B2201215248FDF717F90B220221B7
:103350004F48FDF712F90B2207214D48FDF70DF9F3
:1033600043F60300009069464A48FDF77BF80B22BC
:1033700000214848FDF701F90B2201214548FDF7DE
:10338000FCF80B2211464348FDF7F7F80B220C21FD
:103390004048FDF7F2F80B220D213E48FDF7EDF80D
:1033A0003E20009069463C48FDF75CF80B22012165
:1033B0003948FDF7E2F80B2202213748FDF7DDF826
:1033C0000B2203213448FDF7D8F80B2204213248A0
:1033D000FDF7D3F80B2205212F48FDF7CEF8042086
:1033E000009069462D48FDF73DF80B2202212B483D
:1033F000FDF7C3F81CBD1FB5FFF786FFFFF770FF91
:10340000FFF722FF6846FDF7FAF964210098B0FB48
:10341000F1F4601EB0F1807F00D30FE0601E4FF02A
:10342000E02148610F214FF0FF30FFF7FDFE002043
:103430004FF0E02188610720086100BF0121881E4C
:10344000FFF7F2FE1FBD000018ED00E000E400E011
:103450003D3D3D3D3D3D50485920696E6974206FAA
:103460006B213D3D3D3D200D0A0000003D3D3D3DB1
:103470003D3D50485920696E6974204552524F5263
:10348000213D3D3D3D200D0A0000000040000100AF
:103490000000024000040240000802400010024008
:1034A000704700000FB4044910B503AA029800F059
:1034B000CBF910BC5DF814FB3C00002070B504464D
:1034C00085690068C10601D5302600E02026C007C6
:1034D00007D070BDD4E9012130469047206A401CD6
:1034E00020626D1EF6D570BD70B504468569007802
:1034F000C00707D170BDD4E9012120209047206A80
:10350000401C20626D1EF6D570BD00002DE9F04113
:103510000646002410687529314616A510D0AFF371
:103520000080002802DA404213A507E031688A07CC
:1035300001D512A502E0490704D511A5012401E037
:10354000AFF3008000210A2206F1240709E0B0FB56
:10355000F2FCB0FBF2F302FB1C003030785418464A
:10356000491C0028F3D123462A463046BDE8F041E5
:1035700000F010B9000000002D0000002B0000003A
:1035800020000000F0B40D460188090502D51B4C4F
:103590007C4402E0194C7C440E34002100F12403E9
:1035A00005E002F00F061209A65D5E54491C002AD0
:1035B000F7D102780023120704D5702D06D009B187
:1035C000022311342246F0BC00F0E4B80123103489
:1035D000F8E770B504460D4621461068AFF3008049
:1035E000024629462046BDE87040CBE703681268D2
:1035F00043F0200303600823C361C3E7A003000076
:103600002DE9F05F894604464FF0000ADFF874B1F7
:10361000FB44C0F820A02046E1688847002874D009
:10362000252806D0D4E901219047206A401C206259
:10363000F1E700265F462046E168884720280546D6
:1036400007DB312D05D2781910F8200C08B106439C
:10365000F1E7B00701D526F00406C4F81CA0002746
:10366000C4F818A02A2D09D0284600F04BF938B329
:1036700004EB8708303DC8F8185019E059F8041BCE
:10368000204604EB87029161E1688847012F0546D7
:1036900018D1E069002820DA26F020061DE0D8F8CD
:1036A000180000EB800005EB40003038C8F8180027
:1036B0002046E1688847054600F024F90028EED14D
:1036C000012F0AD02E2D08D12046E16888477F1CA3
:1036D0000546022F46F02006C4DBA069002803DA65
:1036E000404246F00106A061F00701D026F0100626
:1036F0006C2D0BD0682D09D04C2D39D06A2D35D0CA
:10370000742D35D07A2D33D016E038E0E1682F469D
:1037100020468847B842054609D16C2F26D04FF481
:103720008060E168064320468847054604E06C2F28
:103730001AD04FF4807006430DB3A5F1410019284B
:1037400002D8203546F400664A46294620462660BF
:103750004E46FCF753FD80B101280BD0F61D26F034
:10376000070000F1080956E74020E4E78020D8E789
:103770000020D6E706F104094DE7284652E7206A03
:10378000BDE8F09F48030000FFF75DBB704770473E
:10379000704770472DE9F0470D469946924604461A
:1037A00000F124080168880604D5E06921F01001C1
:1037B000216000E00120A84201DD471B00E0002756
:1037C000A1697A1902EB0900081AA0612078C006E5
:1037D00002D42046FFF772FE002608E0D4E901215A
:1037E0001AF806009047206A401C761C20624E455D
:1037F000F4DB2078C0060AD52046FFF75FFE06E01E
:10380000D4E9012130209047206A401C2062381EF4
:10381000A7F10107F4DC07E0D4E9012118F805005D
:103820009047206A401C2062281EA5F10105F3DCA8
:103830002046FFF759FE2078000602D50220BDE899
:10384000F0870120FBE70000074B70B50D467B4475
:1038500000F011F80446284600F020F810B14FF0AF
:10386000FF3070BD204670BDF5F5FFFF01694A1CB1
:1038700002610878704700B58FB0CDE901310021B1
:10388000059105497944CDE9031011466846FFF7D3
:10389000B7FE0FB000BD0000E5FFFFFF007B00F0AA
:1038A00080007047754600F029F8AE46050069466D
:1038B000534620F00700854618B020B5FCF7CAFC37
:1038C000BDE820404FF000064FF000074FF0000821
:1038D0004FF0000B21F00701AC46ACE8C009ACE8A2
:1038E000C009ACE8C009ACE8C0098D467047044681
:1038F000AFF300802046FCF798FC000000487047BA
:1039000000E8002030380A2801D20120704700204A
:1039100070474FF04070E1EE100A7047000500005C
:1039200000180000200000002000000000A000009F
:1039300000000300303132333435363738394142F4
:103940004344454640305800303132333435363701
:1039500038396162636465664030780004000008AD
:103960000000000000000002000100001000000044
:103970000A0D2023CDF8BFDAC1ACBDD3CAA7B0DC95
:103980002C20C7EBBCECB2E9CDF8CFDFC1ACBDD386
:10399000CAC7B7F1D5FDB3A32120C1ACBDD3BAC30B
:1039A000CDF8CFDFBAF3C7EBB8B4CEBBCFB5CDB34C
:1039B000210A0D20000000000A0D204554485F49EF
:1039C0006E6974205048595F4175746F4E65676F1A
:1039D0005F436F6D706C65746520202020287469CA
:1039E0006D656F7574203D3D205048595F524541CB
:1039F000445F544F290A0D20000000000A0D2045A5
:103A000054485F496E697420205048595F4175746D
:103A10006F4E65676F74696174696F6E2020205204
:103A2000657475726E204552524F5220696E206344
:103A3000617365206F662077726974652074696DA3
:103A4000656F75740A0D20000A0D20234572726F90
:103A5000723A204554485F496E6974205048595F56
:103A60004C696E6B65645F537461747573202020BC
:103A7000202874696D656F7574203D3D205048594C
:103A80005F524541445F544F29200000AC3A000882
:103A90000000002064000000C4010008103B000882
:103AA00064000020FCED0000E001000800000000C0
:103AB00001020304010203040607080900000000D4
:103AC00000000000000000000000000000000000F6
:103AD00000000000007A030A00000000000000005F
:103AE00001020304060708090000000000000000AE
:103AF000000000002330000859300008003E00207C
:103B00000000006800DE00200000036800000000E4
:040000050800018965
:00000001FF
