:020000040800F2
:10000000404401207D020008616400086364000828
:10001000676400086B6400086F640008000000005B
:1000200000000000000000000000000073640008F1
:100030007564000800000000776400087964000817
:10004000970200089702000897020008970200082C
:10005000970200089702000897020008970200081C
:10006000970200089702000897020008970200080C
:1000700097020008970200089702000897020008FC
:1000800097020008970200089702000897020008EC
:1000900097020008970200089702000897020008DC
:1000A00097020008970200089702000897020008CC
:1000B0009702000875ED01089702000897020008F2
:1000C00097020008970200089702000897020008AC
:1000D000970200089702000897020008B16700081D
:1000E000970200089702000897020008970200088C
:1000F000970200089702000897020008970200087C
:10010000970200089702000897020008970200086B
:10011000970200089702000897020008970200085B
:10012000970200089702000897020008970200084B
:100130009702000851EA0108970200089702000898
:10014000970200089702000897020008970200082B
:10015000970200089702000897020008970200081B
:10016000970200089702000897020008970200080B
:1001700097020008970200089702000897020008FB
:10018000970200089702000800F002F800F067F8F4
:100190000AA090E8000C82448344AAF10107DA45E2
:1001A00001D100F05CF8AFF2090EBAE80F0013F0CD
:1001B000010F18BFFB1A43F00103184754F4010064
:1001C00074F401000A444FF0000C10F8013B13F0E6
:1001D000070408BF10F8014B1D1108BF10F8015BA0
:1001E000641E05D010F8016B641E01F8016BF9D193
:1001F00013F0080F1EBF10F8014BAD1C0C1B09D1EA
:100200006D1E58BF01F801CBFAD505E014F8016B5B
:1002100001F8016B6D1EF9D59142D6D370470000ED
:100220000023002400250026103A28BF78C1FBD8FF
:10023000520728BF30C148BF0B60704764291EF0C9
:100240002F8678291EF0688673291FF02A800020E7
:1002500070471FB51FF070F81FBD10B510BD1FF01F
:100260003BF81146FFF7F5FF06F03BF81FF059F891
:1002700003B4FFF7F2FF03BC06F008FA0948804711
:1002800009480047FEE7FEE7FEE7FEE7FEE7FEE778
:10029000FEE7FEE7FEE7FEE704480549054A064B90
:1002A000704700005965000889010008403E0120A0
:1002B0004044012040400120404001203249014398
:1002C000324A1160704770B5002100230F22C478B4
:1002D0001CB32E4C246804F4E064C4F5E064C4F359
:1002E0000721C1F10404E3B20A4144789C40E1B221
:1002F0008478144021430C07210E254C0578615564
:10030000047804F01F050124AC4005786D11AD00A0
:1003100005F1E025C5F8004109E0047804F01F0567
:100320000124AC401B4D0678761145F8264070BD7F
:10033000194A0A400243154B1B1F1A60704739B116
:10034000124A121D12680243104B1B1D1A6006E070
:100350000E4A121D126882430C4B1B1D1A60704717
:10036000042808D14FF0E021096941F004014FF061
:10037000E022116107E04FF0E021096921F004015A
:100380004FF0E022116170470000FA050CED00E02B
:1003900000E400E080E100E080FFFF1F10B50446AC
:1003A0009848844208D10121084600F086FB0021CC
:1003B000012000F082FB76E09348844208D10121BD
:1003C000022000F07AFB0021022000F076FB6AE0B8
:1003D0008E48844208D10121042000F06EFB0021E8
:1003E000042000F06AFB5EE08948844208D10121C4
:1003F000082000F062FB0021082000F05EFB52E0C4
:100400008448844208D10121102000F056FB0021CD
:10041000102000F052FB46E07F48844208D10121C1
:10042000202000F04AFB0021202000F046FB3AE0AB
:100430007A48844208D10121402000F03EFB00218F
:10044000402000F03AFB2EE07548844208D101219B
:10045000802000F032FB0021802000F02EFB22E003
:100460007048844208D10121801500F026FB00214C
:10047000A01500F022FB16E06B48844208D1012150
:10048000401500F01AFB0021601500F016FB0AE091
:100490006648844207D10121001500F00EFB0021BF
:1004A000201500F00AFB10BDF0B50A46002100231C
:1004B000002400BF3DE0012505FA01F3156805EAB7
:1004C00003049C4234D105684F000326BE40B54367
:1004D000056015794E00B54006683543056015790D
:1004E000012D02D01579022D16D185684F00032603
:1004F000BE40B543856055794E00B54086683543AA
:100500008560456801268E40B5434560456896790B
:100510008E40B6B235434560C5684F000326BE40E5
:10052000B543C560D5794E00B540C6683543C56052
:10053000491C1029BFD3F0BD4FF6FF7101600021A7
:10054000017141718171C171704708B54FF48032FA
:100550000092009A0A430092009AC261C161009A17
:10056000C261C2690092C269009208BD02460020C1
:1005700013690B400BB1012000E0002070470146D9
:10058000086980B270470246002053690B400BB1E6
:10059000012000E0002070470146486980B27047A2
:1005A00001837047418370470AB1018300E04183B2
:1005B00070474161704742694A4042617047F0B5F7
:1005C000002300244D07ED0E02FA05F3CE1000F1D2
:1005D000200555F826504E07F70E0F26BE40B543AE
:1005E000CF1000F1200646F82750CE1000F120056C
:1005F00055F8265045EA0304CE1000F1200545F8D1
:100600002640F0BD00000240000402400008024005
:10061000000C02400010024000140240001802408A
:10062000001C02400020024000240240002802403A
:10063000F948006840F00100F74908600020F649D9
:1006400008310860F4480068F4490840F24908603D
:10065000F348091D0860F348EF4984310860F04809
:100660001038091D0860EC48006820F48020EA4931
:1006700008600020E8490C310860E7498C310860C7
:1006800070470021E44A921C1170114608707047AF
:1006900010B501460022002300204A11012A02D190
:1006A000DD4C236808E0022A03D1DB4C7034236858
:1006B00002E0D94C7434236801F01F0201249440F5
:1006C0001C400CB1012000E0002010BD38B5002016
:1006D00000900024002500BF3120FFF7D9FF054618
:1006E0000098401C00900098B0F5A04F01D0002D5C
:1006F000F2D03120FFF7CCFF08B1012400E0002444
:10070000204638BD01460020C34A106820F0F8009A
:1007100040EAC10010607047C3490860704700217B
:10072000BD4A703211701170012802D004280AD11C
:1007300004E00121B84A7032117005E00521B64A83
:100740007032117000E000BF00BF7047B749086009
:10075000704770B5049C41EA82150126C6EB53062A
:1007600045EA0645054345EA0465AB4E361D35604E
:1007700070BDAD4908667047820142EA0172A64B1E
:1007800084331A607047A8498866704710B58301A2
:1007900043EA016343EA02739F4C8834236010BD2F
:1007A000A14908677047A049C86470470246002005
:1007B000994B0833186820F0EC6042EA01031843B3
:1007C000954B08331860704702460020924B08335F
:1007D000186820F0784042EA010318438E4B083332
:1007E00018607047014600208B4A0832106820F0DC
:1007F000030008431060704787480830006800F025
:100800000C00704701460020834A0832106820F02F
:10081000F000084310607047014600207E4A08320D
:10082000106820F4E0500843106070470146002033
:10083000794A0832106820F4604040EAC100106034
:100840007047F0B500210022002402250026022373
:10085000714F08373F6807F00C0121B1042905D01A
:10086000082937D105E0724F076036E0714F076005
:1008700033E0694F3F1D3F68C7F38056664F3F1D09
:100880003F6807F03F036EB16A4FB7FBF3F7DFF83D
:1008900088C10CF1040CDCF800C0CCF3881C07FB09
:1008A0000CF40CE0624FB7FBF3F7DFF86CC10CF10E
:1008B000040CDCF800C0CCF3881C07FB0CF4564F8A
:1008C0003F1D3F68C7F301477F1C7D00B4FBF5F770
:1008D000076002E0564F076000BF00BF4E4F083769
:1008E0003F6807F0F0010909534F7A5C0768D74069
:1008F0004760494F08373F6807F4E051890A4E4F77
:100900007A5C4768D7408760434F08373F6807F4F1
:100910006041490B484F7A5C4768D740C760F0BDDB
:10092000002100F44072B2F5407F0AD13A4A083201
:10093000116821F4F811414A02401143364A083245
:100940001160354A70321268C0F30B031A43324B00
:1009500070331A607047354944390860704733492D
:1009600040390860704736490860704701460020EA
:10097000294A8C32106820F01F004A1E1043264A74
:100980008C321060704701460020234A8C32106878
:1009900020F4F8504A1E40EA02201F4A8C321060B0
:1009A0007047014600201C4A8C32106820F4401029
:1009B00008431060704701460020174A8C321068C7
:1009C00020F4400008431060704701460020124A9E
:1009D0008C32106820F44030084310607047194989
:1009E0000860704739B10C4A3032126802430A4B32
:1009F00030331A6006E0084A303212688243064BF0
:100A000030331A607047F9B1034A34321268024336
:100A1000014B34331A601CE000380240FFFFF6EA55
:100A2000103000240030002000004742800E474272
:100A30000024F40040787D0100000020FFFCFF0F3F
:100A40005C014742E01147428F4A126882438E4B55
:100A50001A60704739B18C4A121D126802438A4BE2
:100A60001B1D1A6006E0884A121D12688243864BDD
:100A70001B1D1A60704739B1834A0C321268024359
:100A8000814B0C331A6006E07F4A0C3212688243B5
:100A90007D4B0C331A60704739B17B4A10321268B3
:100AA0000243794B10331A6006E0774A103212681D
:100AB0008243754B10331A60704739B1724A243A39
:100AC00012680243704B243B1A6006E06E4A243AD7
:100AD000126882436C4B243B1A60704739B16A4AF2
:100AE000203A12680243684B203B1A6006E0664ACF
:100AF000203A12688243644B203B1A60704739B138
:100B0000614A1C3A126802435F4B1C3B1A6006E0C4
:100B10005D4A1C3A126882435B4B1C3B1A6070476B
:100B200039B1594A143A12680243574B143B1A60C0
:100B300006E0554A143A12688243534B143B1A603C
:100B4000704739B1504A103A126802434E4B103B7D
:100B50001A6006E04C4A103A126882434A4B103B36
:100B60001A60704739B1484A1C3212680243464B3A
:100B70001C331A6006E0444A1C3212688243424B1E
:100B80001C331A60704739B13F4A20321268024361
:100B90003D4B20331A6006E03B4A20321268824304
:100BA000394B20331A60704739B1374A2432126802
:100BB0000243354B24331A6006E0334A243212686C
:100BC0008243314B24331A60704739B12E4A2C329C
:100BD000126802432C4B2C331A6006E02A4A2C324E
:100BE00012688243284B2C331A60704739B1264A69
:100BF000303212680243244B30331A6006E0224A36
:100C0000303212688243204B30331A60704701281B
:100C100008D11D493C31096841F008011A4A3C32AB
:100C2000116007E018493C31096821F00801164AB3
:100C30003C321160704739B1134A273A12780243A7
:100C4000114B273B1A7006E00F4A273A127882436D
:100C50000D4B273B1A7070470B484030006840F03E
:100C60008070094940310860704701460020064AFB
:100C7000283A12680A400AB1012000E000207047BB
:100C800001492639087070473438024010B50121F7
:100C90008803FFF756FF00214FF48040FFF751FF14
:100CA00010BD1C49086070471B490862704730B589
:100CB00000228B071C0F0F2303FA04F2154B083395
:100CC0008C1053F824309343124C08348D1044F8A0
:100CD000253023468C1053F824308C07240F00FA5B
:100CE00004F423430B4C08348D1044F8253030BDF8
:100CF0000949DC31086070470849086070470020E6
:100D000004492031096801F4807109B1012000E033
:100D100000207047003801400000274200042742AD
:100D200010B50446FE48844208D101210846FFF769
:100D300008FF00210120FFF704FF9DE0B4F1804F80
:100D400008D101210846FFF7EBFE00210120FFF743
:100D5000E7FE91E0F348844208D101210220FFF729
:100D6000DFFE00210220FFF7DBFE85E0EE48844233
:100D700008D101210420FFF7D3FE00210420FFF752
:100D8000CFFE79E0E948844208D101210820FFF72D
:100D9000C7FE00210820FFF7C3FE6DE0E44884424F
:100DA00008D101211020FFF7BBFE00211020FFF722
:100DB000B7FE61E0DF48844208D101212020FFF71F
:100DC000AFFE00212020FFF7ABFE55E0DA48844259
:100DD00008D101210220FFF7B4FE00210220FFF715
:100DE000B0FE49E0D548844209D101210804FFF74B
:100DF000A8FE00214FF48030FFF7A3FE3CE0D0486E
:100E0000844209D101214804FFF79BFE00214FF4E1
:100E10000030FFF796FE2FE0CA48844209D1012135
:100E20008804FFF78EFE00214FF48020FFF789FE33
:100E300022E0C548844208D101214020FFF770FE1E
:100E400000214020FFF76CFE16E0C048844208D124
:100E500001218020FFF764FE00218020FFF760FE63
:100E60000AE0BB48844207D101218015FFF758FEF4
:100E70000021A015FFF754FE10BD00220288A84BE8
:100E800098420ED0AC4B98420BD0B0F1804F08D0B6
:100E9000A44B984205D0A44B984202D0A34B984251
:100EA00004D14FF68F731A404B881A43A04B9842D7
:100EB00007D0A04B984204D04FF6FF431A400B894D
:100EC0001A4302804B68C3620B880385944B984297
:100ED00002D0994B984201D18B7A038601238382F9
:100EE00070474FF0FF314160002101800181418056
:100EF000817270470185828270470A46002101880D
:100F00004FF68F731940114301807047416270475B
:100F1000C16270470146486A70470146088D7047B4
:100F200021B1028842F00202028004E002884FF6FA
:100F3000FD731A400280704721B1028842F004021A
:100F4000028004E002884FF6FB731A40028070476B
:100F500021B1028842F08002028004E002884FF64C
:100F60007F731A400280704702884FF6F7731A4069
:100F7000028002880A430280704702884FF6FF43CE
:100F80001A40028002880A430280704721B1028819
:100F900042F00102028004E002884FF6FE731A401C
:100FA0000280704770B5002400220023058C4FF6A4
:100FB000FE7635400584028C8388048B4FF68F754E
:100FC0002C40B51E2C400D882C43751E2A408D895F
:100FD0002A434D882A43524DA84202D0564DA8427A
:100FE00013D14FF6F7752A40CD892A434FF6FB758A
:100FF0002A408D882A434FF6FF652B404FF6FF5558
:101000002B400D8A2B434D8A2B43838004838D68AC
:101010004563028470BD70B5002400220023058C56
:101020004FF6EF7635400584028C8388048B48F6B2
:10103000FF752C404FF6FF452C400D884FF6FF768C
:1010400006EA05252C434FF6DF752A408D8906EA0E
:1010500005152A434D8806EA05152A43304DA84256
:1010600002D0354DA8421DD14FF67F752A40CD895B
:101070004FF6FF7606EA05152A434FF6BF752A405C
:101080008D8806EA05152A434FF6FF352B404FF2AF
:10109000FF752B400D8A06EA85052B434D8A06EA2B
:1010A00085052B43838004838D688563028470BD2E
:1010B00070B5002400220023058C4FF6FF663540F2
:1010C0000584028C8388848B4FF68F752C404FF6F5
:1010D000FC752C400D882C434FF6FF552A408D8916
:1010E0004FF6FF7606EA05252A434D8806EA0525D0
:1010F0002A430B4DA84202D00F4DA84238D14FF2DF
:10110000FF752A40CD894FF6FF7606EA05252A436A
:101110004FF6FF352A408D8806EA05252A4319E057
:10112000000001400004004000080040000C0040A6
:101130000010004000140040000401400040014045
:10114000004401400048014000180040001C0040DD
:10115000002000404EF6FF752B404DF6FF752B40EA
:101160000D8A06EA05152B434D8A06EA05152B4321
:10117000838084838D68C563028470BD70B500224E
:1011800000230024058C4EF6FF7635400584038C41
:101190008488828B48F6FF752A404FF6FF452A4027
:1011A0000D884FF6FF7606EA05252A434DF6FF75B2
:1011B0002B408D8906EA05352B434D8806EA053517
:1011C0002B43FE4DA84202D0FD4DA84208D14BF65C
:1011D000FF752C400D8A4FF6FF7606EA85152C43E5
:1011E000848082838D680564038470BD0021018042
:1011F0004180818081608181C1810182418270470B
:1012000070B50346002000241846183001258D4093
:10121000ACB21D8CA5431D8409B108290AD100EB8D
:10122000610005684FF68F76354005600568154307
:1012300005600FE00D1FC5F34E052844056848F60C
:10124000FF763540056005684FF6FF7606EA022610
:101250003543056070BD4163704781637047C1636A
:101260007047016470470A460021018B4FF68F7367
:1012700019401143018370470A460021018B48F64B
:10128000FF7319404FF6FF7303EA022319430183EA
:1012900070470A460021818B4FF68F731940114326
:1012A000818370470A460021818B48F6FF731940FD
:1012B0004FF6FF7303EA02231943818370470A46FE
:1012C0000021018B4FF6F7731940114301837047DA
:1012D0000A460021018B4FF2FF7319404FF6FF734E
:1012E00003EA02231943018370470A460021818BD8
:1012F0004FF6F77319401143818370470A46002166
:10130000818B4FF2FF7319404FF6FF7303EA0223FC
:101310001943818370470A460021018B4FF6FB7306
:1013200019401143018370470A460021018B4FF693
:10133000FF3319404FF6FF7303EA02231943018379
:1013400070470A460021818B4FF6FB731940114309
:10135000818370470A460021818B4FF6FF33194085
:101360004FF6FF7303EA02231943818370470A464D
:101370000021018B4FF67F731940114301837047A1
:101380000A460021018BC1F30E014FF6FF7303EAF9
:1013900002231943018370470A460021818B4FF6CF
:1013A0007F7319401143818370470A460021818B66
:1013B000C1F30E014FF6FF7303EA02231943818341
:1013C00070470A460021018C4FF6FD731940114306
:1013D000018470470A460021018C4FF6F7731940CB
:1013E0001143018470470A460021018C4FF6DF73D8
:1013F00019404FF6FF7303EA021319430184704743
:101400000A460021018C4FF67F7319404FF6FF7397
:1014100003EA02131943018470470A460021018C34
:101420004FF6FF5319404FF6FF7303EA02231943A7
:10143000018470470A460021018C4FF2FF73194066
:101440004FF6FF7303EA02231943018470470A46EB
:101450000021018C4DF6FF7319404FF6FF7303EA2C
:10146000023319430184704730B5002301248C40B6
:10147000A3B2048C9C430484048C02FA01F5ADB23F
:101480002C43048430BD30B5002304248C40A3B227
:10149000048C9C430484048C02FA01F5ADB22C4305
:1014A000048430BD828B4FF2FF331A408283828BDB
:1014B0004FF6FF7303EA01231A4382837047F0B5A6
:1014C0000C461546002100220026078C4EF6FF7CB4
:1014D00007EA0C070784818B028C4FF6FF7707EA37
:1014E000043640F6FF4739404FF6FF7707EA0527F5
:1014F00039434FF6FF7707EA0337394345F6FF775D
:101500003A4046F480573A4381830284F0BD828B8F
:101510004FF6F3731A408283828B0A4382837047AB
:10152000F0B50C461546002100220026078C4FF628
:10153000FF6C07EA0C070784818B028C4FF6FF775C
:1015400007EA04264FF60C7739404FF6FF7707EA93
:1015500003172F4339434FF2FF573A4046F4807741
:101560003A4381830284F0BD028B4FF2FF331A406D
:101570000283028B4FF6FF7303EA01231A430283AF
:101580007047F0B50C461546002100220026078C56
:101590004FF6EF7C07EA0C070784018B028C4FF6AD
:1015A000FF7707EA041640F6FF4739404FF6FF770A
:1015B00007EA033739434FF6FF7703E000000140A5
:1015C0000004014007EA052739434FF65F773A40A8
:1015D00046F010073A4301830284F0BD028B4FF6B8
:1015E000F3731A400283028B0A4302837047F0B5FB
:1015F0000C46154600210022068C4FF6FE773E4031
:101600000684018B028C4FF60C7631407E1C06EA74
:1016100003162E4331434FF6F576324044F001066F
:10162000324301830284F0BD70B505460C46208824
:1016300050B92389A28861882846FFF7D8FFE1883E
:101640002846FFF7CBFF25E0208804280AD123890C
:10165000A28861882846FFF794FFE1882846FFF7B3
:1016600083FF17E0208808280AD12389A28861888F
:101670002846FFF755FFE1882846FFF748FF09E0B5
:101680002389A28861882846FFF719FFE188284648
:10169000FFF708FF70BD002101804180012181809A
:1016A0000021C180018170472DE9F04105460C46BB
:1016B00000260127608808B9022600E00026A088DD
:1016C000012801D1022700E001272088A0B9238941
:1016D000A28861882846FFF78AFFE1882846FFF73D
:1016E0007DFF23893A4631462846FFF74AFFE188C5
:1016F0002846FFF739FF13E02389A288618828462E
:10170000FFF73FFFE1882846FFF72EFF23893A467F
:1017100031462846FFF76BFFE1882846FFF75EFF5A
:10172000BDE8F0810146486B70470146886B704701
:101730000146C86B70470146086C70470A884B88A1
:101740001A438B881A43CB881A430B891A434B8957
:101750001A438B891A43A0F8442070470021018066
:1017600041808180C180018141818181704731B197
:10177000B0F8442042F40042A0F8442005E0B0F85C
:101780004420C2F30E02A0F84420704721B18288A1
:1017900042F00402828004E082884FF6FB731A4014
:1017A0008280704721B1828842F00102828004E089
:1017B00082884FF6FE731A40828070471AB183897F
:1017C0000B43838102E083898B438381704781824D
:1017D000704702460020138A0B400BB1012000E045
:1017E00000207047CA430282704730B5024600208D
:1017F00000230024158A05EA0103958905EA0104FE
:1018000013B10CB1012000E0002030BDCA430282B8
:10181000704741EA0203A0F8483070471AB1838943
:101820000B43838102E083898B438381704721B11D
:10183000828842F00802828004E082884FF6F773C3
:101840001A408280704701894FF6F8721140018179
:1018500070470A46002101894FF68F7319401143E2
:101860000181704730B504460D4629462046FFF7F2
:10187000F0FF208940F00700208130BD2DE9F041C4
:1018800004460D4616461F46602D06D13B460122F2
:1018900031462046FFF775FE05E03B460122314602
:1018A0002046FFF7A4FE29462046FFF7D2FF2089F5
:1018B00040F007002081BDE8F08130B50C460021E2
:1018C0000189C9B24FF6FF7505EA03251543254383
:1018D0002943018130BD2DE9F04105460E461746EA
:1018E0009846002443463A4631462846FFF7E5FF2E
:1018F0002C894FF6F870044044F007044FF68F70BF
:10190000044044F070042C81BDE8F081F0B5044639
:101910000D4616461F463B46324629462046FFF7EF
:10192000CCFF208940F480402081F0BD82884FF6B2
:101930008F731A40828082880A43828070470289AE
:101940004FF6F8731A40028102890A4302817047F8
:1019500002894FF67F731A40028102890A4302818D
:101960007047F0B50C4615461E46002100220023A4
:101970000189028B038C4FF6F877394021434FF6EB
:10198000FC473A4040F201173A434FF6DD773B40BF
:101990004FF6FF7707EA06172F433B430181028387
:1019A0000384F0BD21B1828842F08002828004E08D
:1019B00082884FF67F731A4082807047A0F85010DB
:1019C0007047000010B50446FA48844208D101214E
:1019D0001020FFF7B6F800211020FFF7B2F857E00B
:1019E000F548844209D101214804FFF799F8002104
:1019F0004FF40030FFF794F84AE0F048844209D1F0
:101A000001218804FFF78CF800214FF48020FFF7B4
:101A100087F83DE0EA48844209D10121C804FFF774
:101A20007FF800214FF40020FFF77AF830E0E54816
:101A3000844209D101210805FFF772F800214FF413
:101A40008010FFF76DF823E0DF48844208D10121C0
:101A50002020FFF776F800212020FFF772F817E02A
:101A6000DA48844209D101218807FFF759F800219B
:101A70004FF08040FFF754F80AE0D548844207D180
:101A800001214005FFF74CF800216005FFF748F8F9
:101A900010BD2DE9FF4705460E460024A14600BFB4
:101AA000A046B08900B100BF2C8A24F44054F088CD
:101AB00004432C82AC8941F20C608443B0883189A4
:101AC0000843718908430443AC81AC8A24F4407410
:101AD000B0890443AC826846FEF7B3FEB548854240
:101AE00002D0B948854202D1DDF80C9001E0DDF862
:101AF0000890A88900F4004040B109EBC90000EB50
:101B0000091031684900B0FBF1F707E009EBC900A3
:101B100000EB091031688900B0FBF1F76420B7FBD6
:101B2000F0F004012009642101FB1078A88900F479
:101B3000004040B1322000EBC800B0FBF1F000F0F3
:101B40000700044308E0322000EB08106421B0FBDA
:101B5000F1F000F00F0004432C81BDE8FF874FF443
:101B60001651016000218180C18001810C214181D9
:101B700000218181704710B502460020108A20F4B0
:101B800070600B884C8823438C882343CC88234384
:101B90001843108210BD0021018041808180C180E6
:101BA000704721B1828942F40052828104E0828927
:101BB0004DF6FF731A4082817047028B02F47F4218
:101BC0000283028B0A430283704721B1828942F467
:101BD0000042828103E08289C2F30E028281704753
:101BE00021B1828A42F40062828204E0828A4FF24A
:101BF000FF731A4082827047C1F3080282807047E7
:101C000001468888C0F308007047028A4FF6F073D7
:101C10001A400282028A0A430282704721B18289F5
:101C200042F00202828104E082894FF6FD731A407D
:101C30008281704782894FF2FF731A4082818289C4
:101C40000A4382817047028A4FF6DF731A4002828C
:101C5000028A0A430282704721B1028A42F480421A
:101C6000028204E0028A4BF6FF731A400282704738
:101C7000818941F001018181704721B1828A42F05E
:101C80000802828204E0828A4FF6F7731A40828249
:101C90007047028BD2B20283028B42EA0122028396
:101CA000704721B1828A42F02002828204E0828A57
:101CB0004FF6DF731A408282704721B1828A42F068
:101CC0001002828204E0828A4FF6EF731A40828209
:101CD0007047828A4FF6FB731A408282828A0A43D7
:101CE0008282704721B1828A42F00202828204E03D
:101CF000828A4FF6FD731A40828270471AB1838A36
:101D00000B43838202E0838A8B4383827047F0B562
:101D10000346002400260025002040F66A17B94239
:101D200000D100BF1846C1F3421401F01F0601277D
:101D300007FA06F5012C01D10C3004E0022C01D188
:101D4000103000E014301AB107682F43076002E03A
:101D50000768AF430760F0BD02460020B1F5007F81
:101D600000D100BF13880B400BB1012000E0002020
:101D7000704701F40072B2F5007F00D100BFCA4382
:101D80000280704770B50246002400230025002021
:101D900040F66A16B14200D100BFC1F3421501F00E
:101DA0001F03012606FA03F3012D13D19689334050
:101DB00017E00000001001400044004000480040CF
:101DC000004C0040005000400014014000780040EA
:101DD000007C0040022D02D1168A334001E0968A31
:101DE00033400C12012606FA04F41688344013B16D
:101DF0000CB1012000E0002070BD10B500220023CE
:101E000040F66A14A14200D100BF0A120124944096
:101E1000A3B2DC43048010BD01B581B00020009066
:101E20000198009002E00098401E00900098002861
:101E3000F9D10CBD10B501214806FEF73EFE002188
:101E40004FF00070FEF739FE10BD7FB50025FE4C47
:101E5000FE48056925F01C056846FEF7F2FC019C6A
:101E6000FB48844205D3FB48844202D245F0080572
:101E70001AE0F848844205D3F348844202D245F080
:101E80000C0511E0F048844203D3F348844200D2A9
:101E90000AE0F148844205D3F048844202D245F07A
:101EA000040501E045F01005E84805617FBD01210A
:101EB0000160002141608160C16001614FF4804197
:101EC000416100218161C1614FF400610162002123
:101ED00041628162C162016341638163C1634021E8
:101EE00001642021416400218164C1640165416570
:101EF0008165C16501668021416600218166C166F8
:101F0000016741678167C1674FF08061C0F8801049
:101F10004910C0F884100021C0F888104FF4001157
:101F2000C0F88C100021C0F89010C0F89410C0F8D0
:101F30009810C0F89C10C0F8A0104FF00071C0F8C5
:101F4000A4104912C0F8A8108901C0F8AC104912B9
:101F5000C0F8B0100021C0F8B410C0F8B810704735
:101F600038B503460C46002100200090B7480169AF
:101F700001F01C014FF4784000EAC32001434FF404
:101F8000F86000EA8410014341F0020141F00101D0
:101F9000AE484261016100BF0098401C0090AB4810
:101FA000016901F0010018B1AD4D0098A842F3D3CA
:101FB000AB4D0098A84201D1002038BD0120FCE7BC
:101FC000F8B505460E460024002000909F4804699D
:101FD00004F01C044FF4784000EAC52004434FF499
:101FE000F86000EA8610044324F0020444F001047F
:101FF0009648046100BF0098401C00909348046913
:1020000004F0010018B1964900988842F3D394492E
:102010000098884205D193A000991CF0C3FE0020CF
:10202000F8BD8A48406980B2FAE72DE9F8430446D2
:102030000D461646002000904FF4004040EA441040
:1020400040F48060284380B240F480573A4618211B
:102050001C20FFF785FF00F0FF088E48FFF7DCFE2D
:1020600006E00098401C00908BA000991CF09AFE9E
:1020700018211C20FFF7A4FF00F400400028F0D135
:1020800077490098884202D10020BDE8F8833246A3
:1020900019211C20FFF764FF00F0FF084046F4E719
:1020A000FEB504460E460027002500200290019050
:1020B00001200090FFF7C9FE47F40042002130469E
:1020C000FFF7B3FF10B9002000906EE07148FFF7F2
:1020D000A3FE2068002854D000BF0198401C019046
:1020E00001213046FFF76CFF00F0040018B95C498D
:1020F00001988842F1D35A490198884208D16F4823
:102100001CF050FE6E481CF04DFE002000904CE08C
:10211000002001904FF4805200213046FFF785FFE8
:1021200008B90020009000BF0198401C01900121D7
:102130003046FFF745FF00F0200018B948490198E4
:102140008842F1D346490198884202D1002000908C
:102150002BE00020019011213046FFF731FF0746A8
:1021600007F4005018B14FF40060206201E0002035
:102170002062002008B1606116E04FF48040606189
:1021800012E0206AC0F3CF006169C1F34F0140EA59
:10219000010200213046FFF7E3FE08B9002000905D
:1021A0006FF07F40FFF738FE00BF009820B94FF472
:1021B00000602062C0006061244805684148054015
:1021C000D4E901010843E1680843216908436169D2
:1021D0000843A1690843E1690843216A0843616A29
:1021E0000843A16A0843E16A0843216B0843616B15
:1021F000084305431548056005684FF6FF70FFF773
:102200000BFE12480560D4E90E010843216C084317
:10221000616C0843A16C0843E16C0843216D0843DD
:10222000616D084309494860084645684FF6FF70EC
:10223000FFF7F2FD054845600449A06D8860E06D38
:10224000C860084685693FE000879303008002402C
:10225000002D3101C00E160200E1F50580D1F00815
:10226000FFFF04000D0A204554485F4552524F526B
:10227000204554485F52656164504859526567690A
:10228000737465722074696D656F75743D2025786F
:102290000D0A0000FFFF0F000D0A205772697465D8
:1022A0005F5048595F534D492062757379207469B6
:1022B0006D65203A202564200D0A0000F8F401081D
:1022C000B0F401080F8120FF4FF641700540B4F8CB
:1022D0006010606E40EA0140A16E0843E16E084361
:1022E000216F0843616F08430543FC488561856998
:1022F0004FF6FF70FFF790FDF8488561D4E91E01A5
:102300000843F649C8610846C5694FF6FF70FFF7F4
:1023100083FDF248C561F2488569F2480540D4E979
:1023200020010843D4F888100843D4F88C100843DF
:10233000D4F890100843D4F894100843D4F89810B7
:102340000843D4F89C100843D4F8A0100843054370
:10235000E348856185694FF6FF70FFF75DFDE04852
:102360008561D4E929010843D4F8AC100843D4F8B6
:10237000B0100843D4F8B41040EA8100D4F8B81083
:10238000084340F40000D6490860084605684FF647
:10239000FF70FFF741FDD2480560006840F0800003
:1023A000CF490860084605684FF6FF70FFF734FD17
:1023B000CB4805600098012804D1CBA01CF0F2FCAA
:1023C0000120FEBDD1A01CF0EDFC0020F9E730B1EA
:1023D000C349896941F00201C14A916105E0C049E0
:1023E000896921F00201BE4A9161704730B1BC4950
:1023F000896941F40051BA4A916105E0B849896997
:1024000021F40051B64A9161704708B50020009050
:10241000B348806940F48010B149886108468069FA
:1024200000904FF6FF70FFF7F7FCAD490098886108
:1024300008BD38B504460020009034B1A7480068B4
:1024400040F00400A549086005E0A448006820F0B9
:102450000400A2490860A148006800904FF6FF7090
:10246000FFF7DAFC9D490098086038BD38B504468E
:102470000020009034B19948006840F00800974966
:10248000086005E09548006820F00800934908605E
:102490009248006800904FF6FF70FFF7BDFC8F492F
:1024A0000098086038BD10B50120FFF7DFFF01205C
:1024B000FFF7BFFFFFF7A9FF0120FFF797FF0120FC
:1024C000FFF785FF10BD10B50020FFF78FFF00203C
:1024D000FFF77DFF0020FFF7ACFFFFF796FF00201E
:1024E000FFF7C4FF10BD00207C49896901F001019C
:1024F00009B1012000E00020704708B500200090DD
:102500007648806940F00100744988610846806916
:1025100000904FF6FF70FFF77FFC704900988861CC
:1025200008BD38B504460020009034B16B4880697E
:1025300040F001006949886105E06848806920F041
:102540000100664988616548806900904FF6FF7018
:10255000FFF762FC61490098886138BD01460020A0
:102560005E4A926B0A400AB1012000E000207047E9
:1025700001460020594A926B0A400AB1012000E04E
:102580000020704729B1554AD26B8243534BDA631E
:1025900004E0524AD26B0243504BDA63704710B5E5
:1025A0000B794C7943EA04224C4B03441A64CB78F0
:1025B0001B068C7843EA04434C7843EA04230C78E6
:1025C00043EA0402454B03445A6410BD0246434BA0
:1025D0001344186C030A4B710871404B1344586C38
:1025E000030ECB70030C8B70030A4B70087070479E
:1025F00038B504460D460020009045B137482044C8
:10260000006C40F0004035492144086407E033483D
:102610002044006C20F000403049214408642F48D9
:102620002044006C00904FF6FF70FFF7F5FB2B493C
:1026300021440098086438BD38B504460D46002092
:102640000090082D08D025482044006C40F08040C0
:1026500022492144086407E020482044006C20F00F
:1026600080401E49214408641C482044006C0090AE
:102670004FF6FF70FFF7D0FB18492144009808641B
:1026800038BD38B504460D4600200090134820445C
:10269000006C20F07C501149214408640F4820440C
:1026A000006C00904FF6FF70FFF7B6FB0B4921441A
:1026B0000098086409482044006C284307492144D5
:1026C000086406482044006C00904FF6FF70FFF746
:1026D000A3FB024921440098086438BD00800240F1
:1026E00000900240233FDEF83D3D3D3D3D3D4554D9
:1026F000485F496E697420204554485F53554343F1
:10270000455353203D3D0D0A000000003D3D3D3D39
:102710003D3D4554485F496E697420204554485FEB
:102720004552524F52203D3D0D0A00001EB500217A
:102730000022009201920292F74A12681268C2F3D4
:102740000D42111F0091F54A126812680292F34A75
:102750001268126892680192EF4A1268D268EE4BD2
:102760001A609DE81C0080E81C001EBD0FB500210A
:10277000019102910391009170E00099491C009130
:10278000E5490968096801F40071A1B1E2490968E5
:10279000096801F4807171B9DF490968DF4A12687C
:1027A00011600121DD4A12689160DB490968C9683E
:1027B000D94A116052E0D8490968096801F480716A
:1027C00091B9D5490968096801F4007161B9D34923
:1027D00009688968491CD14A12689160CE49096824
:1027E000C968CD4A116039E0CB490968CB4A126803
:1027F0005160CA4909688968491CC84A12689160D1
:10280000C64909688968012904D1C3490968C34ACE
:1028100012681160C04909680968C1F30D41091FB8
:102820000191BE4909688968012905D9BB49096830
:1028300009688968029103E0B749096889680291CB
:10284000B649096809680391B3490968C968B24A79
:10285000116001A90EC980E80E000FBDAE490968DC
:10286000096801F0004111B90099052985D301A932
:102870000EC980E80E0000BFEFE72DE9F0410546E4
:102880000026B0460027A6480068006800F0004017
:1028900028B1A4A01CF086FA0020BDE8F081A04871
:1028A00004682946AFA01CF07DFA40F2F45085423E
:1028B00008DD95FBF0F695FBF0F100FB115010B12F
:1028C000761C00E00126012E0CD1206840F040501B
:1028D0002060C5F30C006060206840F0004020607C
:1028E000E46826E0002722E0206820F040502060C5
:1028F0001FB9206840F08050206040F2F4506060C2
:10290000701EB8420DD1206840F000502060701E4B
:10291000C0EBC01000EB4000A5EB8008C8F30C0032
:102920006060206840F000402060E4687F1CB7428F
:10293000DAD37B4804609548406900F0040020B178
:102940000420924948610020486091A01CF02AFAB6
:102950000120A2E770B50C46134600216E4D286099
:1029600000BF18E000EB41124FF00045156044F243
:10297000F4555560C1EBC11505EB450504EB850524
:1029800095605D1E8D4204D900EB41152035D56060
:1029900000E0D060491C9942E4D37C4DE8608C4D46
:1029A0005E4E356070BD5C480068006800F0004015
:1029B000E8B959480068006800F48070B8B1574819
:1029C00000688068401C5549096888605348006861
:1029D0008068012804D1504800685049096808609F
:1029E0004D4800684D4909684860012070474A48D1
:1029F0000068006800F00040F0B9474800680068CF
:102A000000F40070C0B144480068006800F48070B1
:102A100090B94148006841490968086000203F4971
:102A20000968486001203D49096888603A480068A3
:102A3000C068394908601DE037480068006800F048
:102A40000040B8B934480068006800F4007088B9E4
:102A500031480068006800F4807058B92F48006859
:102A60008068401C2D49096888602B480068C06850
:102A7000294908600020B9E730B50C46134600210B
:102A8000274D286000BF15E000EB41124FF4801580
:102A90001560C1EBC11505EB450504EB8505956097
:102AA0005D1E8D4204D900EB41152035D56000E054
:102AB000D060491C9942E7D3344D286130BD0246AD
:102AC000002013680B400BB1012000E0002070478C
:102AD00001460868C0F3C3007047016841F0004137
:102AE0000160704721B1026842F08042026003E059
:102AF000026822F080420260704702680A43026066
:102B0000704702680A430260704721B1026822F0F0
:102B10000062026062E05DE0140000201800002006
:102B2000100000200D0A203D3D3D3D6C7A68303894
:102B30003038204554485F507265706172655F544B
:102B400072616E736D69745F4465736372697074EA
:102B50006F7273204554485F4552524F52200D0A00
:102B60000000000040404040402054582020706148
:102B7000636B6574204672616D654C656E67746841
:102B8000203D202564200D0A000000000090024036
:102B90000D0A203D3D3D3D6C7A6830383038204587
:102BA00054485F507265706172655F5472616E73F4
:102BB0006D69745F44657363726970746F727320BA
:102BC0004554485F53554343455353200D0A000075
:102BD000E8010020026842F000620260704721B103
:102BE000026842F48012026003E0026822F480125C
:102BF0000260704721B1026822F08062026003E047
:102C0000026842F080620260704710B541EA0244F7
:102C100043682343436010BD0246002013680B4005
:102C20000BB1012000E0002070470246002013692C
:102C30000B400BB1012000E000207047016841F01B
:102C400000410160704701460868C0F30D407047BD
:102C500021B1426822F00042426003E0426842F043
:102C6000004242607047024619B15068C0F30C4000
:102C700070479088C0F30C00FAE700B502460023C5
:102C8000106800F0004058B9106800F4004038B9EE
:102C9000106800F4807018B11046FFF7D4FF0346A7
:102CA000184600BD38B504460020009034B1F848FD
:102CB000006840F08000F649086005E0F4480068CC
:102CC00020F08000F2490860F148006800904FF65B
:102CD000FF70FFF7A1F8EE490098086038BDEC4896
:102CE000006840F00100EA490860704710B5002410
:102CF000E748006800F0010008B1012400E000246A
:102D00002146E4A01CF04EF8204610BD01460020EC
:102D1000DF4A52690A400AB1012000E000207047F2
:102D2000DB494861704729B1D94AD2690243D84B7F
:102D3000DA6104E0D64AD2698243D54BDA61704742
:102D400001460020D24A52690A400AB1012000E03F
:102D500000207047CE4948617047CD48406900F077
:102D600001007047CA48406900F0400070470020E9
:102D7000C749896901F4801109B1012000E00020F0
:102D8000704701460020C24A126A0A400AB1012077
:102D900000E000207047BE48006AC0F34A40704718
:102DA000BB48006A80B27047B948806C7047B84829
:102DB000C06C7047B648006D7047B548406D7047AD
:102DC0000020B349486070470020B14988607047CF
:102DD000AF494862704770B506460D460024002191
:102DE0003046FFF7EDF8044615B144F4804402E0A4
:102DF0004BF6FF700440224600213046FFF7B0F842
:102E000008B1012070BD0020FCE708B5002000904B
:102E1000AA48C06A40F00040A849C8620846C06A93
:102E200000904FF6FF70FEF7F7FFA4490098C862C4
:102E300008BD38B5054600200090002400BF0EE014
:102E400055F824009D4988620846806A00904FF634
:102E5000FF70FEF7E1FF994900988862641C082C16
:102E6000EED338BD38B504460020009034B1934805
:102E7000C06A40F400709149C86205E08F48C06A9A
:102E800020F400708D49C8628C48C06A00904FF6EB
:102E9000FF70FEF7C1FF89490098C86238BD01463E
:102EA0000020864AD26A0A400AB1012000E00020D0
:102EB000704738B504460020009034B17F48C06A9E
:102EC00040F004007D49C86205E07C48C06A20F0FB
:102ED00004007A49C8627948C06A00904FF6FF70D2
:102EE000FEF79AFF75490098C86238BD38B50446A8
:102EF0000020009034B17148C06A40F002006F4970
:102F0000C86205E06D48C06A20F002006B49C862E3
:102F10006A48C06A00904FF6FF70FEF77DFF674970
:102F20000098C86238BD38B504460020009034B11E
:102F30006248C06A40F001006049C86205E05F482D
:102F4000C06A20F001005D49C8625C48C06A009018
:102F50004FF6FF70FEF760FF58490098C86238BD11
:102F60005748006840F030005449C1F800017047EC
:102F70005348006820F020005049C1F8000108467D
:102F8000D0F8000140F01000C1F80001704738B1DE
:102F90004B49096841F00801484AC2F8001106E0AF
:102FA0004749096821F00801444AC2F800117047F6
:102FB00038B14349096841F00401404AC2F80011A0
:102FC00006E03F49096821F004013C4AC2F80011BB
:102FD000704738B13A49096821F00201374AC2F80E
:102FE000001106E03649096841F00201334AC2F88F
:102FF000001170473248006840F001002F49C1F8C5
:103000000001704700F0805292B120F0805039B139
:103010002B4A0C3212688243284BC3F80C2117E06C
:10302000274A0C3212680243244BC3F80C210FE0EC
:1030300039B1234A103212688243204BC3F8102161
:1030400006E01F4A1032126802431C4BC3F81021DD
:1030500070470146002001F080526AB1184A121DE3
:1030600012680A4032B1164A0C3212680A400AB994
:10307000012028E0002026E0114A083212680A40A8
:1030800002B30F4A0C3212680A40DAB901201AE082
:10309000009002403D3D3D204554485F47657453D4
:1030A0006F66747761726552657365745374617489
:1030B0007573203A2025640D0A000000008002404C
:1030C000008102400020704701462E480858704792
:1030D000F8B504460D46002000904FF4184040EA31
:1030E0004410284386B2324618211C20FEF738FFD0
:1030F00087B22548FEF790FE06E00098401C00903D
:1031000022A000991BF04EFE18211C20FEF758FF4C
:1031100000F4004018B1264900988842EDD32449B4
:103120000098884206D1AFF6C46000991BF03AFEC1
:103130000020F8BD19211C20FEF742FF0746384643
:10314000F7E770B506460D46002400213046FFF72C
:10315000BFFF04460C48FEF75FFE15B144F400645F
:1031600002E04FF2FF700440224600213046FEF795
:103170005CFF28B121460FA01BF014FE012070BD9A
:103180000020FCE700800240FFFF0F000D0A2052E4
:103190006561645F5048595F534D4920627573798A
:1031A0002074696D65203A202564200D0A00000016
:1031B000FFFF04000D0A20436C6F736520504859CF
:1031C0005F506F776572646F776E204F4B203D20A4
:1031D00025780D0A000000000A460021DBE0D30B31
:1031E000002B75D0102971D2DFE801F0080F161DF1
:1031F000242B323940464C52585E646A038823F4CB
:10320000004303F50043038060E0038823F4804318
:1032100003F58043038059E0038823F4005303F54A
:103220000053038052E0038823F4805303F5805356
:1032300003804BE0038823F4006303F500630380FD
:1032400044E0038823F4806303F5806303803DE05A
:10325000038823F4007303F50073038036E00388CA
:1032600023F4807303F5807303802FE0038823F039
:1032700080038033038029E0038823F04003403338
:10328000038023E0038823F02003203303801DE024
:10329000038823F010031033038017E0038823F022
:1032A00008030833038011E0038823F004031B1D87
:1032B00003800BE0038823F002039B1C038005E0DE
:1032C000038823F001035B1C038000BF5DE0FFE780
:1032D000102959D2DFE801F0080D12171C21262B06
:1032E00030353A3F44494E53038823F4004303806A
:1032F0004AE0038823F48043038045E0038823F4F5
:103300000053038040E0038823F4805303803BE0B4
:10331000038823F40063038036E0038823F480638A
:10332000038031E0038823F4007303802CE00388DA
:1033300023F48073038027E0038823F08003038055
:1033400022E0038823F0400303801DE0038823F07C
:103350002003038018E0038823F01003038013E0A8
:10336000038823F0080303800EE0038823F004039E
:10337000038009E0038823F00203038004E003884C
:1033800023F00103038000BF00BF4FF6FF7303EA81
:1033900042024B1CD9B21029FFF621AF7047F0B59D
:1033A0001C46002600250123C1F11007974202DACE
:1033B000C1F11007FAB20E46002E0CDD05E0EF1841
:1033C000BDB24FF6FF7707EA43033700A6F1010CC1
:1033D0000CF0FF06F3D1D0F814C04FF6FF779740FA
:1033E0008F402F430CEA070CC0F814C0476904FA59
:1033F00001FC47EA0C074761F0BD10B56FF004000F
:10340000FCF7AEFF1520394908700846007800EB3C
:103410004001C1EBC0104FF6FF7101EAC000344912
:10342000088010BD0146314A12784A434FF0E0232C
:103430005A6100229A611A46126942F001021A6129
:1034400000BF4FF0E022106900F001021AB100F451
:103450008032002AF5D04FF0E022126922F00102FA
:103460004FF0E0231A6100229A6170470146204A1A
:1034700012884A434FF0E0235A6100229A611A46AB
:10348000126942F001021A6100BF4FF0E022106998
:1034900000F001021AB100F48032002AF5D04FF09A
:1034A000E022126922F001024FF0E0231A610022AB
:1034B0009A61704770B504464FF4077094FBF0F0C2
:1034C000C6B24FF4077094FBF0F100FB114085B2D7
:1034D00005E04FF40770FFF7C9FF701EC6B2002E5B
:1034E000F7D115B12846FFF7C1FF70BD20000020BD
:1034F000220000202DE9FE4F0446894665682878A1
:1035000000074FEA9068C8F10001204601F040FD35
:1035100010B92089042802D200BF00BF9FE0606874
:1035200090F800A0606890F801B0BAF1000F03D0E5
:10353000BAF1080F79D100E08CE0012677480078D5
:1035400000F0F000E02800D10026744908684946E0
:1035500000F088FB00B1002636B900BF00BF20464E
:1035600001F084FBBDE8FE8F00BF00BF2089082862
:1035700002D200BF00BF72E0204600F0C1F928B1BE
:1035800000BF00BF204601F071FBEBE7222120467F
:1035900001F0FEFC58B34146204601F0F9FC10B1A1
:1035A00000BF00BF5FE021890022022001F0A9FBDB
:1035B000064616B900BF00BF55E000BF00BF214658
:1035C000304601F080FD10B100BF00BF4BE07568D0
:1035D000C8F1000001B2304601F0DAFC10B100BFC2
:1035E00000BF40E0204601F041FB344608E06FF0A8
:1035F0002101204601F0CCFC10B100BF00BF32E039
:10360000676846480068E86045480068286100200F
:1036100038707880FF20287200206881414620465B
:1036200001F0B6FC10B100BF10E010E00120002155
:10363000FF230A46CDE9010900913849204600F0F0
:103640007EFA06460EB100BF00BF00BF02E000BF19
:1036500000BF00BF00BF204601F008FB82E7204604
:1036600001F004FB7EE7204601F000FB00BF79E794
:103670002DE9FE4306460F469046002224210120F4
:1036800001F03FFB05461DB900BF00BFBDE8FE834A
:1036900000BF00BFD6F8049000BF00BF00BF00BF4E
:1036A00000BF00BF00BF00BF00BF00BF6C68277035
:1036B00084F801800020A080E08071686A6802F1CF
:1036C00008001C221BF0A1FC0020608069892046B4
:1036D00000F00CF96080D9F80C0002900120002164
:1036E000FF2302AACDE90010284600F08EFA2846F2
:1036F00001F0BCFA00BFC9E770B505460C4622468A
:1037000003212846FFF7B4FF70BD70B505460C468F
:1037100022460B212846FFF7ABFF70BD300000208A
:103720002C000020F8B505460A462B4600200090E4
:10373000002103F0010636B1002A04DD13F8010B65
:103740008DF80100521E1C4603E034F8027B394418
:10375000921E012AF9DC002A02DD20788DF8000093
:10376000BDF80000014488B200EB114188B200EBC3
:10377000114126B1C8B2C1F3072747EA002188B238
:10378000F8BD2DE9F05F0746884691469A46002429
:10379000A3463D461AE000BF00BF69896868FFF78D
:1037A000C1FF0444A0B200EB1444688900EBD0715F
:1037B0004910A0EB410141B1CBF1010000F0FF0B3A
:1037C000E0B2C4F3072141EA00242D68002DE2D1C4
:1037D000BBF1000F04D0E0B2C4F3072141EA00249A
:1037E000D8F80060B0B204444FF6FF7000EA16400B
:1037F0000444D9F80060B0B204444FF6FF7000EA08
:1038000016400444504600F0E5FE04440A9800F0D7
:10381000E1FE0444A0B200EB1444A0B200EB144457
:1038200000BF00BFE04380B2BDE8F09F2DE9FF5F1D
:1038300081468A460F9E0024A3464D4624E000BFE1
:1038400000BFB5F80A80B04500DDB0464146686863
:10385000FFF768FF0444A6EB080086B200BF00BF74
:10386000A0B200EB1444688900EBD0714910A0EBC2
:10387000410141B1CBF1010000F0FF0BE0B2C4F314
:10388000072141EA00242D680DB1002ED7DCBBF1E1
:10389000000F04D0E0B2C4F3072141EA0024DAF8B3
:1038A0000070B8B204444FF6FF7000EA17400444B9
:1038B00002980768B8B204444FF6FF7000EA174058
:1038C0000444039800F086FE04440E9800F082FE43
:1038D0000444A0B200EB1444A0B200EB144400BFB7
:1038E00000BFE04380B204B0BDE8F09F70B504466D
:1038F0000D4629462046FFF715FFC04380B270BD34
:103900002DE9F041064600240027354617E0698975
:103910006868FFF707FF0444A0B200EB144468890D
:1039200000EBD0714910A0EB410139B1C7F10100A2
:10393000C7B2E0B2C4F3072141EA00242D68002D8C
:10394000E5D127B1E0B2C4F3072141EA0024E04306
:1039500080B2BDE8F081000010B50246BA480168A7
:103960000FE091F8290000F0010048B110688B6861
:103970001840D1E901342340984201D1084610BDD6
:1039800009680029EDD1B148006830B1AF4800683E
:1039900090F8290000F0010018B900BF00BF002016
:1039A000EDE7AA480068EAE72DE9F04705468846B2
:1039B0006E6830780421B1EB201F07D000BF00BF34
:1039C000284601F053F90020BDE8F087307800F078
:1039D0000F094FF6FF7000EA8909708800F000FEB9
:1039E00007466889484502DB2889B8420EDA6889AB
:1039F000484501DA00BF00BF2889B84201DA00BF9C
:103A000000BF284601F032F90020DDE7394628469C
:103A100001F082FA30698E490860F0688D490860CB
:103A20004FF0010A444600BF00BF00BF94F82900D0
:103A300000F0010088B1201D78B1606868B1844849
:103A400000686168884205D081490868214600F015
:103A500009F910B100BF00BF0DE0BAF1000F04D0AA
:103A60004FF0000A7848046800E02468444500D11B
:103A70002468002CD8D100BF76490868414600F080
:103A8000F1F828B97348007800F0F000E02806D17A
:103A900000BF00BF284601F0E9F8002094E734B9E0
:103AA00000BF00BF284601F0E1F800208CE7F08855
:103AB0004FF63F71084048B100BF00BF284600F0F4
:103AC000C0FB05460DB900207EE76E6800BF00BF51
:103AD00000BF00BF6048C0F80080604806604146F3
:103AE000284601F081FCF8B9707A012804D14146DA
:103AF0002846FFF7FFFC16E055490868414600F0EC
:103B0000B1F850B95248007800F0F000E02804D035
:103B10006E6002212846FFF7EFFD284601F0A6F867
:103B200000BF00BF00BF00BF00204B4908604B49E9
:103B30000860484908604649086000BF44E72DE92D
:103B4000F84F05460F4690469A46DDF828B00C9E81
:103B500000BF00BFB8F1000F3DD04FF01409142191
:103B6000284601F015FA28B100BF00BF6FF0010030
:103B7000BDE8F88F6C6800BF00BF84F808A00B9800
:103B80006072D8F80000206148464FEAE97109EBFD
:103B90009171C1F3870141F04001217084F801B0B7
:103BA000288900F017FD60800020E0802C48008804
:103BB00000F010FDA0802A480088401C2849088099
:103BC0000FB1386810B97068E06001E03868E060F3
:103BD0000020608103E06C6820690090E84600BF27
:103BE00000BF308C48B12889318C884205DD4246BF
:103BF0003146284600F016FCBAE700BF00BF424637
:103C00002946304673699847B2E72DE9FE4F0646CC
:103C10000F4615469846DDE90C9A00BF00BF2846BE
:103C2000FFF79AFE040004D100BF00BF001FBDE8EB
:103C3000FE8F43462A4639463046CDE9009A029423
:103C4000FFF77DFFF3E70000680000206C00002014
:103C5000300000202C00002024000020280000203C
:103C60003400002018B502460092D04300B10AB9D2
:103C7000012018BD91F8290000F0020008B90020C9
:103C8000F7E74868904201D10020F2E700988B687E
:103C90001840D1E901342340984208D1886822EACB
:103CA00000008C68E343984201D10120E1E7002045
:103CB000DFE770B50646304600F098FC05464FF049
:103CC000004404E005EA040000B902E06408002CA6
:103CD000F8D100BF05E005EA040008B1002070BD7E
:103CE0006408002CF7D10120F9E72DE9FF470646CB
:103CF00088466F46347800BF302C01DB392C03DD59
:103D0000002004B0BDE8F08700254FF00A09302CF0
:103D10000ED1701C06460478782C01D0582C05D1A1
:103D20004FF01009701C0646047801E04FF00809B6
:103D300000BF302C09DB392C07DCA4F1300005FB77
:103D40000905701C06460478F3E7B9F1100F1BD182
:103D5000302C01DB392C07DD612C01DB662C03DD07
:103D6000412C11DB462C0FDC612C03DB7A2C01DCAF
:103D7000612100E0412104F10A00401A40EA0515E2
:103D8000701C06460478D4E700BF00BF2E2C09D172
:103D900003A8874201D30020B3E720C7701C064662
:103DA0000478A9E700BF00BF6CB1202C0BD00C2C0D
:103DB00009D00A2C07D00D2C05D0092C03D00B2CD0
:103DC00001D000209DE76846381A012101EBA000D0
:103DD00005282AD2DFE800F00305060F1B000020AB
:103DE0008FE725E0B5F1807F01D3002089E70098B7
:103DF00045EA00651CE0B5F5803F01D3002080E76F
:103E000000980006019940EA0140054310E0FF2DAB
:103E100001D9002075E700980006019940EA0140A9
:103E2000029940EA0120054302E000BF00BF00BF45
:103E300000BFB8F1000F04D0284600F0D7FBC8F847
:103E4000000001205DE738B5044669462046FFF7CB
:103E50004CFF08B1009838BD4FF0FF30FBE72DE96B
:103E6000FC4706460B4614464FF0000C30680190A4
:103E7000194601AA00273CE0002500BF10784FF04A
:103E80000A0990FBF9FA09FB1A0000F0FF08107804
:103E900090FBF9F0107008F1300000F0FF0A28469E
:103EA00005F1010909F0FF050DF800A010780028C0
:103EB000E4D10BE060460CF1010CA04202DB0020D3
:103EC000BDE8FC871DF8050001F8010B2800A5F1ED
:103ED000010909F0FF05EDD160460CF1010CA0428B
:103EE00001DB0020ECE72E2001F8010B521C781CAE
:103EF000C7B2042FC0DB4FF00009481E014680F80E
:103F000000901846DCE710B504461022024920460E
:103F1000FFF7A5FF10BD0000F401002070B50446B6
:103F20000D46FE480068A04203D1FC4920680860A5
:103F300003E000BF00BF206828602146012000F098
:103F40005EFD70BD2DE9F04704468946002600BF9E
:103F500000BFB9F1000F01D000BF00BF6068D0F80A
:103F60000480B8F80400C0B96568D8F80000606043
:103F7000142204F1080168681BF047F80121284663
:103F8000FFF7C3FB284601F046F8074600BF00BF15
:103F9000F01986B2284600F069FE656810E0D5F891
:103FA0000480AA46D8F80050504601F034F807467D
:103FB00000BF00BFF01986B2504600F057FE00BFA8
:103FC000002DECD149462046FFF7A8FF00BF00BFF7
:103FD000D3480088801BD24908803046BDE8F0876E
:103FE00070B50026CD48046813E0E07F002807DDA7
:103FF000E07F401EE07700BF00BF2646246808E04F
:1040000000BF00BF2546246831462846FFF79AFFC7
:1040100000BF002CE9D170BD2DE9F05F054689464F
:10402000002700BF0026B346B246BC4804681DE026
:104030006069E968884207D1A0692969884203D18B
:10404000A089A988884201D0012000E0002048B161
:104050000AF1010A0EB9264604E0E07FF17F8842AA
:1040600000DC2646206800B1A3462468002CDFD17E
:104070002EB159463046FFF765FF804647444F450D
:1040800002DABAF1010FCDDC3846BDE8F09F70B519
:1040900005460E46012000F09CFC044674B93146EA
:1040A0002846FFF7B9FFB04203DB012000F091FC86
:1040B00004461CB900BF00BF002070BD202120466F
:1040C0001BF03CF80320E077944800682060934898
:1040D00004601422294604F108001AF096FF2046D5
:1040E000EBE72DE9FC5F81460E4600254FF0010B02
:1040F000D6F804A0BAF8020000F072FA9AF800109C
:1041000001F00F01A0EB810080B20090BAF8060028
:1041100000F066FAC0F30C004FF6FF7101EAC00030
:10412000019000BF00BF7468002020600198A0804B
:10413000DDE900100844E080D9F804802AE0D8F8CE
:104140000470A088B988884210DAC4F8008055B19C
:10415000A088E988884203DBE088B988884200DDCE
:1041600062E02E6001E0C9F8046016E0A088B9881A
:10417000884200D158E0A088F988884200DA53E0EC
:104180002DB1E888B988884201D04FF0000BD7F8EC
:1041900000803D46B8F1000FD1D100BFB8F1000F4B
:1041A0000ED14DB100BF00BF2E60E888A1888842C3
:1041B00006D04FF0000B03E000BF00BFC9F8046059
:1041C00099F81E0000F0010060B3BBF1000F26D08B
:1041D000D9F804004068808810B14FF0000B1EE051
:1041E0002546D4F800800BE0D8F80440E888A18880
:1041F000884202D04FF0000B05E02546D4F800803D
:10420000B8F1000FF0D100BFBBF1000F07D000BF25
:1042100000BF00BF00BF00BF00BF00BF00BF5846C7
:10422000BDE8FC9F0020FBE7304600F0F4FE3C496F
:104230000988081A3A490880304600F017FD002026
:10424000EEE72DE9F84F804600200090D8F80450A2
:10425000287800F00F001421B1EB800F02D000BFCE
:1042600000BFBAE0E88800F0BBF9C0F30C004FF6DD
:10427000FF7101EAC00A688800F0B2F9297801F0FC
:104280000F01A0EB81001FFA80FB404600F0C3FE47
:1042900006462348018888190A280CDD314628463D
:1042A000FFF7BAFE20B11E48008830440A2802DD1C
:1042B00000BF00BF91E01948046814E06069E96834
:1042C000884209D1A0692969884205D1A089A988B5
:1042D000884201D1012000E0002010B100BF00BFE2
:1042E00003E000942468002CE8D100BF34B93146C3
:1042F0002846FFF7CCFE0446C4B96EE0E88800F01B
:104300006FF9C0F30C0088B9E08900F069F9C0F3D7
:104310000C0058B11422294604E0000038000020A7
:104320003C00002004F108001AF06FFEA748008846
:104330003044A6490880A87900F0200040B9A07F49
:1043400040F00100A0770AEB0B00A08300BF00BF84
:1043500041462046FFF7C5FED0B3A08B1430A083A2
:1043600060684068076860684568142204F10801C5
:1043700028461AF04AFEA08B00F02CF96880002035
:10438000E880688114212846FFF7B0FA6881D4F8E4
:1043900004800CE0D7F804906FF01301384600F069
:1043A000F7FD3946404600F044FED9F80070002F72
:1043B000F0D120460099FFF7B1FD404600F02BFEFA
:1043C00082490988081A814908804046BDE8F88F6B
:1043D000FFE700BF00BF0020F8E700BF00BF404676
:1043E00000F044FC0020F1E710B5022000F0F1FAE3
:1043F00010BD10B5044600BF00BF2146022000F0EA
:10440000FEFA10BD70B505462C4600BF00BF00BFC8
:1044100000BF606910B1606900F028FC2046FFF71A
:10442000E8FF70BD2DE9F74F8CB004468946B9F816
:1044300020000890142004904FF0000860680B9052
:104440000B9EF08800F0CCF803900398C0F30C00AA
:104450000790039800F4005006902089143880B229
:1044600009900899A1F11400C11700EB5171C1F333
:10447000CF010A91A4E0089814380999884201DB19
:10448000012000E0002005900798C0F30C00069979
:1044900008430390059818B9039840F4005003901E
:1044A000059808B1099801E00A98C0001FFA80FB3E
:1044B00000221421022000F024FC054625B94FF00B
:1044C000FF300FB0BDE8F08F00BF00BF1422686856
:1044D0000B991AF09AFD6E68616804980844606050
:1044E00061890498081A6081CDF808B03FE06189BD
:1044F0000298814201DD029800E060898046B8F1AF
:10450000000F01D1246832E0FFF76EFF07462FB994
:10451000284600F0ABFB4FF0FF30D2E760683B4627
:1045200002224146CDE90008032000F0BBFC824690
:10453000BAF1000F08D13846FFF75BFF284600F0BC
:1045400095FB4FF0FF30BCE7204600F06DFD7C612D
:104550001F4838615146284600F06BFD0298A0EBD9
:10456000080080B20290029800B1246800BF02984F
:104570000028BCD1CDF81080039800F02BF8F08013
:104580000BF1140188B200F025F8708000207081D2
:1045900014213046FFF7AAF97081D9F81430294662
:1045A00048460E9A9847284600F060FB0998A0EB11
:1045B0000B0080B209900A990798084480B20790CE
:1045C000099800287FF457AF00BF7AE73C0000202D
:1045D0000544000801460806000C40EA1120704717
:1045E00000B502461046FFF7F5FF00BD014608067C
:1045F00001F47F4240EA022001F47F0240EA1220E7
:1046000040EA1160704700B503461846FFF7EEFF19
:1046100000BD10B500F044F800F0B0F900F006FA63
:1046200010BD000030B500BF00BF00BF00BF00BF1D
:1046300000BF00BF00BF0388CA4C24681919884214
:1046400015D00B799BB9C84B1B6899420FD0C74B4B
:104650001B688B4201D1C54B18600B880380C14B8E
:104660001B88C31A0C88BF4D2D682C446380438877
:10467000BC4C24681A19824211D013797BB9BB4B08
:104680001B68834201D1B94B1A6003881380B54B74
:104690001B88D31A0488B34D2D682C44638030BD29
:1046A00000BF00BFB2490968C91C21F00301AD4A2F
:1046B0001160114608684FF42051018000214180AB
:1046C00001711146096801F52051A74A11600121C5
:1046D000126811714FF42051A34A12681180A24A46
:1046E000126851809F490968A04A1160704770B5EF
:1046F000054615B900BF00BF70BD00BF00BF00BFB9
:1047000000BF98480068854203D3974800688542F7
:1047100002D300BF00BFEFE7A5F1080400BF00BF50
:104720000020207191480068844201D28F480460C3
:104730002046FFF777FF00BFDEE72DE9F041064690
:104740000A46D01C20F0030082B20C2A00DA0C22A8
:10475000B2F5205F02DD0020BDE8F08100BF00BFA0
:1047600080480068864203D37F480068864203D3AE
:1047700000BF00BF3046EFE7A6F108047948008883
:10478000201A85B22088401B083887B200BF00BFBE
:10479000BA4201DD0020DFE7BA4201D13046DBE753
:1047A0002088DFF8C0C1DCF800C000EB0C010879FC
:1047B00080BB088805F1080C94441FFA8CF3DFF8DD
:1047C000ACC1DCF800C08C4508D1DFF898C1DCF83A
:1047D00000C09C44DFF89481C8F800C0DFF884C1B1
:1047E000DCF800C00CEB03014FF0000C81F804C0B2
:1047F00008804D802380B1F800C0BCF5205F08D050
:10480000B1F800C0DFF85C81D8F80080C444ACF88F
:10481000023022E0FFE702F11400B8421DD805F192
:104820000800104483B24F480068C1184F48006820
:10483000814201D24D480160002008712088088023
:104840004D8023800888B0F5205F06D00888DFF807
:1048500014C1DCF800C06044438030467CE7F0B50A
:1048600002460AB90020F0BDD01C20F0030082B23D
:104870000C2A00DA0C22B2F5205F01DD0020F2E7FD
:104880003A480088374E3688801B83B250E035485E
:104890000068C1180879002847D10E8803F1080084
:1048A000301A904241D30E8803F10800361A02F103
:1048B0001400864218D303F10800104485B2294839
:1048C00000684419002020710888208063800D80D2
:1048D000012008712088B0F5205F07D02088214E84
:1048E00036683044458001E0012008711F480068A7
:1048F000814211D11D4E306803E00688194F3F6890
:10490000F01906791EB1184E3668B042F5D1174E2F
:10491000306000BF00BF00BF00BF00BF00BF00BFCE
:1049200000BF00BF01F108009DE70E480068C35AB0
:10493000C2F520509842AADC00BF00BF002092E7D9
:1049400070B504460D4604FB05F188B2FFF787FFFA
:10495000064626B104FB05F130461AF0CDFB304681
:1049600070BD000044000020480000204C000020E2
:1049700040000020002041F6DB30704710B50020D9
:1049800001E0431C98B20528FBDB244B1B68DB1CB1
:1049900023F00301002019E00023214C44F82030CB
:1049A00000220CE01E4B53F820300B601C4B43F8E8
:1049B00020101C4B33F810301944531C9AB21A4B78
:1049C00033F810309342EDDC431C98B20528E3DB4A
:1049D00010BD024600BF052A01DB0020704700BF62
:1049E0000F4850F8221031B10D4B086843F82200EF
:1049F00000BF00BF01E000BF00BF0846EEE701B9FD
:104A0000704700BF00BF0A46054B53F820301360C3
:104A1000034B43F8202000BFF2E7000064000020B1
:104A20000402002042F301084CF30108704709B961
:104A3000002200E00A68C26000BF00BF704709B9E9
:104A4000002200E00A68826000BF00BF704709B919
:104A5000002200E00A68426000BF00BF704770B5E6
:104A600005460E46144631462846FFF7F0FF21461C
:104A70002846FFF7E4FF19462846FFF7D8FF70BD28
:104A80002DE9F04704460D4616461F46DDE909A903
:104A9000DDF8208000BF00BF00206060A060E06003
:104AA00084F82900C4F81C806D48007884F82C0034
:104AB0006B480078401C6A490870C4F810903B4667
:104AC000324629462046FFF7CAFF2046D04710B19C
:104AD0000020BDE8F08763480068206061480460FA
:104AE00000BF00BF00BF00BF00BF00BF00BF00BFCE
:104AF00000BF00BF00BF00BF00BF00BF2046E8E707
:104B00005949086000BF00BF704710B5044694F8CB
:104B1000290000F0010060B114F8290F20F0010015
:104B2000207014F8290900F0200010B1204600F090
:104B3000F3FE10BD10B5044604B910BD94F8290069
:104B400000F0010010B12046FFF7DFFF4548006884
:104B5000A04203D14349206808600FE0414908683A
:104B600006E00168A14202D12168016002E000680C
:104B70000028F6D100BF00B9DFE700BF3A4800685F
:104B8000A04202D10020FFF7BBFF00BF00BF00BF63
:104B9000D3E710B502460AB9002010BD907830382E
:104BA000C3B23048016812E091F82C0098420DD150
:104BB000107891F82A40A04208D154782B20405C0C
:104BC000844203D100BF00BF0846E6E70968002918
:104BD000EAD100BF00BF0020DFE710B5044694F81B
:104BE000290000F0010090B914F8290F40F00100ED
:104BF000207014F8290900F0100040B194F8290041
:104C000000F0200018B1211D204600F0C4FF10BDA7
:104C100010B5044694F8290000F0100090B914F87B
:104C2000290F40F01000207014F8290900F001004D
:104C300040B194F8290000F0200018B1211D204651
:104C400000F0A9FF10BD90F8291001F0100129B162
:104C500090F8291021F0100180F829107047000009
:104C600070000020680000206C0000202DE9F04753
:104C7000044634B900BF00BF00BF00BF0020BDE83C
:104C8000F08700BF00BF00BF00BF002635E000BFB7
:104C900000BFE089401E1FFA80F8A4F80E80B8F12A
:104CA000000F26D1276800BF00BF257B607B00F086
:104CB000020038B1A14600BF00BF2046D9F810104D
:104CC000884712E0032D04D121460420FFF797FE08
:104CD0000BE0012D01D0022D04D121460320FFF766
:104CE0008EFE02E02046FFF702FD701CC6B23C4675
:104CF00002E000BF00BF002400BF002CC7D1304637
:104D0000BDE72DE9F05F83460F46904600BF00BF28
:104D1000BBF1000F09D0BBF1010F08D0BBF1020FAE
:104D200007D0BBF1030F08D105E036260AE02226A2
:104D300008E00E2606E0002604E000BF00BF0020C9
:104D4000BDE8F09F00BFB8F1000F6AD0B8F1010FC5
:104D500076D0B8F1020F74D0B8F1030F72D10420ED
:104D6000FFF737FE044600BF00BF0CB90020E7E79D
:104D700084F80C800020206006F110002044C01C44
:104D800020F00300606000BF00BF2781F01C20F00E
:104D90000300C0F50070B84201DD384604E0F01CA5
:104DA00020F00300C0F50070608100BF00BF00BFAD
:104DB00000BF0120E081A2466089A7EB00092CE03A
:104DC0000420FFF706FE054625B92046FFF74EFFF3
:104DD0000020B5E785F80C80002068732860CAF8C9
:104DE000005000BF00BFA5F808901FFA89F0B0F589
:104DF000007F02DA1FFA89F001E04FF40070688149
:104E000005F11000686000BF00BF00BF00BF0120B7
:104E1000E8816889A9EB0009AA46B9F1000FCFDC47
:104E200037E006F1130121F00302F91C21F0030120
:104E3000114488B2FFF713FD044624B900207FE730
:104E400011E011E021E004F110003044C01C20F01A
:104E500003006060278167810020206084F80C8057
:104E600000BF00BF15E000BF0320FFF7B2FD0446FE
:104E70001CB900BF00BF002062E7002060602781EE
:104E80006781206084F80C8003E000BF00BF002031
:104E900056E700BF0120E0810020607300BF00BF23
:104EA00020464DE7F0B505460C46DDE9056700BF35
:104EB00000BF35B1012D06D0022D06D0032D08D13B
:104EC00005E0362109E0222107E00E2105E000215E
:104ED00003E000BF00BF0020F0BD00BFC81C20F0F1
:104EE00003002044B84203DD00BF00BF0020F3E709
:104EF000002018602EB1C81C20F003003044586018
:104F000001E000205860022058731C815C811A73F4
:104F10000120D8811846DFE72DE9F04106460F460B
:104F200000BF00BF00BF00BF3089B84201DCBDE850
:104F3000F0813089A7EB00083D4634460AE06089DD
:104F4000281A85B200BF00BF208940442081246810
:104F500000BF00BF6089A842F1DB207B60B9608997
:104F6000A84209D0A088001B284481B22046FFF740
:104F7000E4FB044600BF00BF658160892081206892
:104F800010B12068FFF772FE0020206000BFCEE75E
:104F900070B5024600BF00BF01B10AB9002070BD64
:104FA000002908DA484284B200BF5089A04201DAE1
:104FB0000120F4E700E08CB2137B55680BB1032BA2
:104FC0000CD15068401A506002F1100056688642B9
:104FD00017D200BF00BF55600120E0E7022B01D0CF
:104FE000012B0AD1002906DA5089A04203DB506860
:104FF000401A506005E00120D1E700BF00BF01204A
:10500000CDE750890844508110890844108100BFC1
:1050100000BF0020C3E70146002002E0421CD0B2DE
:1050200009680029FAD1704710B1C189491CC181B2
:10503000704710B5024600BF02B101B910BD00BFF4
:10504000104604E003890C89234403810068036847
:10505000002BF7D100BF00BF00BF00BF03890C8940
:1050600023440381016000BFE8E730B505460C46E4
:1050700021462846FFF7DDFF2046FFF7D5FF00BF9A
:1050800000BF30BD70B50446012625689DB100BF44
:1050900000BF20896189401A288100202060608932
:1050A000208100BF00BF2846FFF7E0FD0646002E26
:1050B00001DD00BF00BF00BF00BF002E01DD0020EA
:1050C00070BD2846FCE72DE9F04105460C46002658
:1050D000002700BF00BF00BF25B11CB1288921896E
:1050E000884203DA6FF00D00BDE8F08100BF00BF19
:1050F0006889801B6189C91B884204DB6089C01BE9
:105100001FFA80F803E06889801B1FFA80F8626844
:10511000D1196A689019424619F077FF06EB08002A
:1051200086B207EB080087B200BF00BF00BF00BF18
:105130006089B84201DC002724686889B04208D140
:1051400000262D6800BF1DB914B16FF00D00CBE72C
:1051500000BF54B160892189884206D100BF206810
:1051600010B16FF00500BFE700BF55B1688929890C
:10517000884206D100BF286810B16FF00500B3E780
:1051800000BF002CB4D100BF00BF0020ACE72DE968
:10519000F05F8046894616461D464FF0000B00BF63
:1051A000B8F1000F02D10020BDE8F09F00BF00BFA2
:1051B000B9F1000F01D10020F6E700BF4FF0000A5F
:1051C000B8F1000F02D0B9F1000F01D10020EBE7D8
:1051D000444620E035B16089A84203DC6089281A82
:1051E00085B217E06089401B87B2B74200DD3746C1
:1051F0006268511909EB0A003A4619F006FF0BEBF9
:1052000007001FFA80FB0AEB07001FFA80FAF01B69
:1052100086B2002524680EB1002CDBD15846C3E7C6
:105220002DE9F04704460E469146C8464FF0000A65
:1052300000BF14B90020BDE8F08700BF00BF0EB961
:105240000020F8E700BF1CB116B12089484502DAFA
:105250006FF00D00EFE7254615E000BF00BF4746A1
:105260006889B84200DA6F8906EB0A013A46686835
:1052700019F0CBFEA8EB07001FFA80F80AEB070035
:105280001FFA80FA2D68B8F1000FE6D100BF00BF09
:105290000020D0E72DE9F04104460E46206810B901
:1052A0002046BDE8F081218900223046FFF729FD24
:1052B00005460DB92046F4E721462846FFF703FFCF
:1052C000074600BF00BF2046FFF7D0FC2846E8E7AE
:1052D00010B503460C462246194603E04889101AC9
:1052E00082B2096811B148899042F7DD29B1488935
:1052F000904202DD4868805C10BD0020FCE72DE98B
:10530000F84F0746884691469A4646463C4603E093
:105310006089301A86B2246814B16089B042F7DD22
:10532000D4B16089B04217DD002511E0701981B257
:105330002046FFF7CDFF834619F80500009000983E
:10534000834503D0681C80B2BDE8F88F681C85B225
:105350005545EBDB0020F7E74FF6FF70F4E72DE94A
:10536000F0470646884615461F463089401B1FFAFF
:1053700080FA3089E919884214DB3C4610E02B465C
:10538000424621463046FFF7BAFF8146B9F1000F89
:1053900002D12046BDE8F08704EB090084B200BFCB
:1053A0005445ECDD4FF6FF70F4E770B506460C4649
:1053B00034B1207820B130894FF6FF71884202D194
:1053C0004FF6FF7070BD204619F000FE05464FF6FF
:1053D000FF70854200D3F5E7AAB20023214630468C
:1053E000FFF7BDFFEEE700002DE9F04705468A46CE
:1053F0000027D5F8048098F80990002667480468CB
:105400001FE0207C48451AD134B1206820B164499E
:1054100020680968884212D1606980B1614B2A46D0
:105420002146D4E905C0E04748B10025012736B13F
:10543000E068F06059480068E0605848046026461B
:10544000E4680FB9002CDCD13846BDE8F08702468D
:1054500009B9002000E0086810600020704702468B
:1054600009B9002000E008685060002070474161E1
:10547000826170472DE9FE4F04460D46914600BFFC
:1054800000BF14212846FFF783FDA0B1002211467A
:105490000120FFF736FC06462EB900BF00BF4FF0D3
:1054A000FF30BDE8FE8F288918B129463046FFF746
:1054B000DCFD00BF0BE02E466FF013013046FFF716
:1054C00067FD20B100BF00BF4FF0FF30E9E748465D
:1054D000FEF742FA070009D100BF00BFAE4202D07A
:1054E0003046FFF7C3FB6FF00300DAE70CB120682A
:1054F00010B907F1040800E0A046207C617ACDE9EC
:1055000001070091A37A4A4641463046FEF717FB51
:105510008246AE4202D03046FFF7A8FB5046C0E7B5
:1055200070B504460D46221D29462046FFF7A2FF0E
:1055300070BD70B5054619480068A84205D11748E6
:105540000068C068154908600CE01448046807E06A
:10555000E06820B1E068A84201D1E868E060E46852
:10556000002CF5D129460020FFF749FA70BD70B52F
:10557000054600BF00BF0020FFF72BFA04465CB1D0
:105580001C21204619F0DAFD2574FF20A072034883
:105590000068E06001480460204670BD740000208F
:1055A000300000202C00002010B5044604EB8400DD
:1055B000F94951F8200070B100BF00BF04EB84012D
:1055C000F54A52F82100FFF751FB002004EB84015B
:1055D000F14A42F82100002004EB8401EE4A02EB7C
:1055E0008101887404EB840102EB8101C87404EB2F
:1055F000840102EB8101886004EB840102EB8101EC
:10560000486004EB8400114601EB8000E3490A681E
:10561000C2608988018210BD70B500BF00BF002440
:105620003FE004EB8400DC4901EB8000857C35B36E
:1056300004EB840001EB8000C07C401C04EB84017F
:10564000D54A02EB8101C87404EB8400114601EBDA
:105650008000C07CF0280DDA04EB840001EB8000B0
:10566000807C01280CD104EB840001EB8000C07C1D
:10567000022805DB00BF00BF2046FFF795FF0EE0C4
:1056800004EB8400C44901EB8000807C032806D130
:10569000022004EB8401C04A02EB81018874601C83
:1056A000C4B20A2CBDDB70BD2DE9FC5F05460F4678
:1056B0004FF00A08C1460A260024A34600200190A4
:1056C000B246009000BF60E004EB8400B24A02EBF7
:1056D0008000817C0A2E04D119B900BF00BF66B2D8
:1056E00051E000294FD000BF00BF6DB104EB840230
:1056F000A94B03EB820228685268904204D100BF94
:1057000000BF60B2BDE8FC9F012928D104EB8400F2
:10571000A14A52F8200088B104EB840002EB80001B
:10572000C27C009882422EDB4FFA84FA04EB84009C
:10573000994A02EB8000C07C009024E004EB8400D6
:10574000954A02EB8000C07C58451CDB4FFA84F878
:1057500004EB840002EB800090F813B013E0022900
:1057600011DB04EB84008C4A02EB8000C27C0198C0
:10577000824208DB4FFA84F904EB8400864A02EB8C
:105780008000C07C0190601CC4B20A2C9CDB07F036
:10579000020020B90A2E07D107F0010020B900BF8E
:1057A00000BF4FF0FF30ADE70A2E02DAF4B200BFBF
:1057B00020E0B9F10A0F05DA09F0FF0400BF00BFCD
:1057C00000BF12E0B8F10A0F03DA08F0FF0400BFCF
:1057D0000BE0BAF10A0F03DA0AF0FF0400BF04E09D
:1057E00000BF00BF4FF0FF308CE700BF00BF204676
:1057F000FFF7DAFE00BF00BF00BF00BF35B104EB0A
:105800008401654A02EB810128684860002004EBAE
:105810008401614A02EB8101C87460B272E72DE92C
:10582000F04105460E4617469846746800BF00BF13
:10583000D8F800002060B8F80400A0803868C4F8E8
:105840000600B88860810820A08100BF00BF3146F3
:105850002846AA699047BDE8F0812DE9F047064641
:105860000D461746984600BF00BF00BF00BF5DB1A0
:10587000286848B131462868FEF7F4F920B928783D
:1058800000F0F000E02805D100BF00BF6FF00D0070
:10589000BDE8F08741462846FFF706FF0446002C86
:1058A00001DA2046F4E7022004EB84013A4A02EBD5
:1058B0008101887404EB8400114601EB800086604E
:1058C00000BF00BF04EB840001EB80003968C160B9
:1058D000B9880182002004EB840102EB8101C874C5
:1058E00004EB8400114651F8200098B104EB8400C9
:1058F00051F82090002004EB840142F821003B463F
:1059000006F1230249463046FFF789FF4846FFF774
:10591000ADF900BF0020BBE770B50546002412E0DA
:1059200004EB84001C4901EB8000867C4EB104EB43
:10593000840001EB80008068A84202D12046FFF776
:1059400033FE601CC4B20A2CEADB70BD2DE9F041C5
:1059500080460D4616461F4600BF00BF022128465E
:10596000FFF7A2FE0446002C1ADB04EB84000A4970
:1059700001EB8000807C022812DB04EB840001EB49
:1059800080000C30306004EB840001EB8000001DCF
:1059900038602046BDE8F081180200205CF3010861
:1059A0004FF0FF30F6E72DE9FC47054688461646DE
:1059B00000BF0DB9BDE8FC8700BF70892A2805DA51
:1059C00000BF00BF3046FFF751F9F3E7776807F1F2
:1059D0000E042088B0F5807F08D12079062805D1F3
:1059E0006079042802D16088082805D000BF00BF74
:1059F0003046FFF73BF9DDE7D4F80E000190A069CF
:105A00000090281D08B1686810B94FF0000907E040
:105A100000986968884201D1012000E00020814699
:105A2000B9F1000F01D0012000E00220034604F18B
:105A3000080201A92846FFF710FFE088B0F5807F33
:105A400003D0B0F5007F3AD136E000BF00BFB9F116
:105A5000000F28D000BF00BF0220FEF7BBFDE08092
:105A6000D4F80E00A0616868C4F80E0000BF00BF43
:105A7000A068C4F81200A089E082A0683860A089FC
:105A8000B880D8F80000A060B8F80400A081D8F869
:105A90000000C7F80600B8F80400788131462846AF
:105AA000AA69904707E0281D08B1686808B900BFD7
:105AB00001E000BF00BF05E000BF00BF02E000BF83
:105AC00000BF00BF00BF3046FFF7D0F800BF71E74E
:105AD0002DE9F84F0746884691469A46DDF828B0EA
