:020000040800F2
:1000000018810120B9020008D5290008D729000865
:10001000DB290008DF290008E329000800000000B0
:10002000000000000000000000000000E7290008B8
:10003000E929000800000000EB290008ED2900086C
:10004000D3020008D3020008D3020008D30200083C
:10005000D3020008D3020008D3020008D30200082C
:10006000D3020008D3020008D3020008D30200081C
:10007000D3020008D3020008D3020008D30200080C
:10008000D3020008D3020008D3020008D3020008FC
:10009000D3020008D3020008D3020008D3020008EC
:1000A000D3020008D3020008D3020008D3020008DC
:1000B000D3020008D3020008D3020008D3020008CC
:1000C000D3020008D3020008D3020008D3020008BC
:1000D000D3020008D3020008D3020008292D00082B
:1000E000D3020008D3020008D3020008D30200089C
:1000F000D3020008D3020008D3020008D30200088C
:10010000D3020008D3020008D3020008D30200087B
:10011000D3020008D3020008D3020008D30200086B
:10012000D3020008D3020008D3020008D30200085B
:10013000D3020008D3020008D3020008D30200084B
:10014000D3020008D3020008D3020008D30200083B
:10015000D3020008D3020008D3020008D30200082B
:10016000D3020008D3020008D3020008D30200081B
:10017000D3020008D3020008D3020008D30200080B
:10018000D3020008D302000800F002F800F085F85E
:100190000AA090E8000C82448344AAF10107DA45E2
:1001A00001D100F07AF8AFF2090EBAE80F0013F0AF
:1001B000010F18BFFB1A43F001031847D092030048
:1001C000F092030010F8013B0A4413F0030408BF47
:1001D00010F8014B1D1108BF10F8015B641E05D01B
:1001E00010F8016B641E01F8016BF9D1002D15D0D8
:1001F00010F8014B03F00C030C2BA1EB04040ABF15
:1002000010F8013BA4EB8314A4EB032405F10103D4
:1002100014F8016B5B1E01F8016BF9D5914238BFF0
:1002200010F8013BD1D3704700230024002500269D
:10023000103A28BF78C1FBD8520728BF30C148BF49
:100240000B607047702934F0C28703681B0A28BF0F
:1002500041F08001692934F03F87642934F03C87FC
:10026000782934F0A087F82934F0AB87632935F07A
:10027000BF81732935F0C481002070471FB535F068
:10028000B7FC35F053FC04000020002135F09AFC47
:10029000401C60601FBD10B510BD35F029FA114635
:1002A000FFF7ECFF02F0D0FA35F02EFC03B4FFF7B5
:1002B000F2FF03BC02F0A6FC09488047094800474A
:1002C000FEE7FEE7FEE7FEE7FEE7FEE7FEE7FEE706
:1002D000FEE7FEE704480549054A064B7047000063
:1002E000D12A000889010008187B0120188101200B
:1002F000187D0120187D012032490143324A1160E6
:10030000704770B5002100230F22C4781CB32E4C17
:10031000246804F4E064C4F5E064C4F30721C1F187
:100320000404E3B20A4144789C40E1B2847814406A
:1003300021430C07210E254C05786155047804F003
:100340001F050124AC4005786D11AD0005F1E025D5
:10035000C5F8004109E0047804F01F050124AC4011
:100360001B4D0678761145F8264070BD194A0A40A3
:100370000243154B1B1F1A60704739B1124A121DF8
:1003800012680243104B1B1D1A6006E00E4A121D34
:10039000126882430C4B1B1D1A607047042808D159
:1003A0004FF0E021096941F004014FF0E0221161B2
:1003B00007E04FF0E021096921F004014FF0E0224D
:1003C000116170470000FA050CED00E000E400E068
:1003D00080E100E080FFFF1F10B50446984884428A
:1003E00008D10121084600F086FB0021012000F021
:1003F00082FB76E09348844208D10121022000F07C
:100400007AFB0021022000F076FB6AE08E488442ED
:1004100008D10121042000F06EFB0021042000F02F
:100420006AFB5EE08948844208D10121082000F07F
:1004300062FB0021082000F05EFB52E08448844209
:1004400008D10121102000F056FB0021102000F0FF
:1004500052FB46E07F48844208D10121202000F071
:100460004AFB0021202000F046FB3AE07A48844213
:1004700008D10121402000F03EFB0021402000F087
:100480003AFB2EE07548844208D10121802000F01B
:1004900032FB0021802000F02EFB22E070488442D5
:1004A00008D10121801500F026FB0021A01500F0E5
:1004B00022FB16E06B48844208D10121401500F070
:1004C0001AFB0021601500F016FB0AE06648844222
:1004D00007D10121001500F00EFB0021201500F0CE
:1004E0000AFB10BDF0B50A4600210023002400BF1E
:1004F0003DE0012505FA01F3156805EA03049C4275
:1005000034D105684F000326BE40B5430560157918
:100510004E00B5400668354305601579012D02D0BF
:100520001579022D16D185684F000326BE40B543CC
:10053000856055794E00B5408668354385604568CD
:1005400001268E40B5434560456896798E40B6B227
:1005500035434560C5684F000326BE40B543C560BE
:10056000D5794E00B540C6683543C560491C102991
:10057000BFD3F0BD4FF6FF710160002101714171E1
:100580008171C171704708B54FF480320092009AB2
:100590000A430092009AC261C161009AC261C269B5
:1005A0000092C269009208BD0246002013690B4008
:1005B0000BB1012000E0002070470146086980B2BD
:1005C00070470246002053690B400BB1012000E048
:1005D000002070470146486980B270470183704728
:1005E000418370470AB1018300E041837047416154
:1005F000704742694A4042617047F0B500230024C9
:100600004D07ED0E02FA05F3CE1000F1200555F866
:1006100026504E07F70E0F26BE40B543CF1000F10F
:10062000200646F82750CE1000F1200555F8265038
:1006300045EA0304CE1000F1200545F82640F0BD40
:10064000000002400004024000080240000C02408A
:10065000001002400014024000180240001C02403A
:10066000002002400024024000280240F9480068AF
:1006700040F00100F74908600020F64908310860A1
:10068000F4480068F4490840F2490860F348091D3D
:100690000860F348EF4984310860F0481038091DBC
:1006A0000860EC48006820F48020EA4908600020D7
:1006B000E8490C310860E7498C3108607047002137
:1006C000E44A921C117011460870704710B501463B
:1006D0000022002300204A11012A02D1DD4C2368A8
:1006E00008E0022A03D1DB4C7034236802E0D94CC5
:1006F0007434236801F01F02012494401C400CB1A3
:10070000012000E0002010BD38B50020009000243A
:10071000002500BF3120FFF7D9FF05460098401C97
:1007200000900098B0F5A04F01D0002DF2D03120FC
:10073000FFF7CCFF08B1012400E00024204638BDBB
:1007400001460020C34A106820F0F80040EAC100CA
:1007500010607047C349086070470021BD4A70327D
:1007600011701170012802D004280AD104E001217F
:10077000B84A7032117005E00521B64A7032117026
:1007800000E000BF00BF7047B7490860704770B510
:10079000049C41EA82150126C6EB530645EA06454C
:1007A000054345EA0465AB4E361D356070BDAD4965
:1007B00008667047820142EA0172A64B84331A60D0
:1007C0007047A8498866704710B5830143EA016302
:1007D00043EA02739F4C8834236010BDA149086727
:1007E0007047A049C864704702460020994B0833FF
:1007F000186820F0EC6042EA01031843954B083377
:100800001860704702460020924B0833186820F0A9
:10081000784042EA010318438E4B08331860704752
:10082000014600208B4A0832106820F0030008437C
:100830001060704787480830006800F00C0070476F
:1008400001460020834A0832106820F0F000084377
:1008500010607047014600207E4A0832106820F47C
:10086000E05008431060704701460020794A083282
:10087000106820F4604040EAC10010607047F0B595
:10088000002100220024022500260223714F083790
:100890003F6807F00C0121B1042905D0082937D1A0
:1008A00005E0724F076036E0714F076033E0694F33
:1008B0003F1D3F68C7F38056664F3F1D3F6807F0F6
:1008C0003F036EB16A4FB7FBF3F7DFF888C10CF155
:1008D000040CDCF800C0CCF3881C07FB0CF40CE023
:1008E000624FB7FBF3F7DFF86CC10CF1040CDCF8D6
:1008F00000C0CCF3881C07FB0CF4564F3F1D3F682B
:10090000C7F301477F1C7D00B4FBF5F7076002E0E9
:10091000564F076000BF00BF4E4F08373F6807F0D3
:10092000F0010909534F7A5C0768D7404760494F87
:1009300008373F6807F4E051890A4E4F7A5C4768F0
:10094000D7408760434F08373F6807F46041490B41
:10095000484F7A5C4768D740C760F0BD002100F47B
:100960004072B2F5407F0AD13A4A0832116821F448
:10097000F811414A02401143364A08321160354AA3
:1009800070321268C0F30B031A43324B70331A6093
:100990007047354944390860704733494039086029
:1009A000704736490860704701460020294A8C325A
:1009B000106820F01F004A1E1043264A8C32106037
:1009C000704701460020234A8C32106820F4F8500A
:1009D0004A1E40EA02201F4A8C32106070470146CE
:1009E00000201C4A8C32106820F44010084310602C
:1009F000704701460020174A8C32106820F44000EE
:100A000008431060704701460020124A8C3210687B
:100A100020F440300843106070471949086070475F
:100A200039B10C4A3032126802430A4B30331A6033
:100A300006E0084A303212688243064B30331A60AF
:100A40007047F9B1034A343212680243014B343320
:100A50001A601CE000380240FFFFF6EA1030002464
:100A60000030002000004742800E47420024F4007E
:100A700040787D0100000020FFFCFF0F5C01474231
:100A8000E01147428F4A126882438E4B1A607047CA
:100A900039B18C4A121D126802438A4B1B1D1A6021
:100AA00006E0884A121D12688243864B1B1D1A609D
:100AB000704739B1834A0C3212680243814B0C33C0
:100AC0001A6006E07F4A0C32126882437D4B0C3379
:100AD0001A60704739B17B4A103212680243794B71
:100AE00010331A6006E0774A103212688243754B61
:100AF00010331A60704739B1724A243A12680243BF
:100B0000704B243B1A6006E06E4A243A1268824316
:100B10006C4B243B1A60704739B16A4A203A12681C
:100B20000243684B203B1A6006E0664A203A12688E
:100B30008243644B203B1A60704739B1614A1C3ACA
:100B4000126802435F4B1C3B1A6006E05D4A1C3A88
:100B5000126882435B4B1C3B1A60704739B1594A9B
:100B6000143A12680243574B143B1A6006E0554A88
:100B7000143A12688243534B143B1A60704739B1E0
:100B8000504A103A126802434E4B103B1A6006E07E
:100B90004C4A103A126882434A4B103B1A60704725
:100BA00039B1484A1C3212680243464B1C331A6062
:100BB00006E0444A1C3212688243424B1C331A60DE
:100BC000704739B13F4A2032126802433D4B20330F
:100BD0001A6006E03B4A203212688243394B2033C8
:100BE0001A60704739B1374A243212680243354BD4
:100BF00024331A6006E0334A243212688243314BB0
:100C000024331A60704739B12E4A2C3212680243DD
:100C10002C4B2C331A6006E02A4A2C32126882438D
:100C2000284B2C331A60704739B1264A303212688B
:100C30000243244B30331A6006E0224A30321268F5
:100C40008243204B30331A607047012808D11D4978
:100C50003C31096841F008011A4A3C32116007E052
:100C600018493C31096821F00801164A3C321160EC
:100C7000704739B1134A273A12780243114B273B88
:100C80001A7006E00F4A273A127882430D4B273B31
:100C90001A7070470B484030006840F08070094976
:100CA00040310860704701460020064A283A126821
:100CB0000A400AB1012000E00020704701492639AE
:100CC000087070473438024010B501218803FFF7DF
:100CD00056FF00214FF48040FFF751FF10BD1C4923
:100CE000086070471B490862704730B500228B07C7
:100CF0001C0F0F2303FA04F2154B08338C1053F822
:100D000024309343124C08348D1044F82530234688
:100D10008C1053F824308C07240F00FA04F423437A
:100D20000B4C08348D1044F8253030BD0949DC31B6
:100D30000860704708490860704700200449203166
:100D4000096801F4807109B1012000E000207047BA
:100D500000380140000027420004274210B5044635
:100D6000FA48844208D101211020FFF708FF002132
:100D70001020FFF704FF57E0F548844209D1012114
:100D80004804FFF7EBFE00214FF40030FFF7E6FECA
:100D90004AE0F048844209D101218804FFF7DEFED1
:100DA00000214FF48020FFF7D9FE3DE0EA4884425D
:100DB00009D10121C804FFF7D1FE00214FF4002022
:100DC000FFF7CCFE30E0E548844209D10121080557
:100DD000FFF7C4FE00214FF48010FFF7BFFE23E0B1
:100DE000DF48844208D101212020FFF7C8FE0021FE
:100DF0002020FFF7C4FE17E0DA48844209D1012120
:100E00008807FFF7ABFE00214FF08040FFF7A6FEFA
:100E10000AE0D548844207D101214005FFF79EFE34
:100E200000216005FFF79AFE10BD2DE9FF4705463A
:100E30000E460024A14600BFA046B08900B100BF05
:100E40002C8A24F44054F08804432C82AC8941F26B
:100E50000C608443B0883189084371890843044396
:100E6000AC81AC8A24F44074B0890443AC826846F7
:100E7000FFF705FDB548854202D0B948854202D149
:100E8000DDF80C9001E0DDF80890A88900F400403E
:100E900040B109EBC90000EB091031684900B0FB13
:100EA000F1F707E009EBC90000EB09103168890090
:100EB000B0FBF1F76420B7FBF0F0040120096421D6
:100EC00001FB1078A88900F4004040B1322000EB0B
:100ED000C800B0FBF1F000F00700044308E0322046
:100EE00000EB08106421B0FBF1F000F00F000443A8
:100EF0002C81BDE8FF874FF41651016000218180ED
:100F0000C18001810C21418100218181704710B590
:100F100002460020108A20F470600B884C8823431E
:100F20008C882343CC8823431843108210BD0021B2
:100F3000018041808180C180704721B1828942F463
:100F40000052828104E082894DF6FF731A4082814B
:100F50007047028B02F47F420283028B0A430283B2
:100F6000704721B1828942F40042828103E0828984
:100F7000C2F30E028281704721B1828A42F400627C
:100F8000828204E0828A4FF2FF731A4082827047A5
:100F9000C1F308028280704701468888C0F30800C8
:100FA0007047028A4FF6F0731A400282028A0A439F
:100FB0000282704721B1828942F00202828104E0FC
:100FC00082894FF6FD731A408281704782894FF201
:100FD000FF731A40828182890A4382817047028AA4
:100FE0004FF6DF731A400282028A0A430282704778
:100FF00021B1028A42F48042028204E0028A4BF666
:10100000FF731A4002827047818941F0010181819A
:10101000704721B1828A42F00802828204E0828A0B
:101020004FF6F7731A4082827047028BD2B2028366
:10103000028B42EA01220283704721B1828A42F088
:101040002002828204E0828A4FF6DF731A40828295
:10105000704721B1828A42F01002828204E0828AC3
:101060004FF6EF731A4082827047828A4FF6FB7305
:101070001A408282828A0A438282704721B1828A20
:1010800042F00202828204E0828A4FF6FD731A4027
:10109000828270471AB1838A0B43838202E0838A7B
:1010A0008B4383827047F0B5034600240026002559
:1010B000002040F66A17B94200D100BF1846C1F3BC
:1010C000421401F01F06012707FA06F5012C01D191
:1010D0000C3004E0022C01D1103000E014301AB1C1
:1010E00007682F43076002E00768AF430760F0BD61
:1010F00002460020B1F5007F00D100BF13880B40ED
:101100000BB1012000E00020704701F40072B2F53D
:10111000007F00D100BFCA430280704770B502460D
:10112000002400230025002040F66A16B14200D1B9
:1011300000BFC1F3421501F01F03012606FA03F3B5
:10114000012D13D19689334017E0000000100140B3
:101150000044004000480040004C00400050004067
:101160000014014000780040007C0040022D02D1B4
:10117000168A334001E0968A33400C12012606FAA3
:1011800004F41688344013B10CB1012000E00020B3
:1011900070BD10B50022002340F66A14A14200D1B0
:1011A00000BF0A1201249440A3B2DC43048010BDA6
:1011B00001B581B0002000900198009002E00098F5
:1011C000401E009000980028F9D10CBD10B50121F7
:1011D0004806FFF790FC00214FF00070FFF78BFCF2
:1011E00010BD01210160002141608160C160016189
:1011F0004FF48041416100218161C1614FF4006180
:101200000162002141628162C162016341638163C5
:10121000C163402101642021416400218164C164D3
:10122000016541658165C1650166802141660021D6
:101230008166C166016741678167C1674FF0806160
:10124000C0F880104910C0F884100021C0F8881040
:101250004FF40011C0F88C100021C0F89010C0F8B5
:101260009410C0F89810C0F89C10C0F8A0104FF06F
:101270000071C0F8A4104912C0F8A8108901C0F884
:10128000AC104912C0F8B0100021C0F8B410C0F87A
:10129000B8107047F8B505460E46174600240020E2
:1012A0000090FE48046904F01C044FF4784000EA02
:1012B000C52004434FF4F86000EA8610044344F06C
:1012C000020444F00104F5484761046100BF00983E
:1012D000401C0090F148046904F0010018B1F04985
:1012E00000988842F3D3EE490098884204D1EDA0DB
:1012F00033F096FE0020F8BDF5A033F091FE0120FA
:10130000F9E718B502460B46002100200090E3489B
:10131000016901F01C014FF4784000EAC22001434A
:101320004FF4F86000EA8310014321F0020141F01C
:101330000101DA48016100BF0098401C0090D748C5
:10134000016901F0010018B1D54C0098A042F3D317
:10135000D34C0098A04201D1002018BDCF4840696D
:1013600080B2FAE72DE9F04387B004460F464FF00C
:101370000008002500200690E04E0190012000901A
:10138000C648056925F01C0502A8FFF778FA039EF8
:10139000DB48864205D3DB48864202D245F0080589
:1013A0001AE0D848864205D3D448864202D245F096
:1013B0000C0511E0D148864203D3D348864200D2BF
:1013C0000AE0D148864205D3D048864202D245F091
:1013D000040501E045F01005B04805614FF40042F6
:1013E00000213846FFF756FF10B900200090ABE00F
:1013F000C748FFF7DDFE206800287BD00021384673
:10140000FFF77FFF81464A460021C2A033F008FE65
:1014100010213846FFF775FF81464A461021BDA0CE
:1014200033F0FEFD00BF0198401C019001213846B9
:10143000FFF767FF00F0040018B999490198884246
:10144000F1D301213846FFF75CFF81464A4601216E
:10145000B0A033F0E5FD92490198884208D1B54823
:1014600033F0DEFDB44833F0DBFD002000906BE08C
:10147000002001904FF4805200213846FFF70AFF08
:1014800020B9AE4833F0CCFD0020009000BF019899
:10149000401C019001213846FFF733FF00F0200087
:1014A00018B97F4901988842F1D301213846FFF7E6
:1014B00028FF81464A46012196A033F0B1FD7849C4
:1014C0000198884205D19E4833F0AAFD0020009083
:1014D0003AE00020019010213846FFF712FF8046C5
:1014E00008F0040038B14FF40060206295A033F09A
:1014F00097FD05E014E0002020629CA033F090FDF1
:1015000008F0020028B100206061A2A033F088FD3D
:1015100019E04FF480406061A7A033F081FD12E034
:10152000206AC0F3CF006169C1F34F0140EA0102B4
:1015300000213846FFF7AEFE08B9002000906FF09A
:101540007F40FFF735FE00BF009820B94FF40060E0
:101550002062C000606151480568A0480540D4E998
:1015600001010843E16808432169084361690843B0
:10157000A1690843E1690843216A0843616A084395
:10158000A16A0843E16A0843216B0843616B084381
:1015900005434248056005684FF6FF70FFF708FEF7
:1015A0003E480560D4E90E010843216C0843616C94
:1015B0000843A16C0843E16C0843216D0843616D49
:1015C000084336494860084645684FF6FF70FFF704
:1015D000EFFD324845603149A06D8860E06DC8601C
:1015E000084685694FF641700540B4F86010606E9A
:1015F00040EA0140A16E0843E16E0843216F0843B1
:10160000616F084305432548856185694FF6FF7082
:10161000FFF7CEFD21488561D4E91E0108431F492B
:10162000C8610846C5694FF6FF70FFF7C1FD1B484A
:10163000C5616B4885696B480540D4E920010843C2
:10164000D4F888100843D4F88C100843D4F89010CC
:101650000843D4F894100843D4F898100843D4F8F9
:101660009C100843D4F8A010084305435C488561EA
:1016700085694FF6FF70FFF79BFD59488561D4E9F6
:1016800029010843D4F8AC100843D4F8B01008433B
:10169000D4F8B41040EA8100A6E0000000800240C7
:1016A000FFFF04003D3D3D3D3D204554485F5772DE
:1016B000697465504859526567697374657220454D
:1016C00054485F4552524F523D3D3D0D0A000000C7
:1016D0003D3D3D3D3D204554485F5772697465501E
:1016E00048595265676973746572204554485F5361
:1016F0005543434553533D3D3D0D0A000087930339
:10170000002D3101C00E160200E1F50580D1F00870
:10171000FFFF0F000A0D4554485F52656164504851
:101720005952656769737465722025643A3078256B
:10173000580000005C8E0308848D0308108E030897
:10174000CC8D03080A0D204554485F4D6F64652019
:10175000202020204554485F4D6F64655F46756CBE
:101760006C4475706C6578200A0D20000A0D2045C8
:1017700054485F4D6F646520202020204554485F09
:101780004D6F64655F48616C664475706C65782068
:101790000A0D20000A0D204554485F5370656564AA
:1017A00020202020204554485F53706565645F31D8
:1017B000304D200A0D2000000A0D204554485F538B
:1017C0007065656420202020204554485F53706573
:1017D00065645F3130304D200A0D20000F8120FFFD
:1017E00000900240233FDEF8D4F8B810084340F4DC
:1017F0000000F9490860084605684FF6FF70FFF7DA
:10180000D7FCF5480560006840F08000F2490860A8
:10181000084605684FF6FF70FFF7CAFCEE48056002
:101820000098012806D1EDA033F0FAFB012007B0A3
:10183000BDE8F083F2A033F0F3FB0020F7E730B10E
:10184000E549896941F00201E34A916105E0E24915
:10185000896921F00201E04A9161704730B1DE49A7
:10186000896941F40051DC4A916105E0DA498969EE
:1018700021F40051D84A9161704708B500200090CA
:10188000D548806940F48010D34988610846806952
:1018900000904FF6FF70FFF78BFCCF4900988861EE
:1018A00008BD38B504460020009034B1DC4800681B
:1018B00040F00400DA49086005E0D948006820F0EB
:1018C0000400D7490860D648006800904FF6FF70C2
:1018D000FFF76EFCD2490098086038BD38B5044661
:1018E0000020009034B1CE48006840F00800CC4998
:1018F000086005E0CA48006820F00800C849086090
:10190000C748006800904FF6FF70FFF751FCC449CC
:101910000098086038BD10B50120FFF7DFFF0120F7
:10192000FFF7BFFFFFF7A9FF0120FFF797FF012097
:10193000FFF785FF10BD10B50020FFF78FFF0020D7
:10194000FFF77DFF0020FFF7ACFFFFF796FF0020B9
:10195000FFF7C4FF10BD0020B149896901F0010102
:1019600009B1012000E00020704708B50020009078
:10197000AB48806940F00100A94988610846806948
:1019800000904FF6FF70FFF713FCA549009888619F
:1019900008BD38B504460020009034B1A0488069E5
:1019A00040F001009E49886105E09D48806920F073
:1019B00001009B4988619A48806900904FF6FF704A
:1019C000FFF7F6FB96490098886138BD0146002074
:1019D000934A926B0A400AB1012000E00020704750
:1019E000014600208E4A926B0A400AB1012000E0B5
:1019F0000020704729B18A4AD26B8243884BDA6350
:101A000004E0874AD26B0243854BDA63704710B516
:101A10000B794C7943EA0422814B03441A64CB7856
:101A20001B068C7843EA04434C7843EA04230C7881
:101A300043EA04027A4B03445A6410BD0246784BD1
:101A40001344186C030A4B710871754B1344586C9E
:101A5000030ECB70030C8B70030A4B700870704739
:101A600038B504460D460020009045B16C4820442E
:101A7000006C40F000406A492144086407E068486F
:101A80002044006C20F0004065492144086464480B
:101A90002044006C00904FF6FF70FFF789FB60490F
:101AA00021440098086438BD38B504460D4600202E
:101AB0000090082D08D05A482044006C40F0804027
:101AC00057492144086407E055482044006C20F041
:101AD000804053492144086451482044006C0090E0
:101AE0004FF6FF70FFF764FB4D49214400980864EE
:101AF00038BD38B504460D460020009048482044C3
:101B0000006C20F07C50464921440864444820443D
:101B1000006C00904FF6FF70FFF74AFB40492144EC
:101B2000009808643E482044006C28433C49214406
:101B300008643B482044006C00904FF6FF70FFF7AC
:101B400037FB374921440098086438BD1EB5002191
:101B50000022009201920292324A12681268C2F385
:101B60000D42111F0091304A1268126802922E4AEB
:101B700012681268926801922A4A1268D268294B48
:101B80001A609DE81C0080E81C001EBD0FB50021F6
:101B900001910291039100919BE00099491C0091F1
:101BA00020490968096801F40071A1B11D4909685B
:101BB000096801F4807171B91A4909681A4A1268F2
:101BC00011600121184A1268916016490968C968B4
:101BD000144A11607DE029E0009002403D3D3D3D0A
:101BE0003D3D4554485F496E697420204554485F27
:101BF00053554343455353203D3D0D0A000000001B
:101C00003D3D3D3D3D3D4554485F496E6974202052
:101C10004554485F4552524F52203D3D0D0A000049
:101C2000008002401400002018000020F6490968D6
:101C3000096801F4807191B9F3490968096801F4F0
:101C4000007161B9F14909688968491CEF4A126855
:101C50009160ED490968C968EB4A116039E0EA49C9
:101C60000968EA4A12685160E84909688968491CAC
:101C7000E64A12689160E54909688968012904D13A
:101C8000E1490968E14A12681160DF490968096899
:101C9000C1F30D41091F0191DC49096889680129D7
:101CA00005D9DA49096809688968029103E0D649CB
:101CB000096889680291D549096809680391D24980
:101CC0000968C968D04A116001A90EC980E80E00F0
:101CD0000FBDCD490968096801F0004119B90099A3
:101CE0000529FFF45AAF01A90EC980E80E0000BF14
:101CF000EEE770B50246002300250024C4480068C2
:101D0000006800F0004008B1002070BDC0480168C4
:101D100040F2F450824208DD92FBF0F392FBF0F6C1
:101D200000FB162010B15B1C00E00123012B0CD13D
:101D3000086840F040500860C2F30C004860086832
:101D400040F000400860C96826E0002422E00868EE
:101D500020F0405008601CB9086840F080500860CE
:101D600040F2F4504860581EA0420DD1086840F07F
:101D700000500860581EC0EBC01000EB4000A2EB02
:101D80008005C5F30C004860086840F0004008601A
:101D9000C968641C9C42DAD39D4801609D48406933
:101DA00000F0040020B104209A4E706100207060A1
:101DB0000120AAE770B50C4613460021924D286019
:101DC00000BF18E000EB41124FF00045156044F2EF
:101DD000F4555560C1EBC11505EB450504EB8505D0
:101DE00095605D1E8D4204D900EB41152035D5600C
:101DF00000E0D060491C9942E4D3864DE860864DEE
:101E0000824E356070BD80480068006800F0004078
:101E1000E8B97D480068006800F48070B8B17B487C
:101E200000688068401C79490968886077480068C4
:101E30008068012804D17448006874490968086002
:101E400071480068714909684860012070476E4810
:101E50000068006800F00040F0B96B480068006856
:101E600000F40070C0B168480068006800F4807039
:101E700090B96548006865490968086000206349B1
:101E80000968486001206149096888605E48006807
:101E9000C0685D4908601DE05B480068006800F0AC
:101EA0000040B8B958480068006800F4007088B96C
:101EB00055480068006800F4807058B953480068BD
:101EC0008068401C5149096888604F480068C068B4
:101ED0004D4908600020B9E730B50C461346002193
:101EE0004B4D286000BF15E000EB41124FF4801508
:101EF0001560C1EBC11505EB450504EB8505956043
:101F00005D1E8D4204D900EB41152035D56000E0FF
:101F1000D060491C9942E7D33E4D286130BD02464E
:101F2000002013680B400BB1012000E00020704737
:101F300001460868C0F3C3007047016841F00041E2
:101F40000160704721B1026842F08042026003E004
:101F5000026822F080420260704702680A43026011
:101F6000704702680A430260704721B1026822F09C
:101F70000062026003E0026842F0006202607047A3
:101F800021B1026842F48012026003E0026822F488
:101F900080120260704721B1026822F08062026004
:101FA00003E0026842F080620260704710B541EAC7
:101FB000024443682343436010BD02460020136877
:101FC0000B400BB1012000E00020704702460020CA
:101FD00013690B400BB1012000E00020704701683D
:101FE00041F000410160704701460868C0F30D40B0
:101FF000704721B1426822F00042426003E042682B
:1020000042F0004242607047140000201800002097
:1020100010000020009002404C3F0020024619B101
:102020005068C0F30C4070479088C0F30C00FAE78A
:1020300000B502460023106800F0004058B910684F
:1020400000F4004038B9106800F4807018B11046F0
:10205000FFF7CAFF0346184600BD38B50446002006
:10206000009034B1F848006840F08000F6490860FC
:1020700005E0F548006820F08000F3490860F24868
:10208000006800904FF6FF70FFF792F8EE49009855
:10209000086038BDEC48006840F00100EA4908607B
:1020A000704710B50024E848006800F0010008B14E
:1020B000012400E000242146E4A032F0B1FF2046D4
:1020C00010BD01460020E04A52690A400AB10120D1
:1020D00000E000207047DC494861704729B1DA4AC6
:1020E000D2690243D84BDA6104E0D74AD26982430D
:1020F000D54BDA61704701460020D34A52690A4045
:102100000AB1012000E000207047CF4948617047C4
:10211000CD48406900F001007047CB48406900F0AD
:10212000400070470020C849896901F4801109B155
:10213000012000E00020704701460020C24A126AD8
:102140000A400AB1012000E000207047BE48006A42
:10215000C0F34A407047BC48006A80B27047BA4832
:10216000806C7047B848C06C7047B748006D7047C6
:10217000B548406D70470020B34948607047002063
:10218000B14988607047B0494862704770B50646EB
:102190000D46002400213046FFF7B3F8044615B180
:1021A00044F4804402E04BF6FF70044022460021D4
:1021B0003046FFF76FF808B1012070BD0020FCE742
:1021C00008B500200090AB48C06A40F00040A94923
:1021D000C8620846C06A00904FF6FF70FEF7E8FF3D
:1021E000A4490098C86208BD38B505460020009093
:1021F000002400BF0EE055F824009E49886208467E
:10220000806A00904FF6FF70FEF7D2FF9949009860
:102210008862641C082CEED338BD38B50446002013
:10222000009034B19348C06A40F400709149C8628C
:1022300005E09048C06A20F400708E49C8628D485D
:10224000C06A00904FF6FF70FEF7B2FF8949009810
:10225000C86238BD01460020864AD26A0A400AB1E7
:10226000012000E00020704738B5044600200090AF
:1022700034B18048C06A40F004007E49C86205E07D
:102280007C48C06A20F004007A49C8627948C06A74
:1022900000904FF6FF70FEF78BFF76490098C862FA
:1022A00038BD38B504460020009034B17148C06A8A
:1022B00040F002006F49C86205E06E48C06A20F035
:1022C00002006C49C8626B48C06A00904FF6FF700C
:1022D000FEF76EFF67490098C86238BD38B50446FE
:1022E0000020009034B16348C06A40F001006149A9
:1022F000C86205E05F48C06A20F001005D49C8621D
:102300005C48C06A00904FF6FF70FEF751FF5949D4
:102310000098C86238BD5848006840F03000554900
:10232000C1F8000170475448006820F0200051496E
:10233000C1F800010846D0F8000140F01000C1F8D3
:102340000001704738B14C49096841F00801494A19
:10235000C2F8001106E04849096821F00801454A21
:10236000C2F80011704738B14349096841F00401CF
:10237000404AC2F8001106E03F49096821F0040113
:102380003C4AC2F80011704738B13B49096821F056
:102390000201384AC2F8001106E03749096841F0E5
:1023A0000201344AC2F8001170473348006840F017
:1023B00001003049C1F80001704700F0805292B12D
:1023C00020F0805039B12C4A0C3212688243294BDC
:1023D000C3F80C2117E0284A0C3212680243254B3F
:1023E000C3F80C210FE039B1234A1032126882433E
:1023F000204BC3F8102106E01F4A10321268024336
:102400001C4BC3F8102170470146002001F0805298
:102410006AB1194A121D12680A4032B1164A0C32CA
:1024200012680A400AB9012029E0002027E0124A78
:10243000083212680A4032B10F4A0C3212680A4060
:102440000AB901201BE019E0009002403D3D3D200B
:102450004554485F476574536F667477617265527F
:1024600065736574537461747573203A2025640D27
:102470000A000000008002400081024000207047F6
:102480000146014808587047008002400A46002172
:10249000DBE0D30B002B75D0102971D2DFE801F0FF
:1024A000080F161D242B323940464C52585E646A80
:1024B000038823F4004303F50043038060E00388AE
:1024C00023F4804303F58043038059E0038823F419
:1024D000005303F50053038052E0038823F4805334
:1024E00003F5805303804BE0038823F4006303F576
:1024F0000063038044E0038823F4806303F5806372
:1025000003803DE0038823F4007303F50073038028
:1025100036E0038823F4807303F5807303802FE093
:10252000038823F080038033038029E0038823F0AD
:1025300040034033038023E0038823F0200320334B
:1025400003801DE0038823F010031033038017E09D
:10255000038823F008030833038011E0038823F085
:1025600004031B1D03800BE0038823F002039B1C64
:10257000038005E0038823F001035B1C038000BF98
:102580005DE0FFE7102959D2DFE801F0080D1217CE
:102590001C21262B30353A3F44494E53038823F4FF
:1025A000004303804AE0038823F48043038045E02E
:1025B000038823F40053038040E0038823F480530E
:1025C00003803BE0038823F40063038036E0038844
:1025D00023F48063038031E0038823F400730380D5
:1025E0002CE0038823F48073038027E0038823F022
:1025F0008003038022E0038823F0400303801DE072
:10260000038823F02003038018E0038823F01003DD
:10261000038013E0038823F0080303800EE003889F
:1026200023F00403038009E0038823F002030380FE
:1026300004E0038823F00103038000BF00BF4FF6CE
:10264000FF7303EA42024B1CD9B21029FFF621AFF7
:102650007047F0B51C46002600250123C1F1100784
:10266000974202DAC1F11007FAB20E46002E0CDDD5
:1026700005E0EF18BDB24FF6FF7707EA43033700D6
:10268000A6F1010C0CF0FF06F3D1D0F814C04FF600
:10269000FF7797408F402F430CEA070CC0F814C017
:1026A000476904FA01FC47EA0C074761F0BD10B521
:1026B0006FF00400FDF772FE1520394908700846D6
:1026C000007800EB4001C1EBC0104FF6FF7101EA4A
:1026D000C0003449088010BD0146314A12784A438F
:1026E0004FF0E0235A6100229A611A46126942F0C3
:1026F00001021A6100BF4FF0E022106900F00102F0
:102700001AB100F48032002AF5D04FF0E0221269AD
:1027100022F001024FF0E0231A6100229A61704713
:102720000146204A12884A434FF0E0235A610022B2
:102730009A611A46126942F001021A6100BF4FF015
:10274000E022106900F001021AB100F48032002A80
:10275000F5D04FF0E022126922F001024FF0E023A1
:102760001A6100229A61704770B504464FF40770F1
:1027700094FBF0F0C6B24FF4077094FBF0F100FB4D
:10278000114085B205E04FF40770FFF7C9FF701ED6
:10279000C6B2002EF7D115B12846FFF7C1FF70BDB4
:1027A0002000002022000020424800680A304149F1
:1027B0000860704770B5054602210020FEF7A1FDB4
:1027C00004462346022201213BA032F029FC0321CA
:1027D0000020FEF796FD044623460322012136A081
:1027E00032F01EFC204670BD70B504460D462946E9
:1027F0002046FEF786FD064633462A4621462EA091
:1028000032F00EFC304670BD10B500240020FFF7FA
:10281000D1FF1120FFF7CEFF00F4405018B12FA0D8
:1028200032F0FEFB02E032A032F0FAFB1120FFF79B
:10283000C1FF00F4204018B133A032F0F1FB02E0F8
:1028400038A032F0EDFB10BD08B500BF4FF4A0601A
:10285000FDF752FDFFF72BFF4FF4E13000F0F5F9E3
:10286000002000F0C0FA012000F0BDFA00F0A6FC44
:1028700033A032F0D5FB1CE0694638A032F076FD7B
:102880009DF80000302814D19DF80030A12234A119
:1028900037A032F0C5FB4FF44472012105201BF034
:1028A0006DF918B93AA032F0BBFB02E040A032F05B
:1028B000B7FBE1E7280000200A0D4554485F526548
:1028C000616450485952656769737465722825645C
:1028D0002C25303278293A30782558000A0D3D3DB4
:1028E0003E4554485F53706565645F31304D21004B
:1028F0000A0D3D3D3E4554485F53706565645F3148
:1029000030304D21000000000A0D3D3D3E45544849
:102910005F4D6F64655F46756C6C4475706C65786F
:10292000210000000A0D3D3D3E4554485F4D6F6457
:10293000655F48616C664475706C657821000000C5
:102940003D3D706C6561736520696E7075742073B0
:102950007472696E673A0D0A00000000256300007A
:102960002E2E5C555345525C6D61696E2E630000DE
:102970003D3D5B25735D2D25642D696E707574205A
:10298000737472696E673A2563204F4B0D0A00001D
:102990000D0A3D3D3D206D6164206472697665726B
:1029A00020696E6974204F4B213D3D3D0D0A0000AA
:1029B0000D0A3D3D3D206D6164206472697665724B
:1029C00020696E6974204552524F52213D3D3D0DA4
:1029D0000A000000704700BFFEE700BFFEE700BF2F
:1029E000FEE700BFFEE770477047704710B5FFF77E
:1029F000DBFE10BD0CB50020019000907648006809
:102A000040F480307449086000BF7348006800F4E7
:102A1000003000900198401C0190009818B901986E
:102A2000B0F5A04FF1D16C48006800F4003010B14F
:102A30000120009001E0002000900098012846D17C
:102A400065484030006840F080506349403108607C
:102A50006248006840F44040604908605E480830C1
:102A600000685D49083108600846006840F400408D
:102A700008600846006840F4A05008605848091FE4
:102A80000860081F006840F08070091F086000BFE0
:102A90005148006800F000700028F9D040F205703D
:102AA000504908604C480830006820F003004A494B
:102AB000083108600846006840F00200086000BF66
:102AC00045480830006800F00C000828F8D10CBD1B
:102AD00010B54548006840F47000434908603E481E
:102AE000006840F001003C49086000203A49083184
:102AF0000860394800683D490840374908603C484B
:102B0000091D0860081F006820F48020091F086064
:102B1000002031490C310860FFF76CFF4FF0006076
:102B200031498039086010BD70B5002000220223B1
:102B300000240221284D08352D6805F00C0020B135
:102B4000042806D0082834D107E02A4D2A4E3560E3
:102B500033E02A4D284E35602FE01F4D2D1D2D6886
:102B6000C5F380541C4D2D1D2D6805F03F0154B157
:102B7000224DB5FBF1F5184E361D3668C6F38816A2
:102B800005FB06F209E01B4DB5FBF1F5124E361DB3
:102B90003668C6F3881605FB06F20F4D2D1D2D680D
:102BA000C5F301456D1C6B00B2FBF3F5124E3560A9
:102BB00003E0104D104E356000BF00BF064D0835D4
:102BC0002D68C5F303150E4E705D0B4D2D68C54085
:102BD000094E356070BD00000038024000700040B2
:102BE00019544007003C024088ED00E0FFFFF6FE6C
:102BF000103000240024F4002C00002040787D01D7
:102C000030000020014600BF704700BF654A1288AF
:102C100002F04002002AF9D0C2B2624B1B1D1A809A
:102C2000704770B50546002400BF20215D48FEF7BF
:102C30005FFA0028F9D05B48001D0088C4B25A49E9
:102C4000204632F013FC204670BD10B588B0044613
:102C500001210420FDF7E4FE01218804FDF729FF8E
:102C600007220A215148FDF7C8FC07220B214F48D3
:102C7000FDF7C3FC4FF44060069002208DF81C0065
:102C800003208DF81D0000208DF81E0001208DF816
:102C90001F0006A94548FDF725FC02940020ADF869
:102CA0000C00ADF80E00ADF81000ADF814000C20CB
:102CB000ADF8120002A93B48FEF7B7F801213948E8
:102CC000FEF73BF940213748FEF71FFA012240F298
:102CD00025513448FEF7E7F927208DF8040003203A
:102CE0008DF805008DF8060001208DF8070001A879
:102CF000FDF707FB08B010BD00BF2A49098801F0A5
:102D000040010029F9D02749091D0880704710B5F6
:102D100003460C46002200BF985CFFF7EDFF501CF5
:102D200082B2A242F8DB10BD10B540F225511D4819
:102D3000FEF7F4F910B31B48FEF72EF9C4B21C4895
:102D4000008800F40040C8B91948008800F48040A9
:102D500060B10A2C03D000201549088020E01448F7
:102D6000008840F400401249088019E00D2C06D17B
:102D70000F48008840F480400D49088010E00C485E
:102D80000088C0F30D000B490C5409480088401C12
:102D90000749088008460088C72801DD0020088010
:102DA00010BD000000480040400000200008024024
:102DB00048000020583F002070B503460C4603E051
:102DC00014F8015B03F8015B1500A2F10102F7D1D1
:102DD00070BD30B5034601E003F8011B1400A2F1F9
:102DE0000102F9D130BD10B504467C4951F82410D8
:102DF0004A007B4951F824000021FFF7EAFF794996
:102E000051F824207649083951F824000021FFF7B1
:102E1000E0FF012172480830015510BD10B5014690
:102E20000023002207E06E4850F8210030F812001D
:102E300000B15B1C521C694850F821009042F2D846
:102E400064205843654C54F82140B0FBF4F0C0B204
:102E500010BD2DE9F04704460F460025A9466048FD
:102E60000830005D20B95E48103801682046884768
:102E70001FB94FF0FF30BDE8F0875B4850F82400E1
:102E8000B7FBF0F086B2584850F82400B7FBF0F1D9
:102E900000FB117008B1701C86B2504850F8240035
:102EA000451E22E04E4850F8240030F8150020B9A5
:102EB00009F101001FFA80F901E04FF00009B14566
:102EC00012D14FF0000808E0454850F8240005EB07
:102ED000080120F8116008F10108B045F4D3424818
:102EE00050F824006843C6E76D1E002DDADA4FF073
:102EF000FF30C0E72DE9F04104460E46384808305F
:102F0000005D38B9364810380168204688470120EE
:102F1000BDE8F081334850F82400B04217D9324858
:102F200050F82400B6FBF0F12D4850F8240030F89A
:102F30001120002507E00023294850F824004F19EC
:102F400020F817306D1C9542F5DB0020E0E70220E9
:102F5000DEE770B505460C4604B970BD2048083858
:102F600050F82500261A31462846FFF7C3FF00BF58
:102F7000F3E770B504460E4631462046FFF769FF79
:102F80000546681C08B9002070BD1548083850F87F
:102F900024002844F8E72DE9F04104460F46164680
:102FA00031462046FFF755FF0546681C10B9002042
:102FB000BDE8F0810A49083951F824104819324611
:102FC0003946FFF7F9FE39462046FFF7C2FF0448AD
:102FD000083850F824002844EAE70000FC5B0308A6
:102FE0005C0000200C5C0308045C030810B500289A
:102FF00007DA0A07140E854A00F00F031B1FD4548A
:1030000003E00A07130E824A135410BD00B5AFB097
:1030100001214FF06060FDF703FDFEF7D7F8FFF7E1
:1030200039F800BFFFF73DF80128FBD06846FEF7EE
:10303000D8F8002000904FF480400590C010089010
:10304000002007904FF400700A9000200B900E9023
:10305000119013901490159020904FF000702190D3
:103060000011239000202590269004202890C00570
:10307000299040122A9080012B9040122C90400001
:103080002E9000216846FEF76DF918B161A031F06D
:10309000C7FF02E066A031F0C3FF01216C48FFF7D3
:1030A0001DF82FB000BD08B54FF44070FDF724F9AE
:1030B0003D208DF8000000208DF801008DF8020001
:1030C00001208DF803006846FDF71BF908BD1CB50B
:1030D00001211720FDF7A4FC01218803FDF7FAFC6C
:1030E0000020FDF723FE03208DF8050002208DF857
:1030F000040000208DF806008DF80700862000905F
:1031000069465448FDF7EEF90B2201215148FDF7BD
:1031100074FA0B2202214F48FDF76FFA0B220721A8
:103120004C48FDF76AFA43F60300009069464A48A6
:10313000FDF7D8F90B2200214748FDF75EFA0B2274
:1031400001214548FDF759FA0B2211464248FDF787
:1031500054FA0B220C214048FDF74FFA0B220D21A7
:103160003D48FDF74AFA3E20009069463B48FDF78E
:10317000B9F90B2201213948FDF73FFA0B22022150
:103180003648FDF73AFA0B2203213448FDF735FAA9
:103190000B2204213148FDF730FA0B2205212F487C
:1031A000FDF72BFA0420009069462D48FDF79AF9A7
:1031B0000B2202212A48FDF720FA1CBD1FB5FFF79C
:1031C00086FFFFF770FFFFF721FF6846FDF757FB0B
:1031D00064210098B0FBF1F4601EB0F1807F00D351
:1031E0000FE0601E4FF0E02148610F214FF0FF30EB
:1031F000FFF7FCFE00204FF0E02188610720086106
:1032000000BF0121881EFFF7F1FE1FBD18ED00E091
:1032100000E400E03D3D3D3D3D3D50485920696E94
:103220006974206F6B213D3D3D3D200D0A0000007B
:103230003D3D3D3D3D3D50485920696E69742045F6
:1032400052524F52213D3D3D3D200D0A00000000ED
:10325000400001000000024000040240000802405B
:10326000001002402DE9F84F044689461646F6A0A4
:1032700031F0D6FEA08A494616F0B0F98246FB49E5
:10328000E069084030B9FA49206A084010B91020B6
:10329000BDE8F88FFF2E04D9F6A031F0C1FE04205E
:1032A000F6E7002018B9F249206A084010B148F248
:1032B000FF3501E048F2FF05E06900F0FF4018B972
:1032C000EB49206A084008B145F480551FFA86F89A
:1032D0002B460C2251462046CDF8008018F065FCA4
:1032E000074627B1E7A031F09BFE3846D0E7E8A0BB
:1032F00031F096FE0020CBE72DE9FE4304468846D8
:103300001646E5A031F08CFEA08A414616F066F91B
:103310008146E06900F0FF4030B9D549206A084095
:1033200010B91020BDE8FE834FF410474FF48050D1
:103330000290BDF808003B460C224946009020460A
:1033400018F033FC054625B1CEA031F069FE2846C1
:10335000E8E7002018B9C649206A084058B102A819
:103360000A2100230C22CDE900104946204618F01E
:10337000BCFA05460AE002A8082100230C22CDE988
:1033800000104946204618F0B0FA054625B1BDA008
:1033900031F046FE2846C5E7BDF808003060BCA005
:1033A00031F03EFE0020BDE72DE9FE4304460F4606
:1033B0001646C2A031F034FEA08A394616F00EF946
:1033C0008046AA49E069084030B9A949206A084006
:1033D00010B91020BDE8FE8302A801210F230C22A2
:1033E000CDE900104146204618F07FFA054625B188
:1033F000A4A031F015FE2846ECE7BDF8080078B926
:10340000012000900F230C2241460190204618F025
:10341000BDFA054625B19BA031F002FE2846D9E74A
:10342000002018B99249206A084058B102A80A2120
:1034300000230C22CDE900104146204618F055FA31
:1034400005460AE002A8082100230C22CDE900105D
:103450004146204618F049FA054625B189A031F0C9
:10346000DFFD2846B6E7BDF80800306088A031F0DF
:10347000D7FD0020AEE72DE9FC5F04468A46904662
:103480001D4600222046E16A1AF08DFA617B012078
:103490008840401E1FFA80F90120019010E001A829
:1034A00001230F220B210090204618F013FC064642
:1034B00036B12046E16A1AF083FA3046BDE8FC9F37
:1034C000BDF804000128EAD04FF0000BBAF1080F54
:1034D0007CD2DFE80AF07BB8B704B6B5B4B37F4955
:1034E000E069084018B97E49206A084060B10020B0
:1034F00050B994F8200000F0010028B9002018B954
:10350000208C00F47C7038B17649E069084018B925
:10351000206A00F4BE30B8B37249E069084018B9B7
:10352000206A00F4BE3008B3A879F8B1002018B9B9
:10353000206A00F4B83060B1287A00F01F004FF420
:10354000004141EA0010297C01F00F01084301907D
:1035500014E0287A00F00F004FF4004141EA001017
:10356000297C01F00F010843019007E0A86800EAF8
:103570000900297C60F31F1188B20190287B00F0BC
:1035800007004BEA002B4AE0FFE7E06900F4C020A7
:1035900020B940F2F131206A084090B3002020B9F0
:1035A00040F2F131206A084088B1A86800EA0900B9
:1035B000297C60F31F1188B20190287B00F007007E
:1035C000BDF8041041EA4030019028E0E8E0A96825
:1035D00001EA0901287C61F31F10E97C40EA81308F
:1035E00080B20190687C012819D1A87C00F0070006
:1035F0004FF4005141EA8020BDF8041008430190C7
:103600000DE0FFE7287B8103288900EA090041EAF1
:103610000010297C01F00F01084380B20190BDF831
:1036200004200C21204618F02DFB06462EB1204622
:10363000E16A1AF0C5F9304640E755E0AFE076E0C0
:1036400074E052E071E06FE0676664625365745045
:103650006F72744174754C6561726E4C696D6974FA
:103660002043616C6C65642E0A0000000000F87F46
:10367000007C070042616420506172616D65746571
:10368000720A00004661696C65642E0A0000000041
:103690004F4B2E0A00000000676664624765745055
:1036A0006F72744174754C6561726E4C696D6974AA
:1036B0002043616C6C65642E0A00000067666462DA
:1036C000476574506F72744174754C6561726E43D6
:1036D0006E742043616C6C65642E0A0000F8F97FFB
:1036E000F17F070000F0F97F00BF002719E07800A4
:1036F000401C285C15F8171040EA0120019007F1E2
:103700000D00C1B2BDF80420204618F0BBFA0646F1
:103710002EB12046E16A1AF053F93046CEE6781C05
:10372000C7B2032FE3DB3DE000BF00BF00BF287C32
:103730000F2823D1002018B9206A00F4B83070B1E6
:1037400098F8000000F01F000F2141EA001098F8DF
:10375000041001F01F0140EA4120019010E098F8A8
:10376000000000F00F000F2141EA001098F804104B
:1037700001F00F0140EA0120019001E000200190DA
:10378000BDF804200C21204618F07CFA06462EB124
:103790002046E16A1AF014F930468FE602E001E0B3
:1037A00001208BE600BFFE49E069084018B9206A95
:1037B00000F4BE3088B1E889C0F30B000C2300226E
:1037C00001210090204618F0D4FA06465EB3204648
:1037D000E16A1AF0F5F8304670E6E06900F4F83076
:1037E00008B9002088B1A87BC0F3031004230C2281
:1037F0000A210090204618F0BCFA06469EB12046E9
:10380000E16A1AF0DDF8304658E6E06900F48020FD
:1038100020B940F2F131206A084020B1A87B00F0C5
:1038200030004BEA001BDE49E069084018B9206A05
:1038300000F4BE3040B14FF4004040EA0A3040EAA4
:103840000B001FFA80FB0BE04FF4004040EA0A3007
:10385000A97B01F00F01084340EA0B001FFA80FB2F
:103860005A460B21204618F00DFA06462EB1204686
:10387000E16A1AF0A5F8304620E6BAF1070F70D1D8
:10388000012001900FE001A801230F220B210090DD
:10389000204618F01FFA06462EB12046E16A1AF0BB
:1038A0008FF830460AE6BDF804000128EBD001A8E5
:1038B00004231A460B210090204618F00BFA064606
:1038C0002EB12046E16A1AF07BF83046F6E5B4499D
:1038D000E069084040B9B349206A084020B9BDF802
:1038E000040000F007000190BDF80400012810D08A
:1038F00002280AD0042804D008280ED1C8F80800ED
:1039000014E00420C8F8080010E00220C8F80800FD
:103910000CE00120C8F8080008E00020C8F8080002
:103920002046E16A1AF04CF80020C7E500BF0020ED
:10393000E8819B49E069084018B9206A00F4BE306C
:10394000A0B101A80C23002201210090204618F00C
:10395000C1F9064636B12046E16A1AF031F8304620
:10396000ACE592E0BDF80400E8813DE0E06900F4D8
:10397000F83008B90020B8B101A804230C220A21AC
:103980000090204618F0A6F906462EB12046E16ABE
:103990001AF016F8304691E5BDF804004FF6FF71B5
:1039A00001EA0010E8811FE0E06900F4802020B9FE
:1039B00040F2F131206A0840B0B101A80223082288
:1039C0000B210090204618F085F906462EB12046BE
:1039D000E16A19F0F5FF304670E5BDF804004FF6D6
:1039E000FF7101EA0010E8816D49E0690840D0B933
:1039F000206A00F4BE30B0B901A8042300220B21D4
:103A00000090204618F066F906462EB12046E16A7D
:103A100019F0D6FF304651E5E889BDF8041001F0F1
:103A20000F010843E88101AA0C21204618F006F98D
:103A300006462EB12046E16A19F0C2FF30463DE548
:103A4000BDF8040000F00F00287400271BE007F108
:103A50000D00C1B201AA204618F0F0F806462EB1BA
:103A60002046E16A19F0ACFF304627E5BDF80400B6
:103A7000001205F81700BDF80400C1B27800401C20
:103A80002954781CC7B2032FE1DBBAF1040F7DD1B2
:103A90000020A87168740021A974E97401200190C4
:103AA0000FE001A801230F220B210090204618F0FF
:103AB00011F906462EB12046E16A19F081FF304621
:103AC000FCE4BDF804000128EBD000271BE007F15F
:103AD0000D00C1B201AA204618F0B0F806462EB17A
:103AE0002046E16A19F06CFF3046E7E4BDF80400B7
:103AF000001205F81700BDF80400C1B27800401CA0
:103B00002954781CC7B2032FE1DB01AA0C212046FF
:103B100018F094F806462EB12046E16A19F050FFDD
:103B20003046CBE42049E069084018B91D49206AB5
:103B3000084060B1002050B994F8200000F0010066
:103B400028B9002018B9208C00F47C7038B11749CE
:103B5000E069084018B9206A00F4BE3040B3134948
:103B6000E069084018B9206A00F4BE3018B1BDF809
:103B70000400C00BA871BDF8040009EA2010A86079
:103B8000BDF8040000F00F00287400E06DE001A80B
:103B9000032308220B210090204618F09BF808E030
:103BA0000000F87FF17F070000F8F97F00F0F97F4F
:103BB0000BE006462EB12046E16A19F001FF3046BF
:103BC0007CE4BDF8040028734FE0E06900F4C020F5
:103BD00020B940F2F131206A0840B8B3002020B982
:103BE00040F2F131206A0840A8B1BDF8040009EAAA
:103BF0002010A860BDF8040000F00F002874BDF884
:103C00000400400B2873297BA974297BE9740020E8
:103C10002873687429E000202873BDF8040009EABD
:103C20002010A860BDF8040000F00F002874BDF853
:103C30000400C0F340306874BDF80400C0F3822172
:103C4000A974BDF804008113E9740EE0FFE7BDF824
:103C5000040080132873BDF8040009EA2010A8604E
:103C6000BDF8040000F00F0028742046E16A19F046
:103C7000A7FE002022E42DE9F04F87B083460C46D2
:103C80009146F8A031F0CCF9207830B1012805D068
:103C9000022806D0032808D104E000BF4FF0000836
:103CA00007E000BFD4F8048003E0002007B0BDE8BF
:103CB000F08F00BF002794F800A000253EE0A80385
:103CC00040EA0A3080B20190BDF804200E21584627
:103CD00018F0D5F806462EB1AFF2586031F0A0F9D1
:103CE0003046E3E71FFA88F0ADF8160006220021FF
:103CF00002A815F03FFC02AB002204215846FFF752
:103D0000BAFB0646012E05D1AFF2886031F088F982
:103D10003046CBE701AA0E21584618F086F8064631
:103D20002EB1AFF2A06031F07BF93046BEE7BDF8AE
:103D30000400C0F30B000744681C85B2042DBEDBF1
:103D4000C9F800700020B1E72DE9F04387B00446C0
:103D50008846CAA031F064F9CF49E069084018B933
:103D6000CE49206A084050B100208DF8000042463C
:103D700069462046FFF77FFF07B0BDE8F0830027C4
:103D8000C749E069084008B9002008B110251FE0C4
:103D9000E06900F4802020B940F2F131206A084047
:103DA00008B1402514E0E06900F4F83008B90020BB
:103DB00010B14FF480750BE0B749E069084018B9BD
:103DC000B849206A084010B14FF4805500E0012541
:103DD00000264DE0B0B2ADF81600207F00F0630081
:103DE00008B9002028B10622002102A815F0C2FB64
:103DF00004E00622FF2102A815F0BCFB35E002AB6F
:103E0000002204212046FFF736FB8146B9F1000F5E
:103E100005D0AFF2907031F003F94846ACE79DF859
:103E20000800FF2820D19DF80900FF281CD19DF82B
:103E30000A00FF2818D19DF80B00FF2814D19DF827
:103E40000C00FF2810D19DF80D00FF280CD1207F19
:103E500000F0630008B9002000B107E09DF81800E9
:103E600000B903E07F1C01E07F1CC8E700BF761C9F
:103E7000AE42AFD3C8F80070AFF2EC7031F0D0F8BA
:103E8000002079E72DE9F04188B004460E469046BF
:103E900085A031F0C5F88049E069084018B97F492C
:103EA000206A084058B102208DF80400029642466C
:103EB00001A92046FFF7DFFE08B0BDE8F08100252C
:103EC000B0B2ADF81A00207F00F0630008B90020FE
:103ED00028B10622002103A815F04CFB04E00622BD
:103EE000FF2103A815F046FB33E003AB00220421B9
:103EF0002046FFF7C0FA07462FB1AFF6780031F041
:103F00008FF83846D8E79DF80C00FF2820D19DF89F
:103F10000D00FF281CD19DF80E00FF2818D19DF838
:103F20000F00FF2814D19DF81000FF2810D19DF834
:103F30001100FF280CD1207F00F0630008B9002099
:103F400000B107E09DF81C0000B903E06D1C01E022
:103F50006D1CCAE700BFC8F80050AFF6CC0031F0C6
:103F60005FF80020A8E7F0B504460D460020A5B193
:103F70000AB9002112E0072A01D801210EE00E2A19
:103F800009D8524FE6693E402EB9444F266A3E405A
:103F90000EB9012102E0114600E011461960F0BDA2
:103FA0002DE9F04389B004460D46904648A031F013
:103FB00037F83949E069084018B93849206A08409B
:103FC00058B103208DF804000295424601A920460D
:103FD000FFF751FE09B0BDE8F0830026A8B2ADF8A6
:103FE0001A00207F00F0630008B9002028B10622E3
:103FF000002103A815F0BEFA04E00622FF2103A861
:1040000015F0B8FA87E003AB002204212046FFF741
:1040100032FA07462FB1AFF6941031F001F8384666
:10402000D8E79DF80C00FF2814D19DF80D00FF285B
:1040300010D19DF80E00FF280CD19DF80F00FF282D
:1040400008D19DF81000FF2804D19DF81100FF2829
:1040500000D161E09DF80C0000F0010000B15AE0D1
:104060004AE000006174754765745374617473208D
:1040700043616C6C65642E0A000000006766646230
:10408000476574417475416C6C436F756E74204361
:10409000616C6C65642E0A000000F87FF17F0700F8
:1040A0009C0D0200007C07006766646247657441EE
:1040B0007475416C6C436F756E74496E44424E75F5
:1040C0006D2043616C6C65642E0A000000FCFF7F6C
:1040D0006766646247657441747544796E616D69A1
:1040E00063436F756E74496E44424E756D20436133
:1040F0006C6C65642E0A00009DF81C2008AB012141
:104100002046FFF730FF089800F0FF09B9F1010FD2
:1041100000D1761C00BF76E700BFC8F80060AFF69C
:10412000902030F07DFF002054E77CB504460D461A
:10413000FCA030F075FF052D2FD2DFE805F0030F4E
:1041400010111D00FD49E069084008B9002010B1B8
:104150000020019001E010207CBD20E000BF00BFE6
:10416000F649E069084008B9002008B1019502E06D
:10417000681E80B2019012E0F049E069084038B949
:10418000002028B9A08B00F4E97008B9002008B11C
:104190001020E1E70320019001E01020DCE700BFE0
:1041A000E749E069084018B9E649206A084008B1C3
:1041B0001020D1E7BDF8040002230C220A21009050
:1041C000204617F0D6FD06462EB1AFF6483030F047
:1041D00027FF3046C0E7002001900FE001A801232F
:1041E0000B2200210090204617F074FD06462EB1E8
:1041F000AFF6703030F014FF3046ADE7BDF8040084
:104200000028EBD0AFF6783030F00AFF0020A3E7AB
:1042100070B506460C461546CBA030F001FF04B140
:104220002DB9AFF6A03030F0FBFE042070BDCE49B2
:10423000F069084018B9C349306A084028B10F2016
:10424000286040F6F160206004E0102028604FF400
:104250007F602060AFF6C83030F0E2FE0020E5E776
:104260002DE9FC4104460F46C0A030F0D9FEBE49FE
:10427000E069084018B9B349206A084008B10F2620
:1042800000E0102601A8082304220A2100902046FD
:1042900017F020FD054635B1AFF6184030F0C0FEEE
:1042A0002846BDE8FC81BDF8040070433860AFF6D5
:1042B000204030F0B5FE0020F3E72DE9F843074633
:1042C0000C46B2A030F0ACFEA749F869084018B916
:1042D0009C49386A084008B10F2600E01026B44215
:1042E00002D20CB1012506E0B4FBF6F085B205F46C
:1042F0007F4000B1FF25082304220A21384600959B
:1043000017F037FD8046B8F1000F06D0AFF68C40AD
:1043100030F086FE4046BDE8F883AFF68C4030F0C2
:104320007FFE0020F7E77CB504460E469FA030F0E4
:1043300077FEA549E069084018B9A449206A0840F9
:1043400060B1002050B994F8200000F0010028B9B5
:10435000002018B9208C00F47C7020B19CA030F0B3
:104360005FFE10207CBD01A8012303220A210090DA
:10437000204617F0AFFC0546BDF8040008B1012047
:1043800000E00020307025B1AFF6085030F048FE54
:1043900003E0AFF6045030F043FE2846E2E7F8B5FC
:1043A00004460E468FA030F03BFE8749E069084086
:1043B00018B98649206A084060B1002050B994F8C5
:1043C000200000F0010028B9002018B9208C00F46A
:1043D0007C7020B17EA030F023FE1020F8BD012EAD
:1043E00001D1012000E000200746012303220A2119
:1043F0002046009717F0BDFC054625B1AFF67C506E
:1044000030F00EFE03E0AFF6785030F009FE28469B
:10441000E4E77CB504460E4679A030F001FEE06981
:1044200000F0C94020B940F6F171206A084058B147
:10443000002048B9208C00F4805028B9002018B919
:10444000206A00F4B03020B161A030F0E9FD102006
:104450007CBD01A801230F220A210090204617F0FD
:1044600039FC0546BDF8040008B1012000E0002039
:10447000307025B1AFF6F45030F0D2FD03E0AFF666
:10448000F05030F0CDFD2846E2E7F8B504460E4680
:1044900061A030F0C5FDE06900F0C94020B940F6E8
:1044A000F171206A084058B1002048B9208C00F40E
:1044B000805028B9002018B9206A00F4B03020B12B
:1044C00043A030F0ADFD1020F8BD012E01D1012038
:1044D00000E00020074601230F220A212046009712
:1044E00017F047FC054625B1AFF6686030F098FD3F
:1044F00003E0AFF6646030F093FD2846E4E72DE971
:10450000F04788B004460F4649A030F089FD504975
:10451000E069084018B92D49206A084008B1012017
:1045200098E0A1E0676664625365744174755369ED
:104530007A652043616C6C65642E0A000C000600ED
:1045400000FEF97F007C070067666462476574417E
:1045500067696E6754696D6552616E676520436176
:104560006C6C65642E0A000000FEFF7F6766646263
:104570004765744167696E6754696D656F7574202E
:1045800043616C6C65642E0A00000000676664621B
:104590005365744167696E6754696D656F75742002
:1045A00043616C6C65642E0A0000000067707274D1
:1045B0004765744C6561726E32416C6C2043616C6E
:1045C0006C65642E0A00000000F8F97FF17F070097
:1045D00047545F4E4F545F535550504F52544544CB
:1045E0000A000000677072745365744C6561726EE6
:1045F00032416C6C2043616C6C65642E0A000000D3
:10460000676664624765744D616341766220436109
:104610006C6C65642E0A0000677072745365744D8B
:1046200061634176622043616C6C65642E0A000010
:104630006766646247657441747544796E616D693B
:1046400063436F756E742043616C6C65642E0A0061
:104650000000F87F8DF800003A4669462046FFF7D3
:104660000AFB08B0BDE8F0874FF00008F849E069A0
:10467000084008B9002008B110251FE0E06900F4E7
:10468000802020B940F2F131206A084008B140256D
:1046900014E0E06900F4F83008B9002010B14FF4DC
:1046A00080750BE0EB49E069084018B9EA49206AD7
:1046B000084010B14FF4805500E00125002655E078
:1046C000B0B2ADF81600207F00F0630008B90020FA
:1046D00028B10622002102A814F04CFF04E00622B3
:1046E000FF2102A814F046FF3DE002AB00220421A6
:1046F0002046FEF7C0FE8146B9F1000F04D0D7482E
:1047000030F08EFC4846ACE79DF80800FF2814D135
:104710009DF80900FF2810D19DF80A00FF280CD150
:104720009DF80B00FF2808D19DF80C00FF2804D14C
:104730009DF80D00FF2800D116E09DF8080000F05C
:10474000010000B10FE09DF8182007AB01212046C1
:10475000FFF709FC079800F0FF0ABAF1010F01D139
:1047600008F1010800BFC0E700BF761CAE42A7D326
:10477000C7F80080B9480C3030F052FC002070E7D8
:1047800070B586B005460C46B5A030F049FC287FD0
:1047900000F0630008B9002028B10622002101A81A
:1047A00014F0E8FE04E00622FF2101A814F0E2FE66
:1047B000E089ADF81200BDF81210B1A030F030FC65
:1047C00001AB002204212846FEF755FE06462EB115
:1047D000AEA030F025FC304606B070BD9DF8040058
:1047E000FF2826D19DF80500FF2822D19DF806005C
:1047F000FF281ED19DF80700FF281AD19DF8080058
:10480000FF2816D19DF80900FF2812D1287F00F05B
:10481000630008B9002020B1A8A030F001FC0D20F1
:10482000DAE79DF8140020B9A4A030F0F9FB0D20C0
:10483000D2E7062201A9204614F0A6FEA88A039911
:1048400014F014FFA0609DF8100020739DF80A007A
:10485000A0719DF8150060749DF81610A1749DF864
:104860001710E1749DF8040000F0010088B1288859
:10487000512804D1794830F0D3FB0120ACE79DF8F2
:1048800014206B4600212846FFF76DFB009820742A
:1048900008E09DF814206B4601212846FFF763FBD2
:1048A000009820746D480C3030F0BAFB002093E77C
:1048B00070B586B005460C4686A030F0B1FB207876
:1048C000FF2811D16078FF280ED1A078FF280BD1E6
:1048D000E078FF2808D12079FF2805D16079FF28EA
:1048E00002D10D2006B070BD0622214601A814F0A9
:1048F0004BFEE089ADF81200BDF8121060A030F058
:104900008FFB01AB002204212846FEF7B4FD0646CA
:1049100026B15EA030F084FB3046E3E79DF804004A
:10492000FF2826D19DF80500FF2822D19DF806001A
:10493000FF281ED19DF80700FF281AD19DF8080016
:10494000FF2816D19DF80900FF2812D1287F00F01A
:10495000630008B9002020B158A030F061FB0D20A1
:10496000C0E79DF8140020B954A030F059FB0D2089
:10497000B8E7062201A9204614F006FEA88A03998A
:1049800014F074FEA0609DF8100020739DF80A00DA
:10499000A0719DF8150060749DF81610A1749DF823
:1049A0001710E1749DF8040000F0010088B1288818
:1049B000512804D1294830F033FB012092E79DF8BB
:1049C00014206B4600212846FFF7CDFA009820748A
:1049D00008E09DF814206B4601212846FFF7C3FA32
:1049E000009820741D480C3030F01AFB002079E745
:1049F0002DE9F04186B006460C4617463DA030F042
:104A00000FFB002038700622214601A814F0BCFDDF
:104A1000E089ADF8120005250CE001A8405D28B141
:104A200001A8405D401E01A9485505E0FF2001A9ED
:104A300048556D1E002DF0DA00BF681C30B9307F7C
:104A400000F0630008B9002000B163E069E00000F5
:104A50009C0D02000000F87F007C070084360008EF
:104A600067666462476574417475456E7472794611
:104A7000697273742043616C6C65642E0A000000D7
:104A800044424E756D203A2025690A004661696CE2
:104A9000656420286174754F7065726174696F6E0A
:104AA000506572666F726D2072657475726E6564A2
:104AB0002047545F4641494C292E0A004661696CE3
:104AC00065642028496E76616C6964204D616329B4
:104AD0002E0A000067666462476574417475456E0E
:104AE0007472794E6578742043616C6C65642E0A2B
:104AF000000000006766646246696E644174754D2B
:104B00006163456E7472792043616C6C65642E0A32
:104B100000000000F9A030F083FA042006B0BDE8E0
:104B2000F08101AB002204213046FEF7A4FC804650
:104B3000B8F1000F04D0FA4830F072FA4046EDE7C1
:104B40009DF80400FF2827D19DF80500FF2823D1F8
:104B50009DF80600FF281FD19DF80700FF281BD1F4
:104B60009DF80800FF2817D19DF80900FF2813D1F0
:104B7000307F00F0630008B9002020B1E9A030F0D8
:104B80004FFA0D20CAE79DF8140028B9AFF2D400FF
:104B900030F046FA0D20C1E7062201A9204614F0A4
:104BA00000FD20B1DE4830F03BFA0D20B6E7B08AB8
:104BB000039914F05BFDA0609DF8100020739DF830
:104BC0000A00A0719DF8150060749DF81610A1747C
:104BD0009DF81710E1749DF8040000F0010088B101
:104BE0003088512804D1CE4830F01AFA012095E7D8
:104BF0009DF814206B4600213046FFF7B4F9009869
:104C0000207408E09DF814206B4601213046FFF720
:104C1000AAF90098207401203870C1480C3030F097
:104C2000FFF900207AE770B586B005460E46C7A0AA
:104C300030F0F6F9CA49E869084050B9C949286A0C
:104C4000084030B9AFF2786030F0EAF9102006B0D1
:104C500070BD0020ADF812008DF81400012E07D1B0
:104C600001AB002201212846FEF705FC044606E0C0
:104C700001AB002202212846FEF7FDFB044624B1C9
:104C8000A74830F0CDF92046E1E7A5480C3030F0D8
:104C9000C7F90020DBE7F0B585B004460E4617469D
:104CA000B1A030F0BDF92146B5A0E26A30F0B8F904
:104CB000BD49E0690840F8B90020E8B9E06900F4AE
:104CC0008020C8B940F2F131206A0840A0B9B74944
:104CD000E069084080B9B649206A084060B9E069D7
:104CE00000F4F83040B9002030B9AFF21C7030F059
:104CF00097F9102005B0F0BDB8B2ADF80E00002055
:104D00008DF81000012E07D16B46002205212046A8
:104D1000FEF7B1FB054606E06B4600220621204661
:104D2000FEF7A9FB054625B17D4830F079F9284604
:104D3000E0E77B480C3030F073F90020DAE72DE92A
:104D4000F0418AB004460F4690461D4699A030F0C7
:104D500067F99D49E069084058B98249206A0840CE
:104D600038B9AFF2947030F05BF910200AB0BDE8AA
:104D7000F0810020ADF822000F208DF824000F2DC7
:104D800001D1029504E0A08A294614F027FC029084
:104D9000A08A414614F022FC01900298FF2802D01C
:104DA0000198FF2801D10420E0E7012F07D105ABCE
:104DB00001AA01212046FEF75EFB064606E005AB90
:104DC00001AA02212046FEF756FB064626B15448AA
:104DD00030F026F93046C9E751480C3030F020F960
:104DE0000020C3E72DE9F04389B004460F46904602
:104DF0009946109E75A030F013F97349E069084098
:104E000058B95849206A084038B9AFF63C0030F02C
:104E100007F9102009B0BDE8F0831FFA88F0ADF85B
:104E20001E000F208DF820000F2E01D1019604E006
:104E3000A08A314614F0D2FB0190A08A494614F0B2
:104E4000CDFB00900198FF2802D00098FF2801D1E7
:104E50000420DFE7012F07D104AB6A460521204675
:104E6000FEF709FB054606E004AB6A46062120462C
:104E7000FEF701FB054625B1294830F0D1F8284658
:104E8000C8E727480C3030F0CBF80020C2E770B5F7
:104E900004460D46164653A030F0C2F80F233246A2
:104EA00029462046FFF74BFF70BDF8B506460F4672
:104EB00014461D4651A030F0B3F80F2023462A4671
:104EC000394600903046FFF78DFFF8BDF0B5044637
:104ED0000D460020002D0ED0D6B2102E0CD2DFE8E9
:104EE00006F0089B0B0B0B0B0B0BA7B4C1CEDBE83A
:104EF000F7F2114613E113E104E10000416464722A
:104F00006573732073686F756C64206E6F742062B4
:104F10006520616C6C207A65726F732E0A00000048
:104F2000843600084661696C6564202842726F61AE
:104F300064636173742061646472206973206E6FAE
:104F4000742076616C6964292E0A000067666462C9
:104F5000466C7573682043616C6C65642E0A0000B2
:104F6000FEFDFF7FF17F070067666462466C757324
:104F700068496E44422043616C6C65642E0A0000EF
:104F800067666462467573683A206465763D257885
:104F90002C206465762D3E61747552656773536588
:104FA0006D3D2564200A00009C0D02000000F87F82
:104FB000007C0700676664624D6F76652043616C14
:104FC0006C65642E0A00000000ACFD7F67666462B9
:104FD0004D6F7665496E44422043616C6C65642E6A
:104FE0000A0000006766646252656D6F7665506FF7
:104FF00072742043616C6C65642E0A00676664629B
:1050000052656D6F7665506F7274496E44422043ED
:10501000616C6C65642E0A00FC4FE6693E401EB967
:10502000FB4F266A3E400EB1072100E00E2176E0DC
:10503000F84FE6693E401EB9F54F266A3E400EB174
:10504000114601E00F21042069E0F24FE6693E407D
:105050001EB9EF4F266A3E400EB1114601E00F2106
:1050600004205CE0EB4FE6693E401EB9E84F266A3B
:105070003E400EB1114601E00F2104204FE0E54F04
:10508000E6693E401EB9E24F266A3E400EB1114627
:1050900001E00F21042042E0DF4FE6693E401EB9E7
:1050A000DB4F266A3E400EB1114601E00F2104207D
:1050B00035E0D94FE6693E401EB9D54F266A3E40DD
:1050C0001EB1114603E010E002E00F21042026E0AB
:1050D000D14FE6693E401EB9CD4F266A3E400EB123
:1050E000114601E00F21042019E0CC4FE6693E4053
:1050F0001EB9C74F266A3E400EB1114601E00F218E
:1051000004200CE0C14FE6693E401EB9C04F266A3C
:105110003E400EB1072100E00E21042000BF7EE0DA
:10512000D6B2102E77D2DFE806F0087676760A1728
:105130002532767676763F4C5A6711466EE0B54F4B
:10514000E6693E401EB9B24F266A3E400EB1114696
:1051500001E00721042061E0B04FBF1EE6693E4038
:105160001EB9AB4F266A3E400EB1114601E0072141
:10517000042053E0A94FE6693E401EB9A44F266AB9
:105180003E400EB1114601E00721042046E0A34F46
:10519000E6693E401EB99E4F266A3E400EB111465A
:1051A00001E00721042039E09A4FE6693E401EB92C
:1051B000974F266A3E400EB1114601E007210420B8
:1051C0002CE0924FFC37E6693E401EB9904F266AAC
:1051D0003E400EB1114601E0072104201EE08F4F32
:1051E000E6693E401EB98A4F266A3E400EB111461E
:1051F00001E00721042011E0844FFE37E6693E40BC
:105200001EB9834F266A3E4016B1114602E002E005
:105210000721042002E00721042000BF00BF19601D
:10522000F0BD70B586B005460C467DA02FF0F8FEA7
:105230007A49E869084050B97549286A084030B988
:10524000AFF674402FF0ECFE102006B070BD0622C1
:10525000214601A814F098F9E089ADF81200A88A57
:10526000A16814F0EDF903900398401C08B90420DC
:10527000EBE7E86900F4C02020B940F2F131286A78
:105280000840F0B1E86900F4802018B9286A00F4F9
:10529000EE2048B1607C8DF81500A17C8DF81610C9
:1052A000E17C8DF8171008E000208DF81500E17CF6
:1052B0008DF81610E17C8DF8171000208DF8100085
:1052C0000AE000208DF8150000218DF816108DF8E9
:1052D0001710207B8DF810005849E869084018B96C
:1052E000286A00F4BE3018B1A0798DF80A0002E0F7
:1052F00000208DF80A009DF8040000F0010050B174
:10530000227C6B4600212846FFF7E0FD0098C0B2E2
:105310008DF8140009E0227C6B4601212846FFF736
:10532000D5FD0098C0B28DF814009DF8140020B986
:1053300043A02FF075FE042087E701AB0022032174
:105340002846FEF798F8064626B146482FF068FE34
:1053500030467AE743480C302FF062FE002074E7B5
:1053600070B586B004460E463FA02FF059FE2B497B
:10537000E069084050B92649206A084030B9AFF6C4
:10538000B0502FF04DFE102006B070BD0622314601
:1053900001A814F0F9F80020ADF812008DF8100003
:1053A00003908DF814008DF80A008DF81500002187
:1053B0008DF816108DF8171001AB0022032120463E
:1053C000FEF759F8054625B126482FF029FE284654
:1053D000DAE724480C302FF023FE0020D4E770B524
:1053E00086B004460E4627A02FF01AFE0B49E0694E
:1053F000084050B90649206A084030B9AFF630601D
:105400002FF00EFE102006B070BD49E000FCFF7FBB
:10541000F17F07000000FE7F00F0FF7FFEFDFF7FB1
:10542000676664624164644D6163456E747279209D
:1054300043616C6C65642E0A0000000000F0F97F87
:10544000456E7472792053746174652073686F754A
:105450006C64206E6F74206265205A45524F2E0A8C
:1054600000000000843600086766646244656C4D85
:105470006163456E7472792043616C6C65642E0AB9
:10548000000000006766646244656C417475456E97
:105490007472792043616C6C65642E0A0000000010
:1054A0000622314601A814F06FF8F089ADF8120019
:1054B00000208DF8100003908DF814008DF80A007C
:1054C0008DF8150000218DF816108DF8171001AB1E
:1054D000002203212046FDF7CEFF05462DB1FA48F4
:1054E0002FF09EFD284606B070BDF7480C302FF017
:1054F00097FD0020F7E72DE9F84305460F46F3A096
:105500002FF08EFD012F01D1012000E00020804608
:10551000C8F101001FFA80F8F349E869084018B99A
:10552000F249286A0840C0B10FB9012000E000200C
:10553000814600260DE04A463146284608F0D9FB50
:1055400004462CB1E0482FF06BFD2046BDE8F883FF
:10555000761C287BB042EED80EE001230E220A21F1
:105560002846CDF8008016F004FC044624B1D64845
:105570002FF056FD2046E9E7D3480C302FF050FDC0
:105580000020E3E77CB504460E46D9A02FF048FD85
:10559000D549E069084018B9D449206A084008B1E3
:1055A00010207CBD01A801230E220A210090204674
:1055B00016F090FB054625B1C3482FF031FD284673
:1055C000EFE7BDF80400C0F1010080B20190BDF822
:1055D0000400012800D100E000203070BA480C30EF
:1055E0002FF01EFD0020DCE77CB505460E46C7A067
:1055F0002FF016FD002040B9286A00F4B83020B919
:10560000C9482FF00DFD10207CBD01A80123022206
:105610000A210090284616F05DFB044624B1AA48F2
:105620002FF0FEFC2046EFE7BDF8040008B1012092
:1056300000E000203070A4480C302FF0F1FC002076
:10564000E2E7F8B505460E46B8A02FF0E9FC0020C9
:1056500040B9286A00F4B83020B9B3482FF0E0FC14
:105660001020F8BD012E01D1012000E000200746E6
:10567000012302220A212846009716F07AFB0446ED
:1056800024B191482FF0CCFC2046EAE78E480C303C
:105690002FF0C6FC0020E4E7F8B505460E46AAA0A8
:1056A0002FF0BEFC002040B9286A00F4EE2020B99B
:1056B0009D482FF0B5FC1020F8BD012E01D101202E
:1056C00000E000200746012303220B212846009713
:1056D00016F04FFB044624B17B482FF0A1FC204676
:1056E000EAE779480C302FF09BFC0020E4E77CB51A
:1056F00005460E469BA02FF093FC002040B9286A77
:1057000000F4EE2020B988482FF08AFC10207CBDE0
:1057100001A8012303220B210090284616F0DAFA93
:10572000044624B168482FF07BFC2046EFE7BDF823
:10573000040008B1012000E00020307062480C3005
:105740002FF06EFC0020E2E7F8B505460E468CA06F
:105750002FF066FC002040B9286A00F4EE2020B942
:1057600071482FF05DFC1020F8BD032300220B21AF
:105770002846009616F0FDFA044624B152482FF050
:105780004FFC2046F0E750480C302FF049FC002039
:10579000EAE7F8B505460E467FA02FF041FC002051
:1057A00040B9286A00F4EE2020B95F482FF038FC99
:1057B0001020F8BD032300220B212846009616F086
:1057C00089FA044624B140482FF02AFC2046F0E72D
:1057D0003D480C302FF024FC0020EAE770B58EB075
:1057E00005460C4672A02FF01BFC0DA801230322D6
:1057F00000210090284616F06DFA06462EB173A0DF
:105800002FF00EFC30460EB070BDBDF8340010B95C
:1058100000202080F7E70020ADF82E0008AB04AA96
:1058200007212846FDF727FE06462EB1AFF6A45005
:105830002FF0F6FB3046E6E7062208A9201D13F0FC
:10584000A3FE069820809DF83000A070BDF82E00C1
:105850000DF0AEFEE070A0780F2804D0A178A88AE1
:1058600013F0D3FEA0706349E869084018B9624993
:10587000286A084008B30698082802D11020208022
:105880001BE00698022818D102A9284610F090FEC5
:10589000060001D03046B6E79DF8080068B103AABB
:1058A00008A92846FFF7A4F89DF80C0028B19DF838
:1058B0003000042801DC0820208003480C302FF041
:1058C000AFFB00209FE70000843600086766646233
:1058D0004C6561726E456E61626C652043616C6CF3
:1058E00065642E0A0000000000FEF97F007C0700BE
:1058F000676664624765744C6561726E456E61628D
:105900006C652043616C6C65642E0A006766646296
:105910004765744C6561726E4156422043616C6C00
:1059200065642E0A00000000D045000867666462C6
:105930005365744C6561726E4156422043616C6CD4
:1059400065642E0A00000000676664625365744156
:105950005455546573744D6F64652043616C6C6578
:10596000642E0A0067666462476574415455546545
:1059700073744D6F64652043616C6C65642E0A001E
:10598000676664625365744D616346507269204373
:10599000616C6C65642E0A00676664624765744DCD
:1059A0006163465072692043616C6C65642E0A0025
:1059B0006761747547657456696F6C6174696F6E61
:1059C0002043616C6C65642E0A0000004552524F02
:1059D0005220746F207265616420415455204F50ED
:1059E00045524154494F4E20526567697374657240
:1059F0002E0A00000000F87FF17F0700F8B5054689
:105A00000C460026002C1DD1694628460FF0B1FA3D
:105A1000060004D0C4A02FF003FB3046F8BDBDF84B
:105A2000000020F001000090BDF8001028460FF0A3
:105A3000C4F9060004D0C4A02FF0F2FA3046EDE716
:105A40003046EBE7072128460FF06EFB060004D036
:105A5000C5A02FF0E5FA3046E0E7694628460FF08A
:105A600088FA060004D0B0A02FF0DAFA3046D5E765
:105A7000BDF8000040F001000090BDF8001028467D
:105A80000FF09BF9060004D0AFA02FF0C9FA304602
:105A9000C4E7012128460FF0BEFA060004D0B8A0E2
:105AA0002FF0BEFA3046B9E73046B7E72DE9F041AE
:105AB00086B004460E464FF00008B8A02FF0B0FAAA
:105AC0002088512806D1BBA02FF0AAFA012006B0E9
:105AD000BDE8F081012E07D1E07B012804D1B8A0F8
